{
	"contracts/tokenWithBlacklist.sol": {
		"BlackToken": {
			"abi": [
				{
					"inputs": [
						{
							"internalType": "uint256",
							"name": "_initialAmount",
							"type": "uint256"
						},
						{
							"internalType": "string",
							"name": "_tokenName",
							"type": "string"
						},
						{
							"internalType": "uint8",
							"name": "_decimalUnits",
							"type": "uint8"
						},
						{
							"internalType": "string",
							"name": "_tokenSymbol",
							"type": "string"
						}
					],
					"stateMutability": "nonpayable",
					"type": "constructor"
				},
				{
					"anonymous": false,
					"inputs": [
						{
							"indexed": true,
							"internalType": "address",
							"name": "_owner",
							"type": "address"
						},
						{
							"indexed": true,
							"internalType": "address",
							"name": "_spender",
							"type": "address"
						},
						{
							"indexed": false,
							"internalType": "uint256",
							"name": "_value",
							"type": "uint256"
						}
					],
					"name": "Approval",
					"type": "event"
				},
				{
					"anonymous": false,
					"inputs": [
						{
							"indexed": true,
							"internalType": "address",
							"name": "_from",
							"type": "address"
						},
						{
							"indexed": true,
							"internalType": "address",
							"name": "_to",
							"type": "address"
						},
						{
							"indexed": false,
							"internalType": "uint256",
							"name": "_value",
							"type": "uint256"
						}
					],
					"name": "Transfer",
					"type": "event"
				},
				{
					"inputs": [
						{
							"internalType": "address",
							"name": "_user",
							"type": "address"
						}
					],
					"name": "RemoveFromBlackList",
					"outputs": [],
					"stateMutability": "nonpayable",
					"type": "function"
				},
				{
					"inputs": [
						{
							"internalType": "address",
							"name": "_user",
							"type": "address"
						}
					],
					"name": "addToBlackList",
					"outputs": [],
					"stateMutability": "nonpayable",
					"type": "function"
				},
				{
					"inputs": [
						{
							"internalType": "address",
							"name": "_owner",
							"type": "address"
						},
						{
							"internalType": "address",
							"name": "_spender",
							"type": "address"
						}
					],
					"name": "allowance",
					"outputs": [
						{
							"internalType": "uint256",
							"name": "remaining",
							"type": "uint256"
						}
					],
					"stateMutability": "view",
					"type": "function"
				},
				{
					"inputs": [
						{
							"internalType": "address",
							"name": "",
							"type": "address"
						},
						{
							"internalType": "address",
							"name": "",
							"type": "address"
						}
					],
					"name": "allowed",
					"outputs": [
						{
							"internalType": "uint256",
							"name": "",
							"type": "uint256"
						}
					],
					"stateMutability": "view",
					"type": "function"
				},
				{
					"inputs": [
						{
							"internalType": "address",
							"name": "_spender",
							"type": "address"
						},
						{
							"internalType": "uint256",
							"name": "_value",
							"type": "uint256"
						}
					],
					"name": "approve",
					"outputs": [
						{
							"internalType": "bool",
							"name": "success",
							"type": "bool"
						}
					],
					"stateMutability": "nonpayable",
					"type": "function"
				},
				{
					"inputs": [
						{
							"internalType": "address",
							"name": "_owner",
							"type": "address"
						}
					],
					"name": "balanceOf",
					"outputs": [
						{
							"internalType": "uint256",
							"name": "balance",
							"type": "uint256"
						}
					],
					"stateMutability": "view",
					"type": "function"
				},
				{
					"inputs": [
						{
							"internalType": "address",
							"name": "",
							"type": "address"
						}
					],
					"name": "balances",
					"outputs": [
						{
							"internalType": "uint256",
							"name": "",
							"type": "uint256"
						}
					],
					"stateMutability": "view",
					"type": "function"
				},
				{
					"inputs": [],
					"name": "decimals",
					"outputs": [
						{
							"internalType": "uint8",
							"name": "",
							"type": "uint8"
						}
					],
					"stateMutability": "view",
					"type": "function"
				},
				{
					"inputs": [
						{
							"internalType": "address",
							"name": "",
							"type": "address"
						}
					],
					"name": "isBlackListed",
					"outputs": [
						{
							"internalType": "bool",
							"name": "",
							"type": "bool"
						}
					],
					"stateMutability": "view",
					"type": "function"
				},
				{
					"inputs": [
						{
							"internalType": "uint256",
							"name": "amount",
							"type": "uint256"
						}
					],
					"name": "mint",
					"outputs": [],
					"stateMutability": "nonpayable",
					"type": "function"
				},
				{
					"inputs": [],
					"name": "name",
					"outputs": [
						{
							"internalType": "string",
							"name": "",
							"type": "string"
						}
					],
					"stateMutability": "view",
					"type": "function"
				},
				{
					"inputs": [],
					"name": "symbol",
					"outputs": [
						{
							"internalType": "string",
							"name": "",
							"type": "string"
						}
					],
					"stateMutability": "view",
					"type": "function"
				},
				{
					"inputs": [],
					"name": "totalSupply",
					"outputs": [
						{
							"internalType": "uint256",
							"name": "",
							"type": "uint256"
						}
					],
					"stateMutability": "view",
					"type": "function"
				},
				{
					"inputs": [
						{
							"internalType": "address",
							"name": "_to",
							"type": "address"
						},
						{
							"internalType": "uint256",
							"name": "_value",
							"type": "uint256"
						}
					],
					"name": "transfer",
					"outputs": [
						{
							"internalType": "bool",
							"name": "success",
							"type": "bool"
						}
					],
					"stateMutability": "nonpayable",
					"type": "function"
				},
				{
					"inputs": [
						{
							"internalType": "address",
							"name": "_from",
							"type": "address"
						},
						{
							"internalType": "address",
							"name": "_to",
							"type": "address"
						},
						{
							"internalType": "uint256",
							"name": "_value",
							"type": "uint256"
						}
					],
					"name": "transferFrom",
					"outputs": [
						{
							"internalType": "bool",
							"name": "success",
							"type": "bool"
						}
					],
					"stateMutability": "nonpayable",
					"type": "function"
				}
			],
			"devdoc": {
				"kind": "dev",
				"methods": {
					"allowance(address,address)": {
						"params": {
							"_owner": "The address of the account owning tokens",
							"_spender": "The address of the account able to transfer the tokens"
						},
						"returns": {
							"remaining": "Amount of remaining tokens allowed to spent"
						}
					},
					"approve(address,uint256)": {
						"params": {
							"_spender": "The address of the account able to transfer the tokens",
							"_value": "The amount of wei to be approved for transfer"
						},
						"returns": {
							"success": "Whether the approval was successful or not"
						}
					},
					"balanceOf(address)": {
						"params": {
							"_owner": "The address from which the balance will be retrieved"
						},
						"returns": {
							"balance": "the balance"
						}
					},
					"transfer(address,uint256)": {
						"params": {
							"_to": "The address of the recipient",
							"_value": "The amount of token to be transferred"
						},
						"returns": {
							"success": "Whether the transfer was successful or not"
						}
					},
					"transferFrom(address,address,uint256)": {
						"params": {
							"_from": "The address of the sender",
							"_to": "The address of the recipient",
							"_value": "The amount of token to be transferred"
						},
						"returns": {
							"success": "Whether the transfer was successful or not"
						}
					}
				},
				"version": 1
			},
			"evm": {
				"assembly": "    /* \"contracts/tokenWithBlacklist.sol\":1964:5056  contract BlackToken is Token {... */\n  mstore(0x40, 0x80)\n    /* \"contracts/tokenWithBlacklist.sol\":2384:2818  constructor(uint256 _initialAmount, string memory _tokenName, uint8 _decimalUnits, string  memory _tokenSymbol) {... */\n  callvalue\n  dup1\n  iszero\n  tag_1\n  jumpi\n  0x00\n  dup1\n  revert\ntag_1:\n  pop\n  mload(0x40)\n  sub(codesize, bytecodeSize)\n  dup1\n  bytecodeSize\n  dup4\n  codecopy\n  dup2\n  dup2\n  add\n  0x40\n  mstore\n  dup2\n  add\n  swap1\n  tag_2\n  swap2\n  swap1\n  tag_3\n  jump\t// in\ntag_2:\n    /* \"contracts/tokenWithBlacklist.sol\":2530:2544  _initialAmount */\n  dup4\n    /* \"contracts/tokenWithBlacklist.sol\":2507:2515  balances */\n  0x01\n    /* \"contracts/tokenWithBlacklist.sol\":2507:2527  balances[msg.sender] */\n  0x00\n    /* \"contracts/tokenWithBlacklist.sol\":2516:2526  msg.sender */\n  caller\n    /* \"contracts/tokenWithBlacklist.sol\":2507:2527  balances[msg.sender] */\n  0xffffffffffffffffffffffffffffffffffffffff\n  and\n  0xffffffffffffffffffffffffffffffffffffffff\n  and\n  dup2\n  mstore\n  0x20\n  add\n  swap1\n  dup2\n  mstore\n  0x20\n  add\n  0x00\n  keccak256\n    /* \"contracts/tokenWithBlacklist.sol\":2507:2544  balances[msg.sender] = _initialAmount */\n  dup2\n  swap1\n  sstore\n  pop\n    /* \"contracts/tokenWithBlacklist.sol\":2583:2597  _initialAmount */\n  dup4\n    /* \"contracts/tokenWithBlacklist.sol\":2569:2580  totalSupply */\n  0x03\n    /* \"contracts/tokenWithBlacklist.sol\":2569:2597  totalSupply = _initialAmount */\n  dup2\n  swap1\n  sstore\n  pop\n    /* \"contracts/tokenWithBlacklist.sol\":2639:2649  _tokenName */\n  dup3\n    /* \"contracts/tokenWithBlacklist.sol\":2632:2636  name */\n  0x04\n    /* \"contracts/tokenWithBlacklist.sol\":2632:2649  name = _tokenName */\n  swap1\n  dup2\n  tag_6\n  swap2\n  swap1\n  tag_7\n  jump\t// in\ntag_6:\n  pop\n    /* \"contracts/tokenWithBlacklist.sol\":2706:2719  _decimalUnits */\n  dup2\n    /* \"contracts/tokenWithBlacklist.sol\":2695:2703  decimals */\n  0x05\n  0x00\n    /* \"contracts/tokenWithBlacklist.sol\":2695:2719  decimals = _decimalUnits */\n  0x0100\n  exp\n  dup2\n  sload\n  dup2\n  0xff\n  mul\n  not\n  and\n  swap1\n  dup4\n  0xff\n  and\n  mul\n  or\n  swap1\n  sstore\n  pop\n    /* \"contracts/tokenWithBlacklist.sol\":2767:2779  _tokenSymbol */\n  dup1\n    /* \"contracts/tokenWithBlacklist.sol\":2758:2764  symbol */\n  0x06\n    /* \"contracts/tokenWithBlacklist.sol\":2758:2779  symbol = _tokenSymbol */\n  swap1\n  dup2\n  tag_8\n  swap2\n  swap1\n  tag_7\n  jump\t// in\ntag_8:\n  pop\n    /* \"contracts/tokenWithBlacklist.sol\":2384:2818  constructor(uint256 _initialAmount, string memory _tokenName, uint8 _decimalUnits, string  memory _tokenSymbol) {... */\n  pop\n  pop\n  pop\n  pop\n    /* \"contracts/tokenWithBlacklist.sol\":1964:5056  contract BlackToken is Token {... */\n  jump(tag_9)\n    /* \"#utility.yul\":7:82   */\ntag_10:\n    /* \"#utility.yul\":40:46   */\n  0x00\n    /* \"#utility.yul\":73:75   */\n  0x40\n    /* \"#utility.yul\":67:76   */\n  mload\n    /* \"#utility.yul\":57:76   */\n  swap1\n  pop\n    /* \"#utility.yul\":7:82   */\n  swap1\n  jump\t// out\n    /* \"#utility.yul\":88:205   */\ntag_11:\n    /* \"#utility.yul\":197:198   */\n  0x00\n    /* \"#utility.yul\":194:195   */\n  dup1\n    /* \"#utility.yul\":187:199   */\n  revert\n    /* \"#utility.yul\":211:328   */\ntag_12:\n    /* \"#utility.yul\":320:321   */\n  0x00\n    /* \"#utility.yul\":317:318   */\n  dup1\n    /* \"#utility.yul\":310:322   */\n  revert\n    /* \"#utility.yul\":334:411   */\ntag_13:\n    /* \"#utility.yul\":371:378   */\n  0x00\n    /* \"#utility.yul\":400:405   */\n  dup2\n    /* \"#utility.yul\":389:405   */\n  swap1\n  pop\n    /* \"#utility.yul\":334:411   */\n  swap2\n  swap1\n  pop\n  jump\t// out\n    /* \"#utility.yul\":417:539   */\ntag_14:\n    /* \"#utility.yul\":490:514   */\n  tag_53\n    /* \"#utility.yul\":508:513   */\n  dup2\n    /* \"#utility.yul\":490:514   */\n  tag_13\n  jump\t// in\ntag_53:\n    /* \"#utility.yul\":483:488   */\n  dup2\n    /* \"#utility.yul\":480:515   */\n  eq\n    /* \"#utility.yul\":470:533   */\n  tag_54\n  jumpi\n    /* \"#utility.yul\":529:530   */\n  0x00\n    /* \"#utility.yul\":526:527   */\n  dup1\n    /* \"#utility.yul\":519:531   */\n  revert\n    /* \"#utility.yul\":470:533   */\ntag_54:\n    /* \"#utility.yul\":417:539   */\n  pop\n  jump\t// out\n    /* \"#utility.yul\":545:688   */\ntag_15:\n    /* \"#utility.yul\":602:607   */\n  0x00\n    /* \"#utility.yul\":633:639   */\n  dup2\n    /* \"#utility.yul\":627:640   */\n  mload\n    /* \"#utility.yul\":618:640   */\n  swap1\n  pop\n    /* \"#utility.yul\":649:682   */\n  tag_56\n    /* \"#utility.yul\":676:681   */\n  dup2\n    /* \"#utility.yul\":649:682   */\n  tag_14\n  jump\t// in\ntag_56:\n    /* \"#utility.yul\":545:688   */\n  swap3\n  swap2\n  pop\n  pop\n  jump\t// out\n    /* \"#utility.yul\":694:811   */\ntag_16:\n    /* \"#utility.yul\":803:804   */\n  0x00\n    /* \"#utility.yul\":800:801   */\n  dup1\n    /* \"#utility.yul\":793:805   */\n  revert\n    /* \"#utility.yul\":817:934   */\ntag_17:\n    /* \"#utility.yul\":926:927   */\n  0x00\n    /* \"#utility.yul\":923:924   */\n  dup1\n    /* \"#utility.yul\":916:928   */\n  revert\n    /* \"#utility.yul\":940:1042   */\ntag_18:\n    /* \"#utility.yul\":981:987   */\n  0x00\n    /* \"#utility.yul\":1032:1034   */\n  0x1f\n    /* \"#utility.yul\":1028:1035   */\n  not\n    /* \"#utility.yul\":1023:1025   */\n  0x1f\n    /* \"#utility.yul\":1016:1021   */\n  dup4\n    /* \"#utility.yul\":1012:1026   */\n  add\n    /* \"#utility.yul\":1008:1036   */\n  and\n    /* \"#utility.yul\":998:1036   */\n  swap1\n  pop\n    /* \"#utility.yul\":940:1042   */\n  swap2\n  swap1\n  pop\n  jump\t// out\n    /* \"#utility.yul\":1048:1228   */\ntag_19:\n    /* \"#utility.yul\":1096:1173   */\n  0x4e487b7100000000000000000000000000000000000000000000000000000000\n    /* \"#utility.yul\":1093:1094   */\n  0x00\n    /* \"#utility.yul\":1086:1174   */\n  mstore\n    /* \"#utility.yul\":1193:1197   */\n  0x41\n    /* \"#utility.yul\":1190:1191   */\n  0x04\n    /* \"#utility.yul\":1183:1198   */\n  mstore\n    /* \"#utility.yul\":1217:1221   */\n  0x24\n    /* \"#utility.yul\":1214:1215   */\n  0x00\n    /* \"#utility.yul\":1207:1222   */\n  revert\n    /* \"#utility.yul\":1234:1515   */\ntag_20:\n    /* \"#utility.yul\":1317:1344   */\n  tag_62\n    /* \"#utility.yul\":1339:1343   */\n  dup3\n    /* \"#utility.yul\":1317:1344   */\n  tag_18\n  jump\t// in\ntag_62:\n    /* \"#utility.yul\":1309:1315   */\n  dup2\n    /* \"#utility.yul\":1305:1345   */\n  add\n    /* \"#utility.yul\":1447:1453   */\n  dup2\n    /* \"#utility.yul\":1435:1445   */\n  dup2\n    /* \"#utility.yul\":1432:1454   */\n  lt\n    /* \"#utility.yul\":1411:1429   */\n  0xffffffffffffffff\n    /* \"#utility.yul\":1399:1409   */\n  dup3\n    /* \"#utility.yul\":1396:1430   */\n  gt\n    /* \"#utility.yul\":1393:1455   */\n  or\n    /* \"#utility.yul\":1390:1478   */\n  iszero\n  tag_63\n  jumpi\n    /* \"#utility.yul\":1458:1476   */\n  tag_64\n  tag_19\n  jump\t// in\ntag_64:\n    /* \"#utility.yul\":1390:1478   */\ntag_63:\n    /* \"#utility.yul\":1498:1508   */\n  dup1\n    /* \"#utility.yul\":1494:1496   */\n  0x40\n    /* \"#utility.yul\":1487:1509   */\n  mstore\n    /* \"#utility.yul\":1277:1515   */\n  pop\n    /* \"#utility.yul\":1234:1515   */\n  pop\n  pop\n  jump\t// out\n    /* \"#utility.yul\":1521:1650   */\ntag_21:\n    /* \"#utility.yul\":1555:1561   */\n  0x00\n    /* \"#utility.yul\":1582:1602   */\n  tag_66\n  tag_10\n  jump\t// in\ntag_66:\n    /* \"#utility.yul\":1572:1602   */\n  swap1\n  pop\n    /* \"#utility.yul\":1611:1644   */\n  tag_67\n    /* \"#utility.yul\":1639:1643   */\n  dup3\n    /* \"#utility.yul\":1631:1637   */\n  dup3\n    /* \"#utility.yul\":1611:1644   */\n  tag_20\n  jump\t// in\ntag_67:\n    /* \"#utility.yul\":1521:1650   */\n  swap2\n  swap1\n  pop\n  jump\t// out\n    /* \"#utility.yul\":1656:1964   */\ntag_22:\n    /* \"#utility.yul\":1718:1722   */\n  0x00\n    /* \"#utility.yul\":1808:1826   */\n  0xffffffffffffffff\n    /* \"#utility.yul\":1800:1806   */\n  dup3\n    /* \"#utility.yul\":1797:1827   */\n  gt\n    /* \"#utility.yul\":1794:1850   */\n  iszero\n  tag_69\n  jumpi\n    /* \"#utility.yul\":1830:1848   */\n  tag_70\n  tag_19\n  jump\t// in\ntag_70:\n    /* \"#utility.yul\":1794:1850   */\ntag_69:\n    /* \"#utility.yul\":1868:1897   */\n  tag_71\n    /* \"#utility.yul\":1890:1896   */\n  dup3\n    /* \"#utility.yul\":1868:1897   */\n  tag_18\n  jump\t// in\ntag_71:\n    /* \"#utility.yul\":1860:1897   */\n  swap1\n  pop\n    /* \"#utility.yul\":1952:1956   */\n  0x20\n    /* \"#utility.yul\":1946:1950   */\n  dup2\n    /* \"#utility.yul\":1942:1957   */\n  add\n    /* \"#utility.yul\":1934:1957   */\n  swap1\n  pop\n    /* \"#utility.yul\":1656:1964   */\n  swap2\n  swap1\n  pop\n  jump\t// out\n    /* \"#utility.yul\":1970:2216   */\ntag_23:\n    /* \"#utility.yul\":2051:2052   */\n  0x00\n    /* \"#utility.yul\":2061:2174   */\ntag_73:\n    /* \"#utility.yul\":2075:2081   */\n  dup4\n    /* \"#utility.yul\":2072:2073   */\n  dup2\n    /* \"#utility.yul\":2069:2082   */\n  lt\n    /* \"#utility.yul\":2061:2174   */\n  iszero\n  tag_75\n  jumpi\n    /* \"#utility.yul\":2160:2161   */\n  dup1\n    /* \"#utility.yul\":2155:2158   */\n  dup3\n    /* \"#utility.yul\":2151:2162   */\n  add\n    /* \"#utility.yul\":2145:2163   */\n  mload\n    /* \"#utility.yul\":2141:2142   */\n  dup2\n    /* \"#utility.yul\":2136:2139   */\n  dup5\n    /* \"#utility.yul\":2132:2143   */\n  add\n    /* \"#utility.yul\":2125:2164   */\n  mstore\n    /* \"#utility.yul\":2097:2099   */\n  0x20\n    /* \"#utility.yul\":2094:2095   */\n  dup2\n    /* \"#utility.yul\":2090:2100   */\n  add\n    /* \"#utility.yul\":2085:2100   */\n  swap1\n  pop\n    /* \"#utility.yul\":2061:2174   */\n  jump(tag_73)\ntag_75:\n    /* \"#utility.yul\":2208:2209   */\n  0x00\n    /* \"#utility.yul\":2199:2205   */\n  dup5\n    /* \"#utility.yul\":2194:2197   */\n  dup5\n    /* \"#utility.yul\":2190:2206   */\n  add\n    /* \"#utility.yul\":2183:2210   */\n  mstore\n    /* \"#utility.yul\":2032:2216   */\n  pop\n    /* \"#utility.yul\":1970:2216   */\n  pop\n  pop\n  pop\n  jump\t// out\n    /* \"#utility.yul\":2222:2656   */\ntag_24:\n    /* \"#utility.yul\":2311:2316   */\n  0x00\n    /* \"#utility.yul\":2336:2402   */\n  tag_77\n    /* \"#utility.yul\":2352:2401   */\n  tag_78\n    /* \"#utility.yul\":2394:2400   */\n  dup5\n    /* \"#utility.yul\":2352:2401   */\n  tag_22\n  jump\t// in\ntag_78:\n    /* \"#utility.yul\":2336:2402   */\n  tag_21\n  jump\t// in\ntag_77:\n    /* \"#utility.yul\":2327:2402   */\n  swap1\n  pop\n    /* \"#utility.yul\":2425:2431   */\n  dup3\n    /* \"#utility.yul\":2418:2423   */\n  dup2\n    /* \"#utility.yul\":2411:2432   */\n  mstore\n    /* \"#utility.yul\":2463:2467   */\n  0x20\n    /* \"#utility.yul\":2456:2461   */\n  dup2\n    /* \"#utility.yul\":2452:2468   */\n  add\n    /* \"#utility.yul\":2501:2504   */\n  dup5\n    /* \"#utility.yul\":2492:2498   */\n  dup5\n    /* \"#utility.yul\":2487:2490   */\n  dup5\n    /* \"#utility.yul\":2483:2499   */\n  add\n    /* \"#utility.yul\":2480:2505   */\n  gt\n    /* \"#utility.yul\":2477:2589   */\n  iszero\n  tag_79\n  jumpi\n    /* \"#utility.yul\":2508:2587   */\n  tag_80\n  tag_17\n  jump\t// in\ntag_80:\n    /* \"#utility.yul\":2477:2589   */\ntag_79:\n    /* \"#utility.yul\":2598:2650   */\n  tag_81\n    /* \"#utility.yul\":2643:2649   */\n  dup5\n    /* \"#utility.yul\":2638:2641   */\n  dup3\n    /* \"#utility.yul\":2633:2636   */\n  dup6\n    /* \"#utility.yul\":2598:2650   */\n  tag_23\n  jump\t// in\ntag_81:\n    /* \"#utility.yul\":2317:2656   */\n  pop\n    /* \"#utility.yul\":2222:2656   */\n  swap4\n  swap3\n  pop\n  pop\n  pop\n  jump\t// out\n    /* \"#utility.yul\":2676:3031   */\ntag_25:\n    /* \"#utility.yul\":2743:2748   */\n  0x00\n    /* \"#utility.yul\":2792:2795   */\n  dup3\n    /* \"#utility.yul\":2785:2789   */\n  0x1f\n    /* \"#utility.yul\":2777:2783   */\n  dup4\n    /* \"#utility.yul\":2773:2790   */\n  add\n    /* \"#utility.yul\":2769:2796   */\n  slt\n    /* \"#utility.yul\":2759:2881   */\n  tag_83\n  jumpi\n    /* \"#utility.yul\":2800:2879   */\n  tag_84\n  tag_16\n  jump\t// in\ntag_84:\n    /* \"#utility.yul\":2759:2881   */\ntag_83:\n    /* \"#utility.yul\":2910:2916   */\n  dup2\n    /* \"#utility.yul\":2904:2917   */\n  mload\n    /* \"#utility.yul\":2935:3025   */\n  tag_85\n    /* \"#utility.yul\":3021:3024   */\n  dup5\n    /* \"#utility.yul\":3013:3019   */\n  dup3\n    /* \"#utility.yul\":3006:3010   */\n  0x20\n    /* \"#utility.yul\":2998:3004   */\n  dup7\n    /* \"#utility.yul\":2994:3011   */\n  add\n    /* \"#utility.yul\":2935:3025   */\n  tag_24\n  jump\t// in\ntag_85:\n    /* \"#utility.yul\":2926:3025   */\n  swap2\n  pop\n    /* \"#utility.yul\":2749:3031   */\n  pop\n    /* \"#utility.yul\":2676:3031   */\n  swap3\n  swap2\n  pop\n  pop\n  jump\t// out\n    /* \"#utility.yul\":3037:3123   */\ntag_26:\n    /* \"#utility.yul\":3072:3079   */\n  0x00\n    /* \"#utility.yul\":3112:3116   */\n  0xff\n    /* \"#utility.yul\":3105:3110   */\n  dup3\n    /* \"#utility.yul\":3101:3117   */\n  and\n    /* \"#utility.yul\":3090:3117   */\n  swap1\n  pop\n    /* \"#utility.yul\":3037:3123   */\n  swap2\n  swap1\n  pop\n  jump\t// out\n    /* \"#utility.yul\":3129:3247   */\ntag_27:\n    /* \"#utility.yul\":3200:3222   */\n  tag_88\n    /* \"#utility.yul\":3216:3221   */\n  dup2\n    /* \"#utility.yul\":3200:3222   */\n  tag_26\n  jump\t// in\ntag_88:\n    /* \"#utility.yul\":3193:3198   */\n  dup2\n    /* \"#utility.yul\":3190:3223   */\n  eq\n    /* \"#utility.yul\":3180:3241   */\n  tag_89\n  jumpi\n    /* \"#utility.yul\":3237:3238   */\n  0x00\n    /* \"#utility.yul\":3234:3235   */\n  dup1\n    /* \"#utility.yul\":3227:3239   */\n  revert\n    /* \"#utility.yul\":3180:3241   */\ntag_89:\n    /* \"#utility.yul\":3129:3247   */\n  pop\n  jump\t// out\n    /* \"#utility.yul\":3253:3392   */\ntag_28:\n    /* \"#utility.yul\":3308:3313   */\n  0x00\n    /* \"#utility.yul\":3339:3345   */\n  dup2\n    /* \"#utility.yul\":3333:3346   */\n  mload\n    /* \"#utility.yul\":3324:3346   */\n  swap1\n  pop\n    /* \"#utility.yul\":3355:3386   */\n  tag_91\n    /* \"#utility.yul\":3380:3385   */\n  dup2\n    /* \"#utility.yul\":3355:3386   */\n  tag_27\n  jump\t// in\ntag_91:\n    /* \"#utility.yul\":3253:3392   */\n  swap3\n  swap2\n  pop\n  pop\n  jump\t// out\n    /* \"#utility.yul\":3398:4560   */\ntag_3:\n    /* \"#utility.yul\":3513:3519   */\n  0x00\n    /* \"#utility.yul\":3521:3527   */\n  dup1\n    /* \"#utility.yul\":3529:3535   */\n  0x00\n    /* \"#utility.yul\":3537:3543   */\n  dup1\n    /* \"#utility.yul\":3586:3589   */\n  0x80\n    /* \"#utility.yul\":3574:3583   */\n  dup6\n    /* \"#utility.yul\":3565:3572   */\n  dup8\n    /* \"#utility.yul\":3561:3584   */\n  sub\n    /* \"#utility.yul\":3557:3590   */\n  slt\n    /* \"#utility.yul\":3554:3674   */\n  iszero\n  tag_93\n  jumpi\n    /* \"#utility.yul\":3593:3672   */\n  tag_94\n  tag_11\n  jump\t// in\ntag_94:\n    /* \"#utility.yul\":3554:3674   */\ntag_93:\n    /* \"#utility.yul\":3713:3714   */\n  0x00\n    /* \"#utility.yul\":3738:3802   */\n  tag_95\n    /* \"#utility.yul\":3794:3801   */\n  dup8\n    /* \"#utility.yul\":3785:3791   */\n  dup3\n    /* \"#utility.yul\":3774:3783   */\n  dup9\n    /* \"#utility.yul\":3770:3792   */\n  add\n    /* \"#utility.yul\":3738:3802   */\n  tag_15\n  jump\t// in\ntag_95:\n    /* \"#utility.yul\":3728:3802   */\n  swap5\n  pop\n    /* \"#utility.yul\":3684:3812   */\n  pop\n    /* \"#utility.yul\":3872:3874   */\n  0x20\n    /* \"#utility.yul\":3861:3870   */\n  dup6\n    /* \"#utility.yul\":3857:3875   */\n  add\n    /* \"#utility.yul\":3851:3876   */\n  mload\n    /* \"#utility.yul\":3903:3921   */\n  0xffffffffffffffff\n    /* \"#utility.yul\":3895:3901   */\n  dup2\n    /* \"#utility.yul\":3892:3922   */\n  gt\n    /* \"#utility.yul\":3889:4006   */\n  iszero\n  tag_96\n  jumpi\n    /* \"#utility.yul\":3925:4004   */\n  tag_97\n  tag_12\n  jump\t// in\ntag_97:\n    /* \"#utility.yul\":3889:4006   */\ntag_96:\n    /* \"#utility.yul\":4030:4104   */\n  tag_98\n    /* \"#utility.yul\":4096:4103   */\n  dup8\n    /* \"#utility.yul\":4087:4093   */\n  dup3\n    /* \"#utility.yul\":4076:4085   */\n  dup9\n    /* \"#utility.yul\":4072:4094   */\n  add\n    /* \"#utility.yul\":4030:4104   */\n  tag_25\n  jump\t// in\ntag_98:\n    /* \"#utility.yul\":4020:4104   */\n  swap4\n  pop\n    /* \"#utility.yul\":3822:4114   */\n  pop\n    /* \"#utility.yul\":4153:4155   */\n  0x40\n    /* \"#utility.yul\":4179:4241   */\n  tag_99\n    /* \"#utility.yul\":4233:4240   */\n  dup8\n    /* \"#utility.yul\":4224:4230   */\n  dup3\n    /* \"#utility.yul\":4213:4222   */\n  dup9\n    /* \"#utility.yul\":4209:4231   */\n  add\n    /* \"#utility.yul\":4179:4241   */\n  tag_28\n  jump\t// in\ntag_99:\n    /* \"#utility.yul\":4169:4241   */\n  swap3\n  pop\n    /* \"#utility.yul\":4124:4251   */\n  pop\n    /* \"#utility.yul\":4311:4313   */\n  0x60\n    /* \"#utility.yul\":4300:4309   */\n  dup6\n    /* \"#utility.yul\":4296:4314   */\n  add\n    /* \"#utility.yul\":4290:4315   */\n  mload\n    /* \"#utility.yul\":4342:4360   */\n  0xffffffffffffffff\n    /* \"#utility.yul\":4334:4340   */\n  dup2\n    /* \"#utility.yul\":4331:4361   */\n  gt\n    /* \"#utility.yul\":4328:4445   */\n  iszero\n  tag_100\n  jumpi\n    /* \"#utility.yul\":4364:4443   */\n  tag_101\n  tag_12\n  jump\t// in\ntag_101:\n    /* \"#utility.yul\":4328:4445   */\ntag_100:\n    /* \"#utility.yul\":4469:4543   */\n  tag_102\n    /* \"#utility.yul\":4535:4542   */\n  dup8\n    /* \"#utility.yul\":4526:4532   */\n  dup3\n    /* \"#utility.yul\":4515:4524   */\n  dup9\n    /* \"#utility.yul\":4511:4533   */\n  add\n    /* \"#utility.yul\":4469:4543   */\n  tag_25\n  jump\t// in\ntag_102:\n    /* \"#utility.yul\":4459:4543   */\n  swap2\n  pop\n    /* \"#utility.yul\":4261:4553   */\n  pop\n    /* \"#utility.yul\":3398:4560   */\n  swap3\n  swap6\n  swap2\n  swap5\n  pop\n  swap3\n  pop\n  jump\t// out\n    /* \"#utility.yul\":4566:4665   */\ntag_29:\n    /* \"#utility.yul\":4618:4624   */\n  0x00\n    /* \"#utility.yul\":4652:4657   */\n  dup2\n    /* \"#utility.yul\":4646:4658   */\n  mload\n    /* \"#utility.yul\":4636:4658   */\n  swap1\n  pop\n    /* \"#utility.yul\":4566:4665   */\n  swap2\n  swap1\n  pop\n  jump\t// out\n    /* \"#utility.yul\":4671:4851   */\ntag_30:\n    /* \"#utility.yul\":4719:4796   */\n  0x4e487b7100000000000000000000000000000000000000000000000000000000\n    /* \"#utility.yul\":4716:4717   */\n  0x00\n    /* \"#utility.yul\":4709:4797   */\n  mstore\n    /* \"#utility.yul\":4816:4820   */\n  0x22\n    /* \"#utility.yul\":4813:4814   */\n  0x04\n    /* \"#utility.yul\":4806:4821   */\n  mstore\n    /* \"#utility.yul\":4840:4844   */\n  0x24\n    /* \"#utility.yul\":4837:4838   */\n  0x00\n    /* \"#utility.yul\":4830:4845   */\n  revert\n    /* \"#utility.yul\":4857:5177   */\ntag_31:\n    /* \"#utility.yul\":4901:4907   */\n  0x00\n    /* \"#utility.yul\":4938:4939   */\n  0x02\n    /* \"#utility.yul\":4932:4936   */\n  dup3\n    /* \"#utility.yul\":4928:4940   */\n  div\n    /* \"#utility.yul\":4918:4940   */\n  swap1\n  pop\n    /* \"#utility.yul\":4985:4986   */\n  0x01\n    /* \"#utility.yul\":4979:4983   */\n  dup3\n    /* \"#utility.yul\":4975:4987   */\n  and\n    /* \"#utility.yul\":5006:5024   */\n  dup1\n    /* \"#utility.yul\":4996:5077   */\n  tag_106\n  jumpi\n    /* \"#utility.yul\":5062:5066   */\n  0x7f\n    /* \"#utility.yul\":5054:5060   */\n  dup3\n    /* \"#utility.yul\":5050:5067   */\n  and\n    /* \"#utility.yul\":5040:5067   */\n  swap2\n  pop\n    /* \"#utility.yul\":4996:5077   */\ntag_106:\n    /* \"#utility.yul\":5124:5126   */\n  0x20\n    /* \"#utility.yul\":5116:5122   */\n  dup3\n    /* \"#utility.yul\":5113:5127   */\n  lt\n    /* \"#utility.yul\":5093:5111   */\n  dup2\n    /* \"#utility.yul\":5090:5128   */\n  sub\n    /* \"#utility.yul\":5087:5171   */\n  tag_107\n  jumpi\n    /* \"#utility.yul\":5143:5161   */\n  tag_108\n  tag_30\n  jump\t// in\ntag_108:\n    /* \"#utility.yul\":5087:5171   */\ntag_107:\n    /* \"#utility.yul\":4908:5177   */\n  pop\n    /* \"#utility.yul\":4857:5177   */\n  swap2\n  swap1\n  pop\n  jump\t// out\n    /* \"#utility.yul\":5183:5324   */\ntag_32:\n    /* \"#utility.yul\":5232:5236   */\n  0x00\n    /* \"#utility.yul\":5255:5258   */\n  dup2\n    /* \"#utility.yul\":5247:5258   */\n  swap1\n  pop\n    /* \"#utility.yul\":5278:5281   */\n  dup2\n    /* \"#utility.yul\":5275:5276   */\n  0x00\n    /* \"#utility.yul\":5268:5282   */\n  mstore\n    /* \"#utility.yul\":5312:5316   */\n  0x20\n    /* \"#utility.yul\":5309:5310   */\n  0x00\n    /* \"#utility.yul\":5299:5317   */\n  keccak256\n    /* \"#utility.yul\":5291:5317   */\n  swap1\n  pop\n    /* \"#utility.yul\":5183:5324   */\n  swap2\n  swap1\n  pop\n  jump\t// out\n    /* \"#utility.yul\":5330:5423   */\ntag_33:\n    /* \"#utility.yul\":5367:5373   */\n  0x00\n    /* \"#utility.yul\":5414:5416   */\n  0x20\n    /* \"#utility.yul\":5409:5411   */\n  0x1f\n    /* \"#utility.yul\":5402:5407   */\n  dup4\n    /* \"#utility.yul\":5398:5412   */\n  add\n    /* \"#utility.yul\":5394:5417   */\n  div\n    /* \"#utility.yul\":5384:5417   */\n  swap1\n  pop\n    /* \"#utility.yul\":5330:5423   */\n  swap2\n  swap1\n  pop\n  jump\t// out\n    /* \"#utility.yul\":5429:5536   */\ntag_34:\n    /* \"#utility.yul\":5473:5481   */\n  0x00\n    /* \"#utility.yul\":5523:5528   */\n  dup3\n    /* \"#utility.yul\":5517:5521   */\n  dup3\n    /* \"#utility.yul\":5513:5529   */\n  shl\n    /* \"#utility.yul\":5492:5529   */\n  swap1\n  pop\n    /* \"#utility.yul\":5429:5536   */\n  swap3\n  swap2\n  pop\n  pop\n  jump\t// out\n    /* \"#utility.yul\":5542:5935   */\ntag_35:\n    /* \"#utility.yul\":5611:5617   */\n  0x00\n    /* \"#utility.yul\":5661:5662   */\n  0x08\n    /* \"#utility.yul\":5649:5659   */\n  dup4\n    /* \"#utility.yul\":5645:5663   */\n  mul\n    /* \"#utility.yul\":5684:5781   */\n  tag_113\n    /* \"#utility.yul\":5714:5780   */\n  0xffffffffffffffffffffffffffffffffffffffffffffffffffffffffffffffff\n    /* \"#utility.yul\":5703:5712   */\n  dup3\n    /* \"#utility.yul\":5684:5781   */\n  tag_34\n  jump\t// in\ntag_113:\n    /* \"#utility.yul\":5802:5841   */\n  tag_114\n    /* \"#utility.yul\":5832:5840   */\n  dup7\n    /* \"#utility.yul\":5821:5830   */\n  dup4\n    /* \"#utility.yul\":5802:5841   */\n  tag_34\n  jump\t// in\ntag_114:\n    /* \"#utility.yul\":5790:5841   */\n  swap6\n  pop\n    /* \"#utility.yul\":5874:5878   */\n  dup1\n    /* \"#utility.yul\":5870:5879   */\n  not\n    /* \"#utility.yul\":5863:5868   */\n  dup5\n    /* \"#utility.yul\":5859:5880   */\n  and\n    /* \"#utility.yul\":5850:5880   */\n  swap4\n  pop\n    /* \"#utility.yul\":5923:5927   */\n  dup1\n    /* \"#utility.yul\":5913:5921   */\n  dup7\n    /* \"#utility.yul\":5909:5928   */\n  and\n    /* \"#utility.yul\":5902:5907   */\n  dup5\n    /* \"#utility.yul\":5899:5929   */\n  or\n    /* \"#utility.yul\":5889:5929   */\n  swap3\n  pop\n    /* \"#utility.yul\":5618:5935   */\n  pop\n  pop\n    /* \"#utility.yul\":5542:5935   */\n  swap4\n  swap3\n  pop\n  pop\n  pop\n  jump\t// out\n    /* \"#utility.yul\":5941:6001   */\ntag_36:\n    /* \"#utility.yul\":5969:5972   */\n  0x00\n    /* \"#utility.yul\":5990:5995   */\n  dup2\n    /* \"#utility.yul\":5983:5995   */\n  swap1\n  pop\n    /* \"#utility.yul\":5941:6001   */\n  swap2\n  swap1\n  pop\n  jump\t// out\n    /* \"#utility.yul\":6007:6149   */\ntag_37:\n    /* \"#utility.yul\":6057:6066   */\n  0x00\n    /* \"#utility.yul\":6090:6143   */\n  tag_117\n    /* \"#utility.yul\":6108:6142   */\n  tag_118\n    /* \"#utility.yul\":6117:6141   */\n  tag_119\n    /* \"#utility.yul\":6135:6140   */\n  dup5\n    /* \"#utility.yul\":6117:6141   */\n  tag_13\n  jump\t// in\ntag_119:\n    /* \"#utility.yul\":6108:6142   */\n  tag_36\n  jump\t// in\ntag_118:\n    /* \"#utility.yul\":6090:6143   */\n  tag_13\n  jump\t// in\ntag_117:\n    /* \"#utility.yul\":6077:6143   */\n  swap1\n  pop\n    /* \"#utility.yul\":6007:6149   */\n  swap2\n  swap1\n  pop\n  jump\t// out\n    /* \"#utility.yul\":6155:6230   */\ntag_38:\n    /* \"#utility.yul\":6198:6201   */\n  0x00\n    /* \"#utility.yul\":6219:6224   */\n  dup2\n    /* \"#utility.yul\":6212:6224   */\n  swap1\n  pop\n    /* \"#utility.yul\":6155:6230   */\n  swap2\n  swap1\n  pop\n  jump\t// out\n    /* \"#utility.yul\":6236:6505   */\ntag_39:\n    /* \"#utility.yul\":6346:6385   */\n  tag_122\n    /* \"#utility.yul\":6377:6384   */\n  dup4\n    /* \"#utility.yul\":6346:6385   */\n  tag_37\n  jump\t// in\ntag_122:\n    /* \"#utility.yul\":6407:6498   */\n  tag_123\n    /* \"#utility.yul\":6456:6497   */\n  tag_124\n    /* \"#utility.yul\":6480:6496   */\n  dup3\n    /* \"#utility.yul\":6456:6497   */\n  tag_38\n  jump\t// in\ntag_124:\n    /* \"#utility.yul\":6448:6454   */\n  dup5\n    /* \"#utility.yul\":6441:6445   */\n  dup5\n    /* \"#utility.yul\":6435:6446   */\n  sload\n    /* \"#utility.yul\":6407:6498   */\n  tag_35\n  jump\t// in\ntag_123:\n    /* \"#utility.yul\":6401:6405   */\n  dup3\n    /* \"#utility.yul\":6394:6499   */\n  sstore\n    /* \"#utility.yul\":6312:6505   */\n  pop\n    /* \"#utility.yul\":6236:6505   */\n  pop\n  pop\n  pop\n  jump\t// out\n    /* \"#utility.yul\":6511:6584   */\ntag_40:\n    /* \"#utility.yul\":6556:6559   */\n  0x00\n    /* \"#utility.yul\":6511:6584   */\n  swap1\n  jump\t// out\n    /* \"#utility.yul\":6590:6779   */\ntag_41:\n    /* \"#utility.yul\":6667:6699   */\n  tag_127\n  tag_40\n  jump\t// in\ntag_127:\n    /* \"#utility.yul\":6708:6773   */\n  tag_128\n    /* \"#utility.yul\":6766:6772   */\n  dup2\n    /* \"#utility.yul\":6758:6764   */\n  dup5\n    /* \"#utility.yul\":6752:6756   */\n  dup5\n    /* \"#utility.yul\":6708:6773   */\n  tag_39\n  jump\t// in\ntag_128:\n    /* \"#utility.yul\":6643:6779   */\n  pop\n    /* \"#utility.yul\":6590:6779   */\n  pop\n  pop\n  jump\t// out\n    /* \"#utility.yul\":6785:6971   */\ntag_42:\n    /* \"#utility.yul\":6845:6965   */\ntag_130:\n    /* \"#utility.yul\":6862:6865   */\n  dup2\n    /* \"#utility.yul\":6855:6860   */\n  dup2\n    /* \"#utility.yul\":6852:6866   */\n  lt\n    /* \"#utility.yul\":6845:6965   */\n  iszero\n  tag_132\n  jumpi\n    /* \"#utility.yul\":6916:6955   */\n  tag_133\n    /* \"#utility.yul\":6953:6954   */\n  0x00\n    /* \"#utility.yul\":6946:6951   */\n  dup3\n    /* \"#utility.yul\":6916:6955   */\n  tag_41\n  jump\t// in\ntag_133:\n    /* \"#utility.yul\":6889:6890   */\n  0x01\n    /* \"#utility.yul\":6882:6887   */\n  dup2\n    /* \"#utility.yul\":6878:6891   */\n  add\n    /* \"#utility.yul\":6869:6891   */\n  swap1\n  pop\n    /* \"#utility.yul\":6845:6965   */\n  jump(tag_130)\ntag_132:\n    /* \"#utility.yul\":6785:6971   */\n  pop\n  pop\n  jump\t// out\n    /* \"#utility.yul\":6977:7520   */\ntag_43:\n    /* \"#utility.yul\":7078:7080   */\n  0x1f\n    /* \"#utility.yul\":7073:7076   */\n  dup3\n    /* \"#utility.yul\":7070:7081   */\n  gt\n    /* \"#utility.yul\":7067:7513   */\n  iszero\n  tag_135\n  jumpi\n    /* \"#utility.yul\":7112:7150   */\n  tag_136\n    /* \"#utility.yul\":7144:7149   */\n  dup2\n    /* \"#utility.yul\":7112:7150   */\n  tag_32\n  jump\t// in\ntag_136:\n    /* \"#utility.yul\":7196:7225   */\n  tag_137\n    /* \"#utility.yul\":7214:7224   */\n  dup5\n    /* \"#utility.yul\":7196:7225   */\n  tag_33\n  jump\t// in\ntag_137:\n    /* \"#utility.yul\":7186:7194   */\n  dup2\n    /* \"#utility.yul\":7182:7226   */\n  add\n    /* \"#utility.yul\":7379:7381   */\n  0x20\n    /* \"#utility.yul\":7367:7377   */\n  dup6\n    /* \"#utility.yul\":7364:7382   */\n  lt\n    /* \"#utility.yul\":7361:7410   */\n  iszero\n  tag_138\n  jumpi\n    /* \"#utility.yul\":7400:7408   */\n  dup2\n    /* \"#utility.yul\":7385:7408   */\n  swap1\n  pop\n    /* \"#utility.yul\":7361:7410   */\ntag_138:\n    /* \"#utility.yul\":7423:7503   */\n  tag_139\n    /* \"#utility.yul\":7479:7501   */\n  tag_140\n    /* \"#utility.yul\":7497:7500   */\n  dup6\n    /* \"#utility.yul\":7479:7501   */\n  tag_33\n  jump\t// in\ntag_140:\n    /* \"#utility.yul\":7469:7477   */\n  dup4\n    /* \"#utility.yul\":7465:7502   */\n  add\n    /* \"#utility.yul\":7452:7463   */\n  dup3\n    /* \"#utility.yul\":7423:7503   */\n  tag_42\n  jump\t// in\ntag_139:\n    /* \"#utility.yul\":7082:7513   */\n  pop\n  pop\n    /* \"#utility.yul\":7067:7513   */\ntag_135:\n    /* \"#utility.yul\":6977:7520   */\n  pop\n  pop\n  pop\n  jump\t// out\n    /* \"#utility.yul\":7526:7643   */\ntag_44:\n    /* \"#utility.yul\":7580:7588   */\n  0x00\n    /* \"#utility.yul\":7630:7635   */\n  dup3\n    /* \"#utility.yul\":7624:7628   */\n  dup3\n    /* \"#utility.yul\":7620:7636   */\n  shr\n    /* \"#utility.yul\":7599:7636   */\n  swap1\n  pop\n    /* \"#utility.yul\":7526:7643   */\n  swap3\n  swap2\n  pop\n  pop\n  jump\t// out\n    /* \"#utility.yul\":7649:7818   */\ntag_45:\n    /* \"#utility.yul\":7693:7699   */\n  0x00\n    /* \"#utility.yul\":7726:7777   */\n  tag_143\n    /* \"#utility.yul\":7774:7775   */\n  0x00\n    /* \"#utility.yul\":7770:7776   */\n  not\n    /* \"#utility.yul\":7762:7767   */\n  dup5\n    /* \"#utility.yul\":7759:7760   */\n  0x08\n    /* \"#utility.yul\":7755:7768   */\n  mul\n    /* \"#utility.yul\":7726:7777   */\n  tag_44\n  jump\t// in\ntag_143:\n    /* \"#utility.yul\":7722:7778   */\n  not\n    /* \"#utility.yul\":7807:7811   */\n  dup1\n    /* \"#utility.yul\":7801:7805   */\n  dup4\n    /* \"#utility.yul\":7797:7812   */\n  and\n    /* \"#utility.yul\":7787:7812   */\n  swap2\n  pop\n    /* \"#utility.yul\":7700:7818   */\n  pop\n    /* \"#utility.yul\":7649:7818   */\n  swap3\n  swap2\n  pop\n  pop\n  jump\t// out\n    /* \"#utility.yul\":7823:8118   */\ntag_46:\n    /* \"#utility.yul\":7899:7903   */\n  0x00\n    /* \"#utility.yul\":8045:8074   */\n  tag_145\n    /* \"#utility.yul\":8070:8073   */\n  dup4\n    /* \"#utility.yul\":8064:8068   */\n  dup4\n    /* \"#utility.yul\":8045:8074   */\n  tag_45\n  jump\t// in\ntag_145:\n    /* \"#utility.yul\":8037:8074   */\n  swap2\n  pop\n    /* \"#utility.yul\":8107:8110   */\n  dup3\n    /* \"#utility.yul\":8104:8105   */\n  0x02\n    /* \"#utility.yul\":8100:8111   */\n  mul\n    /* \"#utility.yul\":8094:8098   */\n  dup3\n    /* \"#utility.yul\":8091:8112   */\n  or\n    /* \"#utility.yul\":8083:8112   */\n  swap1\n  pop\n    /* \"#utility.yul\":7823:8118   */\n  swap3\n  swap2\n  pop\n  pop\n  jump\t// out\n    /* \"#utility.yul\":8123:9518   */\ntag_7:\n    /* \"#utility.yul\":8240:8277   */\n  tag_147\n    /* \"#utility.yul\":8273:8276   */\n  dup3\n    /* \"#utility.yul\":8240:8277   */\n  tag_29\n  jump\t// in\ntag_147:\n    /* \"#utility.yul\":8342:8360   */\n  0xffffffffffffffff\n    /* \"#utility.yul\":8334:8340   */\n  dup2\n    /* \"#utility.yul\":8331:8361   */\n  gt\n    /* \"#utility.yul\":8328:8384   */\n  iszero\n  tag_148\n  jumpi\n    /* \"#utility.yul\":8364:8382   */\n  tag_149\n  tag_19\n  jump\t// in\ntag_149:\n    /* \"#utility.yul\":8328:8384   */\ntag_148:\n    /* \"#utility.yul\":8408:8446   */\n  tag_150\n    /* \"#utility.yul\":8440:8444   */\n  dup3\n    /* \"#utility.yul\":8434:8445   */\n  sload\n    /* \"#utility.yul\":8408:8446   */\n  tag_31\n  jump\t// in\ntag_150:\n    /* \"#utility.yul\":8493:8560   */\n  tag_151\n    /* \"#utility.yul\":8553:8559   */\n  dup3\n    /* \"#utility.yul\":8545:8551   */\n  dup3\n    /* \"#utility.yul\":8539:8543   */\n  dup6\n    /* \"#utility.yul\":8493:8560   */\n  tag_43\n  jump\t// in\ntag_151:\n    /* \"#utility.yul\":8587:8588   */\n  0x00\n    /* \"#utility.yul\":8611:8615   */\n  0x20\n    /* \"#utility.yul\":8598:8615   */\n  swap1\n  pop\n    /* \"#utility.yul\":8643:8645   */\n  0x1f\n    /* \"#utility.yul\":8635:8641   */\n  dup4\n    /* \"#utility.yul\":8632:8646   */\n  gt\n    /* \"#utility.yul\":8660:8661   */\n  0x01\n    /* \"#utility.yul\":8655:9273   */\n  dup2\n  eq\n  tag_153\n  jumpi\n    /* \"#utility.yul\":9317:9318   */\n  0x00\n    /* \"#utility.yul\":9334:9340   */\n  dup5\n    /* \"#utility.yul\":9331:9408   */\n  iszero\n  tag_154\n  jumpi\n    /* \"#utility.yul\":9383:9392   */\n  dup3\n    /* \"#utility.yul\":9378:9381   */\n  dup8\n    /* \"#utility.yul\":9374:9393   */\n  add\n    /* \"#utility.yul\":9368:9394   */\n  mload\n    /* \"#utility.yul\":9359:9394   */\n  swap1\n  pop\n    /* \"#utility.yul\":9331:9408   */\ntag_154:\n    /* \"#utility.yul\":9434:9501   */\n  tag_155\n    /* \"#utility.yul\":9494:9500   */\n  dup6\n    /* \"#utility.yul\":9487:9492   */\n  dup3\n    /* \"#utility.yul\":9434:9501   */\n  tag_46\n  jump\t// in\ntag_155:\n    /* \"#utility.yul\":9428:9432   */\n  dup7\n    /* \"#utility.yul\":9421:9502   */\n  sstore\n    /* \"#utility.yul\":9290:9512   */\n  pop\n    /* \"#utility.yul\":8625:9512   */\n  jump(tag_152)\n    /* \"#utility.yul\":8655:9273   */\ntag_153:\n    /* \"#utility.yul\":8707:8711   */\n  0x1f\n    /* \"#utility.yul\":8703:8712   */\n  not\n    /* \"#utility.yul\":8695:8701   */\n  dup5\n    /* \"#utility.yul\":8691:8713   */\n  and\n    /* \"#utility.yul\":8741:8778   */\n  tag_156\n    /* \"#utility.yul\":8773:8777   */\n  dup7\n    /* \"#utility.yul\":8741:8778   */\n  tag_32\n  jump\t// in\ntag_156:\n    /* \"#utility.yul\":8800:8801   */\n  0x00\n    /* \"#utility.yul\":8814:9022   */\ntag_157:\n    /* \"#utility.yul\":8828:8835   */\n  dup3\n    /* \"#utility.yul\":8825:8826   */\n  dup2\n    /* \"#utility.yul\":8822:8836   */\n  lt\n    /* \"#utility.yul\":8814:9022   */\n  iszero\n  tag_159\n  jumpi\n    /* \"#utility.yul\":8907:8916   */\n  dup5\n    /* \"#utility.yul\":8902:8905   */\n  dup10\n    /* \"#utility.yul\":8898:8917   */\n  add\n    /* \"#utility.yul\":8892:8918   */\n  mload\n    /* \"#utility.yul\":8884:8890   */\n  dup3\n    /* \"#utility.yul\":8877:8919   */\n  sstore\n    /* \"#utility.yul\":8958:8959   */\n  0x01\n    /* \"#utility.yul\":8950:8956   */\n  dup3\n    /* \"#utility.yul\":8946:8960   */\n  add\n    /* \"#utility.yul\":8936:8960   */\n  swap2\n  pop\n    /* \"#utility.yul\":9005:9007   */\n  0x20\n    /* \"#utility.yul\":8994:9003   */\n  dup6\n    /* \"#utility.yul\":8990:9008   */\n  add\n    /* \"#utility.yul\":8977:9008   */\n  swap5\n  pop\n    /* \"#utility.yul\":8851:8855   */\n  0x20\n    /* \"#utility.yul\":8848:8849   */\n  dup2\n    /* \"#utility.yul\":8844:8856   */\n  add\n    /* \"#utility.yul\":8839:8856   */\n  swap1\n  pop\n    /* \"#utility.yul\":8814:9022   */\n  jump(tag_157)\ntag_159:\n    /* \"#utility.yul\":9050:9056   */\n  dup7\n    /* \"#utility.yul\":9041:9048   */\n  dup4\n    /* \"#utility.yul\":9038:9057   */\n  lt\n    /* \"#utility.yul\":9035:9214   */\n  iszero\n  tag_160\n  jumpi\n    /* \"#utility.yul\":9108:9117   */\n  dup5\n    /* \"#utility.yul\":9103:9106   */\n  dup10\n    /* \"#utility.yul\":9099:9118   */\n  add\n    /* \"#utility.yul\":9093:9119   */\n  mload\n    /* \"#utility.yul\":9151:9199   */\n  tag_161\n    /* \"#utility.yul\":9193:9197   */\n  0x1f\n    /* \"#utility.yul\":9185:9191   */\n  dup10\n    /* \"#utility.yul\":9181:9198   */\n  and\n    /* \"#utility.yul\":9170:9179   */\n  dup3\n    /* \"#utility.yul\":9151:9199   */\n  tag_45\n  jump\t// in\ntag_161:\n    /* \"#utility.yul\":9143:9149   */\n  dup4\n    /* \"#utility.yul\":9136:9200   */\n  sstore\n    /* \"#utility.yul\":9058:9214   */\n  pop\n    /* \"#utility.yul\":9035:9214   */\ntag_160:\n    /* \"#utility.yul\":9260:9261   */\n  0x01\n    /* \"#utility.yul\":9256:9257   */\n  0x02\n    /* \"#utility.yul\":9248:9254   */\n  dup9\n    /* \"#utility.yul\":9244:9258   */\n  mul\n    /* \"#utility.yul\":9240:9262   */\n  add\n    /* \"#utility.yul\":9234:9238   */\n  dup9\n    /* \"#utility.yul\":9227:9263   */\n  sstore\n    /* \"#utility.yul\":8662:9273   */\n  pop\n  pop\n  pop\n    /* \"#utility.yul\":8625:9512   */\ntag_152:\n  pop\n    /* \"#utility.yul\":8215:9518   */\n  pop\n  pop\n  pop\n    /* \"#utility.yul\":8123:9518   */\n  pop\n  pop\n  jump\t// out\n    /* \"contracts/tokenWithBlacklist.sol\":1964:5056  contract BlackToken is Token {... */\ntag_9:\n  dataSize(sub_0)\n  dup1\n  dataOffset(sub_0)\n  0x00\n  codecopy\n  0x00\n  return\nstop\n\nsub_0: assembly {\n        /* \"contracts/tokenWithBlacklist.sol\":1964:5056  contract BlackToken is Token {... */\n      mstore(0x40, 0x80)\n      callvalue\n      dup1\n      iszero\n      tag_1\n      jumpi\n      0x00\n      dup1\n      revert\n    tag_1:\n      pop\n      jumpi(tag_2, lt(calldatasize, 0x04))\n      shr(0xe0, calldataload(0x00))\n      dup1\n      0x417c73a7\n      gt\n      tag_18\n      jumpi\n      dup1\n      0xa0712d68\n      gt\n      tag_19\n      jumpi\n      dup1\n      0xa0712d68\n      eq\n      tag_14\n      jumpi\n      dup1\n      0xa9059cbb\n      eq\n      tag_15\n      jumpi\n      dup1\n      0xdd62ed3e\n      eq\n      tag_16\n      jumpi\n      dup1\n      0xe47d6060\n      eq\n      tag_17\n      jumpi\n      jump(tag_2)\n    tag_19:\n      dup1\n      0x417c73a7\n      eq\n      tag_10\n      jumpi\n      dup1\n      0x5c658165\n      eq\n      tag_11\n      jumpi\n      dup1\n      0x70a08231\n      eq\n      tag_12\n      jumpi\n      dup1\n      0x95d89b41\n      eq\n      tag_13\n      jumpi\n      jump(tag_2)\n    tag_18:\n      dup1\n      0x23b872dd\n      gt\n      tag_20\n      jumpi\n      dup1\n      0x23b872dd\n      eq\n      tag_6\n      jumpi\n      dup1\n      0x27e235e3\n      eq\n      tag_7\n      jumpi\n      dup1\n      0x313ce567\n      eq\n      tag_8\n      jumpi\n      dup1\n      0x33ec73d3\n      eq\n      tag_9\n      jumpi\n      jump(tag_2)\n    tag_20:\n      dup1\n      0x06fdde03\n      eq\n      tag_3\n      jumpi\n      dup1\n      0x095ea7b3\n      eq\n      tag_4\n      jumpi\n      dup1\n      0x18160ddd\n      eq\n      tag_5\n      jumpi\n    tag_2:\n      0x00\n      dup1\n      revert\n        /* \"contracts/tokenWithBlacklist.sol\":2269:2287  string public name */\n    tag_3:\n      tag_21\n      tag_22\n      jump\t// in\n    tag_21:\n      mload(0x40)\n      tag_23\n      swap2\n      swap1\n      tag_24\n      jump\t// in\n    tag_23:\n      mload(0x40)\n      dup1\n      swap2\n      sub\n      swap1\n      return\n        /* \"contracts/tokenWithBlacklist.sol\":4410:4679  function approve(address _spender, uint256 _value) public override returns (bool success) {... */\n    tag_4:\n      tag_25\n      0x04\n      dup1\n      calldatasize\n      sub\n      dup2\n      add\n      swap1\n      tag_26\n      swap2\n      swap1\n      tag_27\n      jump\t// in\n    tag_26:\n      tag_28\n      jump\t// in\n    tag_25:\n      mload(0x40)\n      tag_29\n      swap2\n      swap1\n      tag_30\n      jump\t// in\n    tag_29:\n      mload(0x40)\n      dup1\n      swap2\n      sub\n      swap1\n      return\n        /* \"contracts/tokenWithBlacklist.sol\":2231:2257  uint256 public totalSupply */\n    tag_5:\n      tag_31\n      tag_32\n      jump\t// in\n    tag_31:\n      mload(0x40)\n      tag_33\n      swap2\n      swap1\n      tag_34\n      jump\t// in\n    tag_33:\n      mload(0x40)\n      dup1\n      swap2\n      sub\n      swap1\n      return\n        /* \"contracts/tokenWithBlacklist.sol\":3520:4270  function transferFrom(address _from, address _to, uint256 _value) public override returns (bool success) {... */\n    tag_6:\n      tag_35\n      0x04\n      dup1\n      calldatasize\n      sub\n      dup2\n      add\n      swap1\n      tag_36\n      swap2\n      swap1\n      tag_37\n      jump\t// in\n    tag_36:\n      tag_38\n      jump\t// in\n    tag_35:\n      mload(0x40)\n      tag_39\n      swap2\n      swap1\n      tag_30\n      jump\t// in\n    tag_39:\n      mload(0x40)\n      dup1\n      swap2\n      sub\n      swap1\n      return\n        /* \"contracts/tokenWithBlacklist.sol\":2109:2153  mapping (address => uint256) public balances */\n    tag_7:\n      tag_40\n      0x04\n      dup1\n      calldatasize\n      sub\n      dup2\n      add\n      swap1\n      tag_41\n      swap2\n      swap1\n      tag_42\n      jump\t// in\n    tag_41:\n      tag_43\n      jump\t// in\n    tag_40:\n      mload(0x40)\n      tag_44\n      swap2\n      swap1\n      tag_34\n      jump\t// in\n    tag_44:\n      mload(0x40)\n      dup1\n      swap2\n      sub\n      swap1\n      return\n        /* \"contracts/tokenWithBlacklist.sol\":2312:2333  uint8 public decimals */\n    tag_8:\n      tag_45\n      tag_46\n      jump\t// in\n    tag_45:\n      mload(0x40)\n      tag_47\n      swap2\n      swap1\n      tag_48\n      jump\t// in\n    tag_47:\n      mload(0x40)\n      dup1\n      swap2\n      sub\n      swap1\n      return\n        /* \"contracts/tokenWithBlacklist.sol\":4946:5045  function RemoveFromBlackList(address _user)external {... */\n    tag_9:\n      tag_49\n      0x04\n      dup1\n      calldatasize\n      sub\n      dup2\n      add\n      swap1\n      tag_50\n      swap2\n      swap1\n      tag_42\n      jump\t// in\n    tag_50:\n      tag_51\n      jump\t// in\n    tag_49:\n      stop\n        /* \"contracts/tokenWithBlacklist.sol\":4846:4940  function addToBlackList(address _user) external {... */\n    tag_10:\n      tag_52\n      0x04\n      dup1\n      calldatasize\n      sub\n      dup2\n      add\n      swap1\n      tag_53\n      swap2\n      swap1\n      tag_42\n      jump\t// in\n    tag_53:\n      tag_54\n      jump\t// in\n    tag_52:\n      stop\n        /* \"contracts/tokenWithBlacklist.sol\":2160:2224  mapping (address => mapping (address => uint256)) public allowed */\n    tag_11:\n      tag_55\n      0x04\n      dup1\n      calldatasize\n      sub\n      dup2\n      add\n      swap1\n      tag_56\n      swap2\n      swap1\n      tag_57\n      jump\t// in\n    tag_56:\n      tag_58\n      jump\t// in\n    tag_55:\n      mload(0x40)\n      tag_59\n      swap2\n      swap1\n      tag_34\n      jump\t// in\n    tag_59:\n      mload(0x40)\n      dup1\n      swap2\n      sub\n      swap1\n      return\n        /* \"contracts/tokenWithBlacklist.sol\":4278:4402  function balanceOf(address _owner) public override view returns (uint256 balance) {... */\n    tag_12:\n      tag_60\n      0x04\n      dup1\n      calldatasize\n      sub\n      dup2\n      add\n      swap1\n      tag_61\n      swap2\n      swap1\n      tag_42\n      jump\t// in\n    tag_61:\n      tag_62\n      jump\t// in\n    tag_60:\n      mload(0x40)\n      tag_63\n      swap2\n      swap1\n      tag_34\n      jump\t// in\n    tag_63:\n      mload(0x40)\n      dup1\n      swap2\n      sub\n      swap1\n      return\n        /* \"contracts/tokenWithBlacklist.sol\":2355:2375  string public symbol */\n    tag_13:\n      tag_64\n      tag_65\n      jump\t// in\n    tag_64:\n      mload(0x40)\n      tag_66\n      swap2\n      swap1\n      tag_24\n      jump\t// in\n    tag_66:\n      mload(0x40)\n      dup1\n      swap2\n      sub\n      swap1\n      return\n        /* \"contracts/tokenWithBlacklist.sol\":2824:2942  function mint(uint256 amount)public {... */\n    tag_14:\n      tag_67\n      0x04\n      dup1\n      calldatasize\n      sub\n      dup2\n      add\n      swap1\n      tag_68\n      swap2\n      swap1\n      tag_69\n      jump\t// in\n    tag_68:\n      tag_70\n      jump\t// in\n    tag_67:\n      stop\n        /* \"contracts/tokenWithBlacklist.sol\":2948:3512  function transfer(address _to, uint256 _value) public override returns (bool success) {... */\n    tag_15:\n      tag_71\n      0x04\n      dup1\n      calldatasize\n      sub\n      dup2\n      add\n      swap1\n      tag_72\n      swap2\n      swap1\n      tag_27\n      jump\t// in\n    tag_72:\n      tag_73\n      jump\t// in\n    tag_71:\n      mload(0x40)\n      tag_74\n      swap2\n      swap1\n      tag_30\n      jump\t// in\n    tag_74:\n      mload(0x40)\n      dup1\n      swap2\n      sub\n      swap1\n      return\n        /* \"contracts/tokenWithBlacklist.sol\":4687:4840  function allowance(address _owner, address _spender) public override view returns (uint256 remaining) {... */\n    tag_16:\n      tag_75\n      0x04\n      dup1\n      calldatasize\n      sub\n      dup2\n      add\n      swap1\n      tag_76\n      swap2\n      swap1\n      tag_57\n      jump\t// in\n    tag_76:\n      tag_77\n      jump\t// in\n    tag_75:\n      mload(0x40)\n      tag_78\n      swap2\n      swap1\n      tag_34\n      jump\t// in\n    tag_78:\n      mload(0x40)\n      dup1\n      swap2\n      sub\n      swap1\n      return\n        /* \"contracts/tokenWithBlacklist.sol\":2000:2046  mapping (address => bool) public isBlackListed */\n    tag_17:\n      tag_79\n      0x04\n      dup1\n      calldatasize\n      sub\n      dup2\n      add\n      swap1\n      tag_80\n      swap2\n      swap1\n      tag_42\n      jump\t// in\n    tag_80:\n      tag_81\n      jump\t// in\n    tag_79:\n      mload(0x40)\n      tag_82\n      swap2\n      swap1\n      tag_30\n      jump\t// in\n    tag_82:\n      mload(0x40)\n      dup1\n      swap2\n      sub\n      swap1\n      return\n        /* \"contracts/tokenWithBlacklist.sol\":2269:2287  string public name */\n    tag_22:\n      0x04\n      dup1\n      sload\n      tag_83\n      swap1\n      tag_84\n      jump\t// in\n    tag_83:\n      dup1\n      0x1f\n      add\n      0x20\n      dup1\n      swap2\n      div\n      mul\n      0x20\n      add\n      mload(0x40)\n      swap1\n      dup2\n      add\n      0x40\n      mstore\n      dup1\n      swap3\n      swap2\n      swap1\n      dup2\n      dup2\n      mstore\n      0x20\n      add\n      dup3\n      dup1\n      sload\n      tag_85\n      swap1\n      tag_84\n      jump\t// in\n    tag_85:\n      dup1\n      iszero\n      tag_86\n      jumpi\n      dup1\n      0x1f\n      lt\n      tag_87\n      jumpi\n      0x0100\n      dup1\n      dup4\n      sload\n      div\n      mul\n      dup4\n      mstore\n      swap2\n      0x20\n      add\n      swap2\n      jump(tag_86)\n    tag_87:\n      dup3\n      add\n      swap2\n      swap1\n      0x00\n      mstore\n      keccak256(0x00, 0x20)\n      swap1\n    tag_88:\n      dup2\n      sload\n      dup2\n      mstore\n      swap1\n      0x01\n      add\n      swap1\n      0x20\n      add\n      dup1\n      dup4\n      gt\n      tag_88\n      jumpi\n      dup3\n      swap1\n      sub\n      0x1f\n      and\n      dup3\n      add\n      swap2\n    tag_86:\n      pop\n      pop\n      pop\n      pop\n      pop\n      dup2\n      jump\t// out\n        /* \"contracts/tokenWithBlacklist.sol\":4410:4679  function approve(address _spender, uint256 _value) public override returns (bool success) {... */\n    tag_28:\n        /* \"contracts/tokenWithBlacklist.sol\":4486:4498  bool success */\n      0x00\n        /* \"contracts/tokenWithBlacklist.sol\":4543:4549  _value */\n      dup2\n        /* \"contracts/tokenWithBlacklist.sol\":4511:4518  allowed */\n      0x02\n        /* \"contracts/tokenWithBlacklist.sol\":4511:4530  allowed[msg.sender] */\n      0x00\n        /* \"contracts/tokenWithBlacklist.sol\":4519:4529  msg.sender */\n      caller\n        /* \"contracts/tokenWithBlacklist.sol\":4511:4530  allowed[msg.sender] */\n      0xffffffffffffffffffffffffffffffffffffffff\n      and\n      0xffffffffffffffffffffffffffffffffffffffff\n      and\n      dup2\n      mstore\n      0x20\n      add\n      swap1\n      dup2\n      mstore\n      0x20\n      add\n      0x00\n      keccak256\n        /* \"contracts/tokenWithBlacklist.sol\":4511:4540  allowed[msg.sender][_spender] */\n      0x00\n        /* \"contracts/tokenWithBlacklist.sol\":4531:4539  _spender */\n      dup6\n        /* \"contracts/tokenWithBlacklist.sol\":4511:4540  allowed[msg.sender][_spender] */\n      0xffffffffffffffffffffffffffffffffffffffff\n      and\n      0xffffffffffffffffffffffffffffffffffffffff\n      and\n      dup2\n      mstore\n      0x20\n      add\n      swap1\n      dup2\n      mstore\n      0x20\n      add\n      0x00\n      keccak256\n        /* \"contracts/tokenWithBlacklist.sol\":4511:4549  allowed[msg.sender][_spender] = _value */\n      dup2\n      swap1\n      sstore\n      pop\n        /* \"contracts/tokenWithBlacklist.sol\":4586:4594  _spender */\n      dup3\n        /* \"contracts/tokenWithBlacklist.sol\":4565:4603  Approval(msg.sender, _spender, _value) */\n      0xffffffffffffffffffffffffffffffffffffffff\n      and\n        /* \"contracts/tokenWithBlacklist.sol\":4574:4584  msg.sender */\n      caller\n        /* \"contracts/tokenWithBlacklist.sol\":4565:4603  Approval(msg.sender, _spender, _value) */\n      0xffffffffffffffffffffffffffffffffffffffff\n      and\n      0x8c5be1e5ebec7d5bd14f71427d1e84f3dd0314c0f7b2291e5b200ac8c7c3b925\n        /* \"contracts/tokenWithBlacklist.sol\":4596:4602  _value */\n      dup5\n        /* \"contracts/tokenWithBlacklist.sol\":4565:4603  Approval(msg.sender, _spender, _value) */\n      mload(0x40)\n      tag_90\n      swap2\n      swap1\n      tag_34\n      jump\t// in\n    tag_90:\n      mload(0x40)\n      dup1\n      swap2\n      sub\n      swap1\n      log3\n        /* \"contracts/tokenWithBlacklist.sol\":4667:4671  true */\n      0x01\n        /* \"contracts/tokenWithBlacklist.sol\":4660:4671  return true */\n      swap1\n      pop\n        /* \"contracts/tokenWithBlacklist.sol\":4410:4679  function approve(address _spender, uint256 _value) public override returns (bool success) {... */\n      swap3\n      swap2\n      pop\n      pop\n      jump\t// out\n        /* \"contracts/tokenWithBlacklist.sol\":2231:2257  uint256 public totalSupply */\n    tag_32:\n      sload(0x03)\n      dup2\n      jump\t// out\n        /* \"contracts/tokenWithBlacklist.sol\":3520:4270  function transferFrom(address _from, address _to, uint256 _value) public override returns (bool success) {... */\n    tag_38:\n        /* \"contracts/tokenWithBlacklist.sol\":3611:3623  bool success */\n      0x00\n        /* \"contracts/tokenWithBlacklist.sol\":3645:3658  isBlackListed */\n      dup1\n        /* \"contracts/tokenWithBlacklist.sol\":3645:3665  isBlackListed[_from] */\n      0x00\n        /* \"contracts/tokenWithBlacklist.sol\":3659:3664  _from */\n      dup6\n        /* \"contracts/tokenWithBlacklist.sol\":3645:3665  isBlackListed[_from] */\n      0xffffffffffffffffffffffffffffffffffffffff\n      and\n      0xffffffffffffffffffffffffffffffffffffffff\n      and\n      dup2\n      mstore\n      0x20\n      add\n      swap1\n      dup2\n      mstore\n      0x20\n      add\n      0x00\n      keccak256\n      0x00\n      swap1\n      sload\n      swap1\n      0x0100\n      exp\n      swap1\n      div\n      0xff\n      and\n        /* \"contracts/tokenWithBlacklist.sol\":3644:3665  !isBlackListed[_from] */\n      iszero\n        /* \"contracts/tokenWithBlacklist.sol\":3636:3707  require(!isBlackListed[_from],\"Cannot transfer to blacklisted address\") */\n      tag_92\n      jumpi\n      mload(0x40)\n      0x08c379a000000000000000000000000000000000000000000000000000000000\n      dup2\n      mstore\n      0x04\n      add\n      tag_93\n      swap1\n      tag_94\n      jump\t// in\n    tag_93:\n      mload(0x40)\n      dup1\n      swap2\n      sub\n      swap1\n      revert\n    tag_92:\n        /* \"contracts/tokenWithBlacklist.sol\":3727:3740  isBlackListed */\n      0x00\n        /* \"contracts/tokenWithBlacklist.sol\":3727:3745  isBlackListed[_to] */\n      dup1\n        /* \"contracts/tokenWithBlacklist.sol\":3741:3744  _to */\n      dup5\n        /* \"contracts/tokenWithBlacklist.sol\":3727:3745  isBlackListed[_to] */\n      0xffffffffffffffffffffffffffffffffffffffff\n      and\n      0xffffffffffffffffffffffffffffffffffffffff\n      and\n      dup2\n      mstore\n      0x20\n      add\n      swap1\n      dup2\n      mstore\n      0x20\n      add\n      0x00\n      keccak256\n      0x00\n      swap1\n      sload\n      swap1\n      0x0100\n      exp\n      swap1\n      div\n      0xff\n      and\n        /* \"contracts/tokenWithBlacklist.sol\":3726:3745  !isBlackListed[_to] */\n      iszero\n        /* \"contracts/tokenWithBlacklist.sol\":3718:3787  require(!isBlackListed[_to],\"Cannot transfer to blacklisted address\") */\n      tag_95\n      jumpi\n      mload(0x40)\n      0x08c379a000000000000000000000000000000000000000000000000000000000\n      dup2\n      mstore\n      0x04\n      add\n      tag_96\n      swap1\n      tag_94\n      jump\t// in\n    tag_96:\n      mload(0x40)\n      dup1\n      swap2\n      sub\n      swap1\n      revert\n    tag_95:\n        /* \"contracts/tokenWithBlacklist.sol\":3800:3818  uint256 _allowance */\n      0x00\n        /* \"contracts/tokenWithBlacklist.sol\":3821:3828  allowed */\n      0x02\n        /* \"contracts/tokenWithBlacklist.sol\":3821:3835  allowed[_from] */\n      0x00\n        /* \"contracts/tokenWithBlacklist.sol\":3829:3834  _from */\n      dup7\n        /* \"contracts/tokenWithBlacklist.sol\":3821:3835  allowed[_from] */\n      0xffffffffffffffffffffffffffffffffffffffff\n      and\n      0xffffffffffffffffffffffffffffffffffffffff\n      and\n      dup2\n      mstore\n      0x20\n      add\n      swap1\n      dup2\n      mstore\n      0x20\n      add\n      0x00\n      keccak256\n        /* \"contracts/tokenWithBlacklist.sol\":3821:3847  allowed[_from][msg.sender] */\n      0x00\n        /* \"contracts/tokenWithBlacklist.sol\":3836:3846  msg.sender */\n      caller\n        /* \"contracts/tokenWithBlacklist.sol\":3821:3847  allowed[_from][msg.sender] */\n      0xffffffffffffffffffffffffffffffffffffffff\n      and\n      0xffffffffffffffffffffffffffffffffffffffff\n      and\n      dup2\n      mstore\n      0x20\n      add\n      swap1\n      dup2\n      mstore\n      0x20\n      add\n      0x00\n      keccak256\n      sload\n        /* \"contracts/tokenWithBlacklist.sol\":3800:3847  uint256 _allowance = allowed[_from][msg.sender] */\n      swap1\n      pop\n        /* \"contracts/tokenWithBlacklist.sol\":3885:3891  _value */\n      dup3\n        /* \"contracts/tokenWithBlacklist.sol\":3866:3874  balances */\n      0x01\n        /* \"contracts/tokenWithBlacklist.sol\":3866:3881  balances[_from] */\n      0x00\n        /* \"contracts/tokenWithBlacklist.sol\":3875:3880  _from */\n      dup8\n        /* \"contracts/tokenWithBlacklist.sol\":3866:3881  balances[_from] */\n      0xffffffffffffffffffffffffffffffffffffffff\n      and\n      0xffffffffffffffffffffffffffffffffffffffff\n      and\n      dup2\n      mstore\n      0x20\n      add\n      swap1\n      dup2\n      mstore\n      0x20\n      add\n      0x00\n      keccak256\n      sload\n        /* \"contracts/tokenWithBlacklist.sol\":3866:3891  balances[_from] >= _value */\n      lt\n      iszero\n        /* \"contracts/tokenWithBlacklist.sol\":3866:3915  balances[_from] >= _value && _allowance >= _value */\n      dup1\n      iszero\n      tag_97\n      jumpi\n      pop\n        /* \"contracts/tokenWithBlacklist.sol\":3909:3915  _value */\n      dup3\n        /* \"contracts/tokenWithBlacklist.sol\":3895:3905  _allowance */\n      dup2\n        /* \"contracts/tokenWithBlacklist.sol\":3895:3915  _allowance >= _value */\n      lt\n      iszero\n        /* \"contracts/tokenWithBlacklist.sol\":3866:3915  balances[_from] >= _value && _allowance >= _value */\n    tag_97:\n        /* \"contracts/tokenWithBlacklist.sol\":3858:3977  require(balances[_from] >= _value && _allowance >= _value, \"token balance or allowance is lower than amount requested\") */\n      tag_98\n      jumpi\n      mload(0x40)\n      0x08c379a000000000000000000000000000000000000000000000000000000000\n      dup2\n      mstore\n      0x04\n      add\n      tag_99\n      swap1\n      tag_100\n      jump\t// in\n    tag_99:\n      mload(0x40)\n      dup1\n      swap2\n      sub\n      swap1\n      revert\n    tag_98:\n        /* \"contracts/tokenWithBlacklist.sol\":4005:4011  _value */\n      dup3\n        /* \"contracts/tokenWithBlacklist.sol\":3988:3996  balances */\n      0x01\n        /* \"contracts/tokenWithBlacklist.sol\":3988:4001  balances[_to] */\n      0x00\n        /* \"contracts/tokenWithBlacklist.sol\":3997:4000  _to */\n      dup7\n        /* \"contracts/tokenWithBlacklist.sol\":3988:4001  balances[_to] */\n      0xffffffffffffffffffffffffffffffffffffffff\n      and\n      0xffffffffffffffffffffffffffffffffffffffff\n      and\n      dup2\n      mstore\n      0x20\n      add\n      swap1\n      dup2\n      mstore\n      0x20\n      add\n      0x00\n      keccak256\n      0x00\n        /* \"contracts/tokenWithBlacklist.sol\":3988:4011  balances[_to] += _value */\n      dup3\n      dup3\n      sload\n      tag_101\n      swap2\n      swap1\n      tag_102\n      jump\t// in\n    tag_101:\n      swap3\n      pop\n      pop\n      dup2\n      swap1\n      sstore\n      pop\n        /* \"contracts/tokenWithBlacklist.sol\":4041:4047  _value */\n      dup3\n        /* \"contracts/tokenWithBlacklist.sol\":4022:4030  balances */\n      0x01\n        /* \"contracts/tokenWithBlacklist.sol\":4022:4037  balances[_from] */\n      0x00\n        /* \"contracts/tokenWithBlacklist.sol\":4031:4036  _from */\n      dup8\n        /* \"contracts/tokenWithBlacklist.sol\":4022:4037  balances[_from] */\n      0xffffffffffffffffffffffffffffffffffffffff\n      and\n      0xffffffffffffffffffffffffffffffffffffffff\n      and\n      dup2\n      mstore\n      0x20\n      add\n      swap1\n      dup2\n      mstore\n      0x20\n      add\n      0x00\n      keccak256\n      0x00\n        /* \"contracts/tokenWithBlacklist.sol\":4022:4047  balances[_from] -= _value */\n      dup3\n      dup3\n      sload\n      tag_103\n      swap2\n      swap1\n      tag_104\n      jump\t// in\n    tag_103:\n      swap3\n      pop\n      pop\n      dup2\n      swap1\n      sstore\n      pop\n        /* \"contracts/tokenWithBlacklist.sol\":2092:2102  2**256 - 1 */\n      0xffffffffffffffffffffffffffffffffffffffffffffffffffffffffffffffff\n        /* \"contracts/tokenWithBlacklist.sol\":4062:4072  _allowance */\n      dup2\n        /* \"contracts/tokenWithBlacklist.sol\":4062:4086  _allowance < MAX_UINT256 */\n      lt\n        /* \"contracts/tokenWithBlacklist.sol\":4058:4151  if (_allowance < MAX_UINT256) {... */\n      iszero\n      tag_105\n      jumpi\n        /* \"contracts/tokenWithBlacklist.sol\":4133:4139  _value */\n      dup3\n        /* \"contracts/tokenWithBlacklist.sol\":4103:4110  allowed */\n      0x02\n        /* \"contracts/tokenWithBlacklist.sol\":4103:4117  allowed[_from] */\n      0x00\n        /* \"contracts/tokenWithBlacklist.sol\":4111:4116  _from */\n      dup8\n        /* \"contracts/tokenWithBlacklist.sol\":4103:4117  allowed[_from] */\n      0xffffffffffffffffffffffffffffffffffffffff\n      and\n      0xffffffffffffffffffffffffffffffffffffffff\n      and\n      dup2\n      mstore\n      0x20\n      add\n      swap1\n      dup2\n      mstore\n      0x20\n      add\n      0x00\n      keccak256\n        /* \"contracts/tokenWithBlacklist.sol\":4103:4129  allowed[_from][msg.sender] */\n      0x00\n        /* \"contracts/tokenWithBlacklist.sol\":4118:4128  msg.sender */\n      caller\n        /* \"contracts/tokenWithBlacklist.sol\":4103:4129  allowed[_from][msg.sender] */\n      0xffffffffffffffffffffffffffffffffffffffff\n      and\n      0xffffffffffffffffffffffffffffffffffffffff\n      and\n      dup2\n      mstore\n      0x20\n      add\n      swap1\n      dup2\n      mstore\n      0x20\n      add\n      0x00\n      keccak256\n      0x00\n        /* \"contracts/tokenWithBlacklist.sol\":4103:4139  allowed[_from][msg.sender] -= _value */\n      dup3\n      dup3\n      sload\n      tag_106\n      swap2\n      swap1\n      tag_104\n      jump\t// in\n    tag_106:\n      swap3\n      pop\n      pop\n      dup2\n      swap1\n      sstore\n      pop\n        /* \"contracts/tokenWithBlacklist.sol\":4058:4151  if (_allowance < MAX_UINT256) {... */\n    tag_105:\n        /* \"contracts/tokenWithBlacklist.sol\":4182:4185  _to */\n      dup4\n        /* \"contracts/tokenWithBlacklist.sol\":4166:4194  Transfer(_from, _to, _value) */\n      0xffffffffffffffffffffffffffffffffffffffff\n      and\n        /* \"contracts/tokenWithBlacklist.sol\":4175:4180  _from */\n      dup6\n        /* \"contracts/tokenWithBlacklist.sol\":4166:4194  Transfer(_from, _to, _value) */\n      0xffffffffffffffffffffffffffffffffffffffff\n      and\n      0xddf252ad1be2c89b69c2b068fc378daa952ba7f163c4a11628f55a4df523b3ef\n        /* \"contracts/tokenWithBlacklist.sol\":4187:4193  _value */\n      dup6\n        /* \"contracts/tokenWithBlacklist.sol\":4166:4194  Transfer(_from, _to, _value) */\n      mload(0x40)\n      tag_107\n      swap2\n      swap1\n      tag_34\n      jump\t// in\n    tag_107:\n      mload(0x40)\n      dup1\n      swap2\n      sub\n      swap1\n      log3\n        /* \"contracts/tokenWithBlacklist.sol\":4258:4262  true */\n      0x01\n        /* \"contracts/tokenWithBlacklist.sol\":4251:4262  return true */\n      swap2\n      pop\n      pop\n        /* \"contracts/tokenWithBlacklist.sol\":3520:4270  function transferFrom(address _from, address _to, uint256 _value) public override returns (bool success) {... */\n      swap4\n      swap3\n      pop\n      pop\n      pop\n      jump\t// out\n        /* \"contracts/tokenWithBlacklist.sol\":2109:2153  mapping (address => uint256) public balances */\n    tag_43:\n      mstore(0x20, 0x01)\n      dup1\n      0x00\n      mstore\n      keccak256(0x00, 0x40)\n      0x00\n      swap2\n      pop\n      swap1\n      pop\n      sload\n      dup2\n      jump\t// out\n        /* \"contracts/tokenWithBlacklist.sol\":2312:2333  uint8 public decimals */\n    tag_46:\n      0x05\n      0x00\n      swap1\n      sload\n      swap1\n      0x0100\n      exp\n      swap1\n      div\n      0xff\n      and\n      dup2\n      jump\t// out\n        /* \"contracts/tokenWithBlacklist.sol\":4946:5045  function RemoveFromBlackList(address _user)external {... */\n    tag_51:\n        /* \"contracts/tokenWithBlacklist.sol\":5032:5037  false */\n      0x00\n        /* \"contracts/tokenWithBlacklist.sol\":5009:5022  isBlackListed */\n      dup1\n        /* \"contracts/tokenWithBlacklist.sol\":5009:5029  isBlackListed[_user] */\n      0x00\n        /* \"contracts/tokenWithBlacklist.sol\":5023:5028  _user */\n      dup4\n        /* \"contracts/tokenWithBlacklist.sol\":5009:5029  isBlackListed[_user] */\n      0xffffffffffffffffffffffffffffffffffffffff\n      and\n      0xffffffffffffffffffffffffffffffffffffffff\n      and\n      dup2\n      mstore\n      0x20\n      add\n      swap1\n      dup2\n      mstore\n      0x20\n      add\n      0x00\n      keccak256\n      0x00\n        /* \"contracts/tokenWithBlacklist.sol\":5009:5037  isBlackListed[_user] = false */\n      0x0100\n      exp\n      dup2\n      sload\n      dup2\n      0xff\n      mul\n      not\n      and\n      swap1\n      dup4\n      iszero\n      iszero\n      mul\n      or\n      swap1\n      sstore\n      pop\n        /* \"contracts/tokenWithBlacklist.sol\":4946:5045  function RemoveFromBlackList(address _user)external {... */\n      pop\n      jump\t// out\n        /* \"contracts/tokenWithBlacklist.sol\":4846:4940  function addToBlackList(address _user) external {... */\n    tag_54:\n        /* \"contracts/tokenWithBlacklist.sol\":4928:4932  true */\n      0x01\n        /* \"contracts/tokenWithBlacklist.sol\":4905:4918  isBlackListed */\n      0x00\n        /* \"contracts/tokenWithBlacklist.sol\":4905:4925  isBlackListed[_user] */\n      dup1\n        /* \"contracts/tokenWithBlacklist.sol\":4919:4924  _user */\n      dup4\n        /* \"contracts/tokenWithBlacklist.sol\":4905:4925  isBlackListed[_user] */\n      0xffffffffffffffffffffffffffffffffffffffff\n      and\n      0xffffffffffffffffffffffffffffffffffffffff\n      and\n      dup2\n      mstore\n      0x20\n      add\n      swap1\n      dup2\n      mstore\n      0x20\n      add\n      0x00\n      keccak256\n      0x00\n        /* \"contracts/tokenWithBlacklist.sol\":4905:4932  isBlackListed[_user] = true */\n      0x0100\n      exp\n      dup2\n      sload\n      dup2\n      0xff\n      mul\n      not\n      and\n      swap1\n      dup4\n      iszero\n      iszero\n      mul\n      or\n      swap1\n      sstore\n      pop\n        /* \"contracts/tokenWithBlacklist.sol\":4846:4940  function addToBlackList(address _user) external {... */\n      pop\n      jump\t// out\n        /* \"contracts/tokenWithBlacklist.sol\":2160:2224  mapping (address => mapping (address => uint256)) public allowed */\n    tag_58:\n      mstore(0x20, 0x02)\n      dup2\n      0x00\n      mstore\n      mstore(0x20, keccak256(0x00, 0x40))\n      dup1\n      0x00\n      mstore\n      keccak256(0x00, 0x40)\n      0x00\n      swap2\n      pop\n      swap2\n      pop\n      pop\n      sload\n      dup2\n      jump\t// out\n        /* \"contracts/tokenWithBlacklist.sol\":4278:4402  function balanceOf(address _owner) public override view returns (uint256 balance) {... */\n    tag_62:\n        /* \"contracts/tokenWithBlacklist.sol\":4343:4358  uint256 balance */\n      0x00\n        /* \"contracts/tokenWithBlacklist.sol\":4378:4386  balances */\n      0x01\n        /* \"contracts/tokenWithBlacklist.sol\":4378:4394  balances[_owner] */\n      0x00\n        /* \"contracts/tokenWithBlacklist.sol\":4387:4393  _owner */\n      dup4\n        /* \"contracts/tokenWithBlacklist.sol\":4378:4394  balances[_owner] */\n      0xffffffffffffffffffffffffffffffffffffffff\n      and\n      0xffffffffffffffffffffffffffffffffffffffff\n      and\n      dup2\n      mstore\n      0x20\n      add\n      swap1\n      dup2\n      mstore\n      0x20\n      add\n      0x00\n      keccak256\n      sload\n        /* \"contracts/tokenWithBlacklist.sol\":4371:4394  return balances[_owner] */\n      swap1\n      pop\n        /* \"contracts/tokenWithBlacklist.sol\":4278:4402  function balanceOf(address _owner) public override view returns (uint256 balance) {... */\n      swap2\n      swap1\n      pop\n      jump\t// out\n        /* \"contracts/tokenWithBlacklist.sol\":2355:2375  string public symbol */\n    tag_65:\n      0x06\n      dup1\n      sload\n      tag_111\n      swap1\n      tag_84\n      jump\t// in\n    tag_111:\n      dup1\n      0x1f\n      add\n      0x20\n      dup1\n      swap2\n      div\n      mul\n      0x20\n      add\n      mload(0x40)\n      swap1\n      dup2\n      add\n      0x40\n      mstore\n      dup1\n      swap3\n      swap2\n      swap1\n      dup2\n      dup2\n      mstore\n      0x20\n      add\n      dup3\n      dup1\n      sload\n      tag_112\n      swap1\n      tag_84\n      jump\t// in\n    tag_112:\n      dup1\n      iszero\n      tag_113\n      jumpi\n      dup1\n      0x1f\n      lt\n      tag_114\n      jumpi\n      0x0100\n      dup1\n      dup4\n      sload\n      div\n      mul\n      dup4\n      mstore\n      swap2\n      0x20\n      add\n      swap2\n      jump(tag_113)\n    tag_114:\n      dup3\n      add\n      swap2\n      swap1\n      0x00\n      mstore\n      keccak256(0x00, 0x20)\n      swap1\n    tag_115:\n      dup2\n      sload\n      dup2\n      mstore\n      swap1\n      0x01\n      add\n      swap1\n      0x20\n      add\n      dup1\n      dup4\n      gt\n      tag_115\n      jumpi\n      dup3\n      swap1\n      sub\n      0x1f\n      and\n      dup3\n      add\n      swap2\n    tag_113:\n      pop\n      pop\n      pop\n      pop\n      pop\n      dup2\n      jump\t// out\n        /* \"contracts/tokenWithBlacklist.sol\":2824:2942  function mint(uint256 amount)public {... */\n    tag_70:\n        /* \"contracts/tokenWithBlacklist.sol\":2895:2901  amount */\n      dup1\n        /* \"contracts/tokenWithBlacklist.sol\":2871:2879  balances */\n      0x01\n        /* \"contracts/tokenWithBlacklist.sol\":2871:2891  balances[msg.sender] */\n      0x00\n        /* \"contracts/tokenWithBlacklist.sol\":2880:2890  msg.sender */\n      caller\n        /* \"contracts/tokenWithBlacklist.sol\":2871:2891  balances[msg.sender] */\n      0xffffffffffffffffffffffffffffffffffffffff\n      and\n      0xffffffffffffffffffffffffffffffffffffffff\n      and\n      dup2\n      mstore\n      0x20\n      add\n      swap1\n      dup2\n      mstore\n      0x20\n      add\n      0x00\n      keccak256\n      0x00\n        /* \"contracts/tokenWithBlacklist.sol\":2871:2901  balances[msg.sender] += amount */\n      dup3\n      dup3\n      sload\n      tag_117\n      swap2\n      swap1\n      tag_102\n      jump\t// in\n    tag_117:\n      swap3\n      pop\n      pop\n      dup2\n      swap1\n      sstore\n      pop\n        /* \"contracts/tokenWithBlacklist.sol\":2927:2933  amount */\n      dup1\n        /* \"contracts/tokenWithBlacklist.sol\":2912:2923  totalSupply */\n      0x03\n      0x00\n        /* \"contracts/tokenWithBlacklist.sol\":2912:2933  totalSupply += amount */\n      dup3\n      dup3\n      sload\n      tag_118\n      swap2\n      swap1\n      tag_102\n      jump\t// in\n    tag_118:\n      swap3\n      pop\n      pop\n      dup2\n      swap1\n      sstore\n      pop\n        /* \"contracts/tokenWithBlacklist.sol\":2824:2942  function mint(uint256 amount)public {... */\n      pop\n      jump\t// out\n        /* \"contracts/tokenWithBlacklist.sol\":2948:3512  function transfer(address _to, uint256 _value) public override returns (bool success) {... */\n    tag_73:\n        /* \"contracts/tokenWithBlacklist.sol\":3020:3032  bool success */\n      0x00\n        /* \"contracts/tokenWithBlacklist.sol\":3077:3083  _value */\n      dup2\n        /* \"contracts/tokenWithBlacklist.sol\":3053:3061  balances */\n      0x01\n        /* \"contracts/tokenWithBlacklist.sol\":3053:3073  balances[msg.sender] */\n      0x00\n        /* \"contracts/tokenWithBlacklist.sol\":3062:3072  msg.sender */\n      caller\n        /* \"contracts/tokenWithBlacklist.sol\":3053:3073  balances[msg.sender] */\n      0xffffffffffffffffffffffffffffffffffffffff\n      and\n      0xffffffffffffffffffffffffffffffffffffffff\n      and\n      dup2\n      mstore\n      0x20\n      add\n      swap1\n      dup2\n      mstore\n      0x20\n      add\n      0x00\n      keccak256\n      sload\n        /* \"contracts/tokenWithBlacklist.sol\":3053:3083  balances[msg.sender] >= _value */\n      lt\n      iszero\n        /* \"contracts/tokenWithBlacklist.sol\":3045:3135  require(balances[msg.sender] >= _value, \"token balance is lower than the value requested\") */\n      tag_120\n      jumpi\n      mload(0x40)\n      0x08c379a000000000000000000000000000000000000000000000000000000000\n      dup2\n      mstore\n      0x04\n      add\n      tag_121\n      swap1\n      tag_122\n      jump\t// in\n    tag_121:\n      mload(0x40)\n      dup1\n      swap2\n      sub\n      swap1\n      revert\n    tag_120:\n        /* \"contracts/tokenWithBlacklist.sol\":3155:3168  isBlackListed */\n      0x00\n        /* \"contracts/tokenWithBlacklist.sol\":3155:3180  isBlackListed[msg.sender] */\n      dup1\n        /* \"contracts/tokenWithBlacklist.sol\":3169:3179  msg.sender */\n      caller\n        /* \"contracts/tokenWithBlacklist.sol\":3155:3180  isBlackListed[msg.sender] */\n      0xffffffffffffffffffffffffffffffffffffffff\n      and\n      0xffffffffffffffffffffffffffffffffffffffff\n      and\n      dup2\n      mstore\n      0x20\n      add\n      swap1\n      dup2\n      mstore\n      0x20\n      add\n      0x00\n      keccak256\n      0x00\n      swap1\n      sload\n      swap1\n      0x0100\n      exp\n      swap1\n      div\n      0xff\n      and\n        /* \"contracts/tokenWithBlacklist.sol\":3154:3180  !isBlackListed[msg.sender] */\n      iszero\n        /* \"contracts/tokenWithBlacklist.sol\":3146:3222  require(!isBlackListed[msg.sender],\"Cannot transfer to blacklisted address\") */\n      tag_123\n      jumpi\n      mload(0x40)\n      0x08c379a000000000000000000000000000000000000000000000000000000000\n      dup2\n      mstore\n      0x04\n      add\n      tag_124\n      swap1\n      tag_94\n      jump\t// in\n    tag_124:\n      mload(0x40)\n      dup1\n      swap2\n      sub\n      swap1\n      revert\n    tag_123:\n        /* \"contracts/tokenWithBlacklist.sol\":3242:3255  isBlackListed */\n      0x00\n        /* \"contracts/tokenWithBlacklist.sol\":3242:3260  isBlackListed[_to] */\n      dup1\n        /* \"contracts/tokenWithBlacklist.sol\":3256:3259  _to */\n      dup5\n        /* \"contracts/tokenWithBlacklist.sol\":3242:3260  isBlackListed[_to] */\n      0xffffffffffffffffffffffffffffffffffffffff\n      and\n      0xffffffffffffffffffffffffffffffffffffffff\n      and\n      dup2\n      mstore\n      0x20\n      add\n      swap1\n      dup2\n      mstore\n      0x20\n      add\n      0x00\n      keccak256\n      0x00\n      swap1\n      sload\n      swap1\n      0x0100\n      exp\n      swap1\n      div\n      0xff\n      and\n        /* \"contracts/tokenWithBlacklist.sol\":3241:3260  !isBlackListed[_to] */\n      iszero\n        /* \"contracts/tokenWithBlacklist.sol\":3233:3302  require(!isBlackListed[_to],\"Cannot transfer to blacklisted address\") */\n      tag_125\n      jumpi\n      mload(0x40)\n      0x08c379a000000000000000000000000000000000000000000000000000000000\n      dup2\n      mstore\n      0x04\n      add\n      tag_126\n      swap1\n      tag_94\n      jump\t// in\n    tag_126:\n      mload(0x40)\n      dup1\n      swap2\n      sub\n      swap1\n      revert\n    tag_125:\n        /* \"contracts/tokenWithBlacklist.sol\":3347:3353  _value */\n      dup2\n        /* \"contracts/tokenWithBlacklist.sol\":3323:3331  balances */\n      0x01\n        /* \"contracts/tokenWithBlacklist.sol\":3323:3343  balances[msg.sender] */\n      0x00\n        /* \"contracts/tokenWithBlacklist.sol\":3332:3342  msg.sender */\n      caller\n        /* \"contracts/tokenWithBlacklist.sol\":3323:3343  balances[msg.sender] */\n      0xffffffffffffffffffffffffffffffffffffffff\n      and\n      0xffffffffffffffffffffffffffffffffffffffff\n      and\n      dup2\n      mstore\n      0x20\n      add\n      swap1\n      dup2\n      mstore\n      0x20\n      add\n      0x00\n      keccak256\n      0x00\n        /* \"contracts/tokenWithBlacklist.sol\":3323:3353  balances[msg.sender] -= _value */\n      dup3\n      dup3\n      sload\n      tag_127\n      swap2\n      swap1\n      tag_104\n      jump\t// in\n    tag_127:\n      swap3\n      pop\n      pop\n      dup2\n      swap1\n      sstore\n      pop\n        /* \"contracts/tokenWithBlacklist.sol\":3381:3387  _value */\n      dup2\n        /* \"contracts/tokenWithBlacklist.sol\":3364:3372  balances */\n      0x01\n        /* \"contracts/tokenWithBlacklist.sol\":3364:3377  balances[_to] */\n      0x00\n        /* \"contracts/tokenWithBlacklist.sol\":3373:3376  _to */\n      dup6\n        /* \"contracts/tokenWithBlacklist.sol\":3364:3377  balances[_to] */\n      0xffffffffffffffffffffffffffffffffffffffff\n      and\n      0xffffffffffffffffffffffffffffffffffffffff\n      and\n      dup2\n      mstore\n      0x20\n      add\n      swap1\n      dup2\n      mstore\n      0x20\n      add\n      0x00\n      keccak256\n      0x00\n        /* \"contracts/tokenWithBlacklist.sol\":3364:3387  balances[_to] += _value */\n      dup3\n      dup3\n      sload\n      tag_128\n      swap2\n      swap1\n      tag_102\n      jump\t// in\n    tag_128:\n      swap3\n      pop\n      pop\n      dup2\n      swap1\n      sstore\n      pop\n        /* \"contracts/tokenWithBlacklist.sol\":3424:3427  _to */\n      dup3\n        /* \"contracts/tokenWithBlacklist.sol\":3403:3436  Transfer(msg.sender, _to, _value) */\n      0xffffffffffffffffffffffffffffffffffffffff\n      and\n        /* \"contracts/tokenWithBlacklist.sol\":3412:3422  msg.sender */\n      caller\n        /* \"contracts/tokenWithBlacklist.sol\":3403:3436  Transfer(msg.sender, _to, _value) */\n      0xffffffffffffffffffffffffffffffffffffffff\n      and\n      0xddf252ad1be2c89b69c2b068fc378daa952ba7f163c4a11628f55a4df523b3ef\n        /* \"contracts/tokenWithBlacklist.sol\":3429:3435  _value */\n      dup5\n        /* \"contracts/tokenWithBlacklist.sol\":3403:3436  Transfer(msg.sender, _to, _value) */\n      mload(0x40)\n      tag_129\n      swap2\n      swap1\n      tag_34\n      jump\t// in\n    tag_129:\n      mload(0x40)\n      dup1\n      swap2\n      sub\n      swap1\n      log3\n        /* \"contracts/tokenWithBlacklist.sol\":3500:3504  true */\n      0x01\n        /* \"contracts/tokenWithBlacklist.sol\":3493:3504  return true */\n      swap1\n      pop\n        /* \"contracts/tokenWithBlacklist.sol\":2948:3512  function transfer(address _to, uint256 _value) public override returns (bool success) {... */\n      swap3\n      swap2\n      pop\n      pop\n      jump\t// out\n        /* \"contracts/tokenWithBlacklist.sol\":4687:4840  function allowance(address _owner, address _spender) public override view returns (uint256 remaining) {... */\n    tag_77:\n        /* \"contracts/tokenWithBlacklist.sol\":4770:4787  uint256 remaining */\n      0x00\n        /* \"contracts/tokenWithBlacklist.sol\":4807:4814  allowed */\n      0x02\n        /* \"contracts/tokenWithBlacklist.sol\":4807:4822  allowed[_owner] */\n      0x00\n        /* \"contracts/tokenWithBlacklist.sol\":4815:4821  _owner */\n      dup5\n        /* \"contracts/tokenWithBlacklist.sol\":4807:4822  allowed[_owner] */\n      0xffffffffffffffffffffffffffffffffffffffff\n      and\n      0xffffffffffffffffffffffffffffffffffffffff\n      and\n      dup2\n      mstore\n      0x20\n      add\n      swap1\n      dup2\n      mstore\n      0x20\n      add\n      0x00\n      keccak256\n        /* \"contracts/tokenWithBlacklist.sol\":4807:4832  allowed[_owner][_spender] */\n      0x00\n        /* \"contracts/tokenWithBlacklist.sol\":4823:4831  _spender */\n      dup4\n        /* \"contracts/tokenWithBlacklist.sol\":4807:4832  allowed[_owner][_spender] */\n      0xffffffffffffffffffffffffffffffffffffffff\n      and\n      0xffffffffffffffffffffffffffffffffffffffff\n      and\n      dup2\n      mstore\n      0x20\n      add\n      swap1\n      dup2\n      mstore\n      0x20\n      add\n      0x00\n      keccak256\n      sload\n        /* \"contracts/tokenWithBlacklist.sol\":4800:4832  return allowed[_owner][_spender] */\n      swap1\n      pop\n        /* \"contracts/tokenWithBlacklist.sol\":4687:4840  function allowance(address _owner, address _spender) public override view returns (uint256 remaining) {... */\n      swap3\n      swap2\n      pop\n      pop\n      jump\t// out\n        /* \"contracts/tokenWithBlacklist.sol\":2000:2046  mapping (address => bool) public isBlackListed */\n    tag_81:\n      mstore(0x20, 0x00)\n      dup1\n      0x00\n      mstore\n      keccak256(0x00, 0x40)\n      0x00\n      swap2\n      pop\n      sload\n      swap1\n      0x0100\n      exp\n      swap1\n      div\n      0xff\n      and\n      dup2\n      jump\t// out\n        /* \"#utility.yul\":7:106   */\n    tag_131:\n        /* \"#utility.yul\":59:65   */\n      0x00\n        /* \"#utility.yul\":93:98   */\n      dup2\n        /* \"#utility.yul\":87:99   */\n      mload\n        /* \"#utility.yul\":77:99   */\n      swap1\n      pop\n        /* \"#utility.yul\":7:106   */\n      swap2\n      swap1\n      pop\n      jump\t// out\n        /* \"#utility.yul\":112:281   */\n    tag_132:\n        /* \"#utility.yul\":196:207   */\n      0x00\n        /* \"#utility.yul\":230:236   */\n      dup3\n        /* \"#utility.yul\":225:228   */\n      dup3\n        /* \"#utility.yul\":218:237   */\n      mstore\n        /* \"#utility.yul\":270:274   */\n      0x20\n        /* \"#utility.yul\":265:268   */\n      dup3\n        /* \"#utility.yul\":261:275   */\n      add\n        /* \"#utility.yul\":246:275   */\n      swap1\n      pop\n        /* \"#utility.yul\":112:281   */\n      swap3\n      swap2\n      pop\n      pop\n      jump\t// out\n        /* \"#utility.yul\":287:533   */\n    tag_133:\n        /* \"#utility.yul\":368:369   */\n      0x00\n        /* \"#utility.yul\":378:491   */\n    tag_163:\n        /* \"#utility.yul\":392:398   */\n      dup4\n        /* \"#utility.yul\":389:390   */\n      dup2\n        /* \"#utility.yul\":386:399   */\n      lt\n        /* \"#utility.yul\":378:491   */\n      iszero\n      tag_165\n      jumpi\n        /* \"#utility.yul\":477:478   */\n      dup1\n        /* \"#utility.yul\":472:475   */\n      dup3\n        /* \"#utility.yul\":468:479   */\n      add\n        /* \"#utility.yul\":462:480   */\n      mload\n        /* \"#utility.yul\":458:459   */\n      dup2\n        /* \"#utility.yul\":453:456   */\n      dup5\n        /* \"#utility.yul\":449:460   */\n      add\n        /* \"#utility.yul\":442:481   */\n      mstore\n        /* \"#utility.yul\":414:416   */\n      0x20\n        /* \"#utility.yul\":411:412   */\n      dup2\n        /* \"#utility.yul\":407:417   */\n      add\n        /* \"#utility.yul\":402:417   */\n      swap1\n      pop\n        /* \"#utility.yul\":378:491   */\n      jump(tag_163)\n    tag_165:\n        /* \"#utility.yul\":525:526   */\n      0x00\n        /* \"#utility.yul\":516:522   */\n      dup5\n        /* \"#utility.yul\":511:514   */\n      dup5\n        /* \"#utility.yul\":507:523   */\n      add\n        /* \"#utility.yul\":500:527   */\n      mstore\n        /* \"#utility.yul\":349:533   */\n      pop\n        /* \"#utility.yul\":287:533   */\n      pop\n      pop\n      pop\n      jump\t// out\n        /* \"#utility.yul\":539:641   */\n    tag_134:\n        /* \"#utility.yul\":580:586   */\n      0x00\n        /* \"#utility.yul\":631:633   */\n      0x1f\n        /* \"#utility.yul\":627:634   */\n      not\n        /* \"#utility.yul\":622:624   */\n      0x1f\n        /* \"#utility.yul\":615:620   */\n      dup4\n        /* \"#utility.yul\":611:625   */\n      add\n        /* \"#utility.yul\":607:635   */\n      and\n        /* \"#utility.yul\":597:635   */\n      swap1\n      pop\n        /* \"#utility.yul\":539:641   */\n      swap2\n      swap1\n      pop\n      jump\t// out\n        /* \"#utility.yul\":647:1024   */\n    tag_135:\n        /* \"#utility.yul\":735:738   */\n      0x00\n        /* \"#utility.yul\":763:802   */\n      tag_168\n        /* \"#utility.yul\":796:801   */\n      dup3\n        /* \"#utility.yul\":763:802   */\n      tag_131\n      jump\t// in\n    tag_168:\n        /* \"#utility.yul\":818:889   */\n      tag_169\n        /* \"#utility.yul\":882:888   */\n      dup2\n        /* \"#utility.yul\":877:880   */\n      dup6\n        /* \"#utility.yul\":818:889   */\n      tag_132\n      jump\t// in\n    tag_169:\n        /* \"#utility.yul\":811:889   */\n      swap4\n      pop\n        /* \"#utility.yul\":898:963   */\n      tag_170\n        /* \"#utility.yul\":956:962   */\n      dup2\n        /* \"#utility.yul\":951:954   */\n      dup6\n        /* \"#utility.yul\":944:948   */\n      0x20\n        /* \"#utility.yul\":937:942   */\n      dup7\n        /* \"#utility.yul\":933:949   */\n      add\n        /* \"#utility.yul\":898:963   */\n      tag_133\n      jump\t// in\n    tag_170:\n        /* \"#utility.yul\":988:1017   */\n      tag_171\n        /* \"#utility.yul\":1010:1016   */\n      dup2\n        /* \"#utility.yul\":988:1017   */\n      tag_134\n      jump\t// in\n    tag_171:\n        /* \"#utility.yul\":983:986   */\n      dup5\n        /* \"#utility.yul\":979:1018   */\n      add\n        /* \"#utility.yul\":972:1018   */\n      swap2\n      pop\n        /* \"#utility.yul\":739:1024   */\n      pop\n        /* \"#utility.yul\":647:1024   */\n      swap3\n      swap2\n      pop\n      pop\n      jump\t// out\n        /* \"#utility.yul\":1030:1343   */\n    tag_24:\n        /* \"#utility.yul\":1143:1147   */\n      0x00\n        /* \"#utility.yul\":1181:1183   */\n      0x20\n        /* \"#utility.yul\":1170:1179   */\n      dup3\n        /* \"#utility.yul\":1166:1184   */\n      add\n        /* \"#utility.yul\":1158:1184   */\n      swap1\n      pop\n        /* \"#utility.yul\":1230:1239   */\n      dup2\n        /* \"#utility.yul\":1224:1228   */\n      dup2\n        /* \"#utility.yul\":1220:1240   */\n      sub\n        /* \"#utility.yul\":1216:1217   */\n      0x00\n        /* \"#utility.yul\":1205:1214   */\n      dup4\n        /* \"#utility.yul\":1201:1218   */\n      add\n        /* \"#utility.yul\":1194:1241   */\n      mstore\n        /* \"#utility.yul\":1258:1336   */\n      tag_173\n        /* \"#utility.yul\":1331:1335   */\n      dup2\n        /* \"#utility.yul\":1322:1328   */\n      dup5\n        /* \"#utility.yul\":1258:1336   */\n      tag_135\n      jump\t// in\n    tag_173:\n        /* \"#utility.yul\":1250:1336   */\n      swap1\n      pop\n        /* \"#utility.yul\":1030:1343   */\n      swap3\n      swap2\n      pop\n      pop\n      jump\t// out\n        /* \"#utility.yul\":1430:1547   */\n    tag_137:\n        /* \"#utility.yul\":1539:1540   */\n      0x00\n        /* \"#utility.yul\":1536:1537   */\n      dup1\n        /* \"#utility.yul\":1529:1541   */\n      revert\n        /* \"#utility.yul\":1676:1802   */\n    tag_139:\n        /* \"#utility.yul\":1713:1720   */\n      0x00\n        /* \"#utility.yul\":1753:1795   */\n      0xffffffffffffffffffffffffffffffffffffffff\n        /* \"#utility.yul\":1746:1751   */\n      dup3\n        /* \"#utility.yul\":1742:1796   */\n      and\n        /* \"#utility.yul\":1731:1796   */\n      swap1\n      pop\n        /* \"#utility.yul\":1676:1802   */\n      swap2\n      swap1\n      pop\n      jump\t// out\n        /* \"#utility.yul\":1808:1904   */\n    tag_140:\n        /* \"#utility.yul\":1845:1852   */\n      0x00\n        /* \"#utility.yul\":1874:1898   */\n      tag_179\n        /* \"#utility.yul\":1892:1897   */\n      dup3\n        /* \"#utility.yul\":1874:1898   */\n      tag_139\n      jump\t// in\n    tag_179:\n        /* \"#utility.yul\":1863:1898   */\n      swap1\n      pop\n        /* \"#utility.yul\":1808:1904   */\n      swap2\n      swap1\n      pop\n      jump\t// out\n        /* \"#utility.yul\":1910:2032   */\n    tag_141:\n        /* \"#utility.yul\":1983:2007   */\n      tag_181\n        /* \"#utility.yul\":2001:2006   */\n      dup2\n        /* \"#utility.yul\":1983:2007   */\n      tag_140\n      jump\t// in\n    tag_181:\n        /* \"#utility.yul\":1976:1981   */\n      dup2\n        /* \"#utility.yul\":1973:2008   */\n      eq\n        /* \"#utility.yul\":1963:2026   */\n      tag_182\n      jumpi\n        /* \"#utility.yul\":2022:2023   */\n      0x00\n        /* \"#utility.yul\":2019:2020   */\n      dup1\n        /* \"#utility.yul\":2012:2024   */\n      revert\n        /* \"#utility.yul\":1963:2026   */\n    tag_182:\n        /* \"#utility.yul\":1910:2032   */\n      pop\n      jump\t// out\n        /* \"#utility.yul\":2038:2177   */\n    tag_142:\n        /* \"#utility.yul\":2084:2089   */\n      0x00\n        /* \"#utility.yul\":2122:2128   */\n      dup2\n        /* \"#utility.yul\":2109:2129   */\n      calldataload\n        /* \"#utility.yul\":2100:2129   */\n      swap1\n      pop\n        /* \"#utility.yul\":2138:2171   */\n      tag_184\n        /* \"#utility.yul\":2165:2170   */\n      dup2\n        /* \"#utility.yul\":2138:2171   */\n      tag_141\n      jump\t// in\n    tag_184:\n        /* \"#utility.yul\":2038:2177   */\n      swap3\n      swap2\n      pop\n      pop\n      jump\t// out\n        /* \"#utility.yul\":2183:2260   */\n    tag_143:\n        /* \"#utility.yul\":2220:2227   */\n      0x00\n        /* \"#utility.yul\":2249:2254   */\n      dup2\n        /* \"#utility.yul\":2238:2254   */\n      swap1\n      pop\n        /* \"#utility.yul\":2183:2260   */\n      swap2\n      swap1\n      pop\n      jump\t// out\n        /* \"#utility.yul\":2266:2388   */\n    tag_144:\n        /* \"#utility.yul\":2339:2363   */\n      tag_187\n        /* \"#utility.yul\":2357:2362   */\n      dup2\n        /* \"#utility.yul\":2339:2363   */\n      tag_143\n      jump\t// in\n    tag_187:\n        /* \"#utility.yul\":2332:2337   */\n      dup2\n        /* \"#utility.yul\":2329:2364   */\n      eq\n        /* \"#utility.yul\":2319:2382   */\n      tag_188\n      jumpi\n        /* \"#utility.yul\":2378:2379   */\n      0x00\n        /* \"#utility.yul\":2375:2376   */\n      dup1\n        /* \"#utility.yul\":2368:2380   */\n      revert\n        /* \"#utility.yul\":2319:2382   */\n    tag_188:\n        /* \"#utility.yul\":2266:2388   */\n      pop\n      jump\t// out\n        /* \"#utility.yul\":2394:2533   */\n    tag_145:\n        /* \"#utility.yul\":2440:2445   */\n      0x00\n        /* \"#utility.yul\":2478:2484   */\n      dup2\n        /* \"#utility.yul\":2465:2485   */\n      calldataload\n        /* \"#utility.yul\":2456:2485   */\n      swap1\n      pop\n        /* \"#utility.yul\":2494:2527   */\n      tag_190\n        /* \"#utility.yul\":2521:2526   */\n      dup2\n        /* \"#utility.yul\":2494:2527   */\n      tag_144\n      jump\t// in\n    tag_190:\n        /* \"#utility.yul\":2394:2533   */\n      swap3\n      swap2\n      pop\n      pop\n      jump\t// out\n        /* \"#utility.yul\":2539:3013   */\n    tag_27:\n        /* \"#utility.yul\":2607:2613   */\n      0x00\n        /* \"#utility.yul\":2615:2621   */\n      dup1\n        /* \"#utility.yul\":2664:2666   */\n      0x40\n        /* \"#utility.yul\":2652:2661   */\n      dup4\n        /* \"#utility.yul\":2643:2650   */\n      dup6\n        /* \"#utility.yul\":2639:2662   */\n      sub\n        /* \"#utility.yul\":2635:2667   */\n      slt\n        /* \"#utility.yul\":2632:2751   */\n      iszero\n      tag_192\n      jumpi\n        /* \"#utility.yul\":2670:2749   */\n      tag_193\n      tag_137\n      jump\t// in\n    tag_193:\n        /* \"#utility.yul\":2632:2751   */\n    tag_192:\n        /* \"#utility.yul\":2790:2791   */\n      0x00\n        /* \"#utility.yul\":2815:2868   */\n      tag_194\n        /* \"#utility.yul\":2860:2867   */\n      dup6\n        /* \"#utility.yul\":2851:2857   */\n      dup3\n        /* \"#utility.yul\":2840:2849   */\n      dup7\n        /* \"#utility.yul\":2836:2858   */\n      add\n        /* \"#utility.yul\":2815:2868   */\n      tag_142\n      jump\t// in\n    tag_194:\n        /* \"#utility.yul\":2805:2868   */\n      swap3\n      pop\n        /* \"#utility.yul\":2761:2878   */\n      pop\n        /* \"#utility.yul\":2917:2919   */\n      0x20\n        /* \"#utility.yul\":2943:2996   */\n      tag_195\n        /* \"#utility.yul\":2988:2995   */\n      dup6\n        /* \"#utility.yul\":2979:2985   */\n      dup3\n        /* \"#utility.yul\":2968:2977   */\n      dup7\n        /* \"#utility.yul\":2964:2986   */\n      add\n        /* \"#utility.yul\":2943:2996   */\n      tag_145\n      jump\t// in\n    tag_195:\n        /* \"#utility.yul\":2933:2996   */\n      swap2\n      pop\n        /* \"#utility.yul\":2888:3006   */\n      pop\n        /* \"#utility.yul\":2539:3013   */\n      swap3\n      pop\n      swap3\n      swap1\n      pop\n      jump\t// out\n        /* \"#utility.yul\":3019:3109   */\n    tag_146:\n        /* \"#utility.yul\":3053:3060   */\n      0x00\n        /* \"#utility.yul\":3096:3101   */\n      dup2\n        /* \"#utility.yul\":3089:3102   */\n      iszero\n        /* \"#utility.yul\":3082:3103   */\n      iszero\n        /* \"#utility.yul\":3071:3103   */\n      swap1\n      pop\n        /* \"#utility.yul\":3019:3109   */\n      swap2\n      swap1\n      pop\n      jump\t// out\n        /* \"#utility.yul\":3115:3224   */\n    tag_147:\n        /* \"#utility.yul\":3196:3217   */\n      tag_198\n        /* \"#utility.yul\":3211:3216   */\n      dup2\n        /* \"#utility.yul\":3196:3217   */\n      tag_146\n      jump\t// in\n    tag_198:\n        /* \"#utility.yul\":3191:3194   */\n      dup3\n        /* \"#utility.yul\":3184:3218   */\n      mstore\n        /* \"#utility.yul\":3115:3224   */\n      pop\n      pop\n      jump\t// out\n        /* \"#utility.yul\":3230:3440   */\n    tag_30:\n        /* \"#utility.yul\":3317:3321   */\n      0x00\n        /* \"#utility.yul\":3355:3357   */\n      0x20\n        /* \"#utility.yul\":3344:3353   */\n      dup3\n        /* \"#utility.yul\":3340:3358   */\n      add\n        /* \"#utility.yul\":3332:3358   */\n      swap1\n      pop\n        /* \"#utility.yul\":3368:3433   */\n      tag_200\n        /* \"#utility.yul\":3430:3431   */\n      0x00\n        /* \"#utility.yul\":3419:3428   */\n      dup4\n        /* \"#utility.yul\":3415:3432   */\n      add\n        /* \"#utility.yul\":3406:3412   */\n      dup5\n        /* \"#utility.yul\":3368:3433   */\n      tag_147\n      jump\t// in\n    tag_200:\n        /* \"#utility.yul\":3230:3440   */\n      swap3\n      swap2\n      pop\n      pop\n      jump\t// out\n        /* \"#utility.yul\":3446:3564   */\n    tag_148:\n        /* \"#utility.yul\":3533:3557   */\n      tag_202\n        /* \"#utility.yul\":3551:3556   */\n      dup2\n        /* \"#utility.yul\":3533:3557   */\n      tag_143\n      jump\t// in\n    tag_202:\n        /* \"#utility.yul\":3528:3531   */\n      dup3\n        /* \"#utility.yul\":3521:3558   */\n      mstore\n        /* \"#utility.yul\":3446:3564   */\n      pop\n      pop\n      jump\t// out\n        /* \"#utility.yul\":3570:3792   */\n    tag_34:\n        /* \"#utility.yul\":3663:3667   */\n      0x00\n        /* \"#utility.yul\":3701:3703   */\n      0x20\n        /* \"#utility.yul\":3690:3699   */\n      dup3\n        /* \"#utility.yul\":3686:3704   */\n      add\n        /* \"#utility.yul\":3678:3704   */\n      swap1\n      pop\n        /* \"#utility.yul\":3714:3785   */\n      tag_204\n        /* \"#utility.yul\":3782:3783   */\n      0x00\n        /* \"#utility.yul\":3771:3780   */\n      dup4\n        /* \"#utility.yul\":3767:3784   */\n      add\n        /* \"#utility.yul\":3758:3764   */\n      dup5\n        /* \"#utility.yul\":3714:3785   */\n      tag_148\n      jump\t// in\n    tag_204:\n        /* \"#utility.yul\":3570:3792   */\n      swap3\n      swap2\n      pop\n      pop\n      jump\t// out\n        /* \"#utility.yul\":3798:4417   */\n    tag_37:\n        /* \"#utility.yul\":3875:3881   */\n      0x00\n        /* \"#utility.yul\":3883:3889   */\n      dup1\n        /* \"#utility.yul\":3891:3897   */\n      0x00\n        /* \"#utility.yul\":3940:3942   */\n      0x60\n        /* \"#utility.yul\":3928:3937   */\n      dup5\n        /* \"#utility.yul\":3919:3926   */\n      dup7\n        /* \"#utility.yul\":3915:3938   */\n      sub\n        /* \"#utility.yul\":3911:3943   */\n      slt\n        /* \"#utility.yul\":3908:4027   */\n      iszero\n      tag_206\n      jumpi\n        /* \"#utility.yul\":3946:4025   */\n      tag_207\n      tag_137\n      jump\t// in\n    tag_207:\n        /* \"#utility.yul\":3908:4027   */\n    tag_206:\n        /* \"#utility.yul\":4066:4067   */\n      0x00\n        /* \"#utility.yul\":4091:4144   */\n      tag_208\n        /* \"#utility.yul\":4136:4143   */\n      dup7\n        /* \"#utility.yul\":4127:4133   */\n      dup3\n        /* \"#utility.yul\":4116:4125   */\n      dup8\n        /* \"#utility.yul\":4112:4134   */\n      add\n        /* \"#utility.yul\":4091:4144   */\n      tag_142\n      jump\t// in\n    tag_208:\n        /* \"#utility.yul\":4081:4144   */\n      swap4\n      pop\n        /* \"#utility.yul\":4037:4154   */\n      pop\n        /* \"#utility.yul\":4193:4195   */\n      0x20\n        /* \"#utility.yul\":4219:4272   */\n      tag_209\n        /* \"#utility.yul\":4264:4271   */\n      dup7\n        /* \"#utility.yul\":4255:4261   */\n      dup3\n        /* \"#utility.yul\":4244:4253   */\n      dup8\n        /* \"#utility.yul\":4240:4262   */\n      add\n        /* \"#utility.yul\":4219:4272   */\n      tag_142\n      jump\t// in\n    tag_209:\n        /* \"#utility.yul\":4209:4272   */\n      swap3\n      pop\n        /* \"#utility.yul\":4164:4282   */\n      pop\n        /* \"#utility.yul\":4321:4323   */\n      0x40\n        /* \"#utility.yul\":4347:4400   */\n      tag_210\n        /* \"#utility.yul\":4392:4399   */\n      dup7\n        /* \"#utility.yul\":4383:4389   */\n      dup3\n        /* \"#utility.yul\":4372:4381   */\n      dup8\n        /* \"#utility.yul\":4368:4390   */\n      add\n        /* \"#utility.yul\":4347:4400   */\n      tag_145\n      jump\t// in\n    tag_210:\n        /* \"#utility.yul\":4337:4400   */\n      swap2\n      pop\n        /* \"#utility.yul\":4292:4410   */\n      pop\n        /* \"#utility.yul\":3798:4417   */\n      swap3\n      pop\n      swap3\n      pop\n      swap3\n      jump\t// out\n        /* \"#utility.yul\":4423:4752   */\n    tag_42:\n        /* \"#utility.yul\":4482:4488   */\n      0x00\n        /* \"#utility.yul\":4531:4533   */\n      0x20\n        /* \"#utility.yul\":4519:4528   */\n      dup3\n        /* \"#utility.yul\":4510:4517   */\n      dup5\n        /* \"#utility.yul\":4506:4529   */\n      sub\n        /* \"#utility.yul\":4502:4534   */\n      slt\n        /* \"#utility.yul\":4499:4618   */\n      iszero\n      tag_212\n      jumpi\n        /* \"#utility.yul\":4537:4616   */\n      tag_213\n      tag_137\n      jump\t// in\n    tag_213:\n        /* \"#utility.yul\":4499:4618   */\n    tag_212:\n        /* \"#utility.yul\":4657:4658   */\n      0x00\n        /* \"#utility.yul\":4682:4735   */\n      tag_214\n        /* \"#utility.yul\":4727:4734   */\n      dup5\n        /* \"#utility.yul\":4718:4724   */\n      dup3\n        /* \"#utility.yul\":4707:4716   */\n      dup6\n        /* \"#utility.yul\":4703:4725   */\n      add\n        /* \"#utility.yul\":4682:4735   */\n      tag_142\n      jump\t// in\n    tag_214:\n        /* \"#utility.yul\":4672:4735   */\n      swap2\n      pop\n        /* \"#utility.yul\":4628:4745   */\n      pop\n        /* \"#utility.yul\":4423:4752   */\n      swap3\n      swap2\n      pop\n      pop\n      jump\t// out\n        /* \"#utility.yul\":4758:4844   */\n    tag_149:\n        /* \"#utility.yul\":4793:4800   */\n      0x00\n        /* \"#utility.yul\":4833:4837   */\n      0xff\n        /* \"#utility.yul\":4826:4831   */\n      dup3\n        /* \"#utility.yul\":4822:4838   */\n      and\n        /* \"#utility.yul\":4811:4838   */\n      swap1\n      pop\n        /* \"#utility.yul\":4758:4844   */\n      swap2\n      swap1\n      pop\n      jump\t// out\n        /* \"#utility.yul\":4850:4962   */\n    tag_150:\n        /* \"#utility.yul\":4933:4955   */\n      tag_217\n        /* \"#utility.yul\":4949:4954   */\n      dup2\n        /* \"#utility.yul\":4933:4955   */\n      tag_149\n      jump\t// in\n    tag_217:\n        /* \"#utility.yul\":4928:4931   */\n      dup3\n        /* \"#utility.yul\":4921:4956   */\n      mstore\n        /* \"#utility.yul\":4850:4962   */\n      pop\n      pop\n      jump\t// out\n        /* \"#utility.yul\":4968:5182   */\n    tag_48:\n        /* \"#utility.yul\":5057:5061   */\n      0x00\n        /* \"#utility.yul\":5095:5097   */\n      0x20\n        /* \"#utility.yul\":5084:5093   */\n      dup3\n        /* \"#utility.yul\":5080:5098   */\n      add\n        /* \"#utility.yul\":5072:5098   */\n      swap1\n      pop\n        /* \"#utility.yul\":5108:5175   */\n      tag_219\n        /* \"#utility.yul\":5172:5173   */\n      0x00\n        /* \"#utility.yul\":5161:5170   */\n      dup4\n        /* \"#utility.yul\":5157:5174   */\n      add\n        /* \"#utility.yul\":5148:5154   */\n      dup5\n        /* \"#utility.yul\":5108:5175   */\n      tag_150\n      jump\t// in\n    tag_219:\n        /* \"#utility.yul\":4968:5182   */\n      swap3\n      swap2\n      pop\n      pop\n      jump\t// out\n        /* \"#utility.yul\":5188:5662   */\n    tag_57:\n        /* \"#utility.yul\":5256:5262   */\n      0x00\n        /* \"#utility.yul\":5264:5270   */\n      dup1\n        /* \"#utility.yul\":5313:5315   */\n      0x40\n        /* \"#utility.yul\":5301:5310   */\n      dup4\n        /* \"#utility.yul\":5292:5299   */\n      dup6\n        /* \"#utility.yul\":5288:5311   */\n      sub\n        /* \"#utility.yul\":5284:5316   */\n      slt\n        /* \"#utility.yul\":5281:5400   */\n      iszero\n      tag_221\n      jumpi\n        /* \"#utility.yul\":5319:5398   */\n      tag_222\n      tag_137\n      jump\t// in\n    tag_222:\n        /* \"#utility.yul\":5281:5400   */\n    tag_221:\n        /* \"#utility.yul\":5439:5440   */\n      0x00\n        /* \"#utility.yul\":5464:5517   */\n      tag_223\n        /* \"#utility.yul\":5509:5516   */\n      dup6\n        /* \"#utility.yul\":5500:5506   */\n      dup3\n        /* \"#utility.yul\":5489:5498   */\n      dup7\n        /* \"#utility.yul\":5485:5507   */\n      add\n        /* \"#utility.yul\":5464:5517   */\n      tag_142\n      jump\t// in\n    tag_223:\n        /* \"#utility.yul\":5454:5517   */\n      swap3\n      pop\n        /* \"#utility.yul\":5410:5527   */\n      pop\n        /* \"#utility.yul\":5566:5568   */\n      0x20\n        /* \"#utility.yul\":5592:5645   */\n      tag_224\n        /* \"#utility.yul\":5637:5644   */\n      dup6\n        /* \"#utility.yul\":5628:5634   */\n      dup3\n        /* \"#utility.yul\":5617:5626   */\n      dup7\n        /* \"#utility.yul\":5613:5635   */\n      add\n        /* \"#utility.yul\":5592:5645   */\n      tag_142\n      jump\t// in\n    tag_224:\n        /* \"#utility.yul\":5582:5645   */\n      swap2\n      pop\n        /* \"#utility.yul\":5537:5655   */\n      pop\n        /* \"#utility.yul\":5188:5662   */\n      swap3\n      pop\n      swap3\n      swap1\n      pop\n      jump\t// out\n        /* \"#utility.yul\":5668:5997   */\n    tag_69:\n        /* \"#utility.yul\":5727:5733   */\n      0x00\n        /* \"#utility.yul\":5776:5778   */\n      0x20\n        /* \"#utility.yul\":5764:5773   */\n      dup3\n        /* \"#utility.yul\":5755:5762   */\n      dup5\n        /* \"#utility.yul\":5751:5774   */\n      sub\n        /* \"#utility.yul\":5747:5779   */\n      slt\n        /* \"#utility.yul\":5744:5863   */\n      iszero\n      tag_226\n      jumpi\n        /* \"#utility.yul\":5782:5861   */\n      tag_227\n      tag_137\n      jump\t// in\n    tag_227:\n        /* \"#utility.yul\":5744:5863   */\n    tag_226:\n        /* \"#utility.yul\":5902:5903   */\n      0x00\n        /* \"#utility.yul\":5927:5980   */\n      tag_228\n        /* \"#utility.yul\":5972:5979   */\n      dup5\n        /* \"#utility.yul\":5963:5969   */\n      dup3\n        /* \"#utility.yul\":5952:5961   */\n      dup6\n        /* \"#utility.yul\":5948:5970   */\n      add\n        /* \"#utility.yul\":5927:5980   */\n      tag_145\n      jump\t// in\n    tag_228:\n        /* \"#utility.yul\":5917:5980   */\n      swap2\n      pop\n        /* \"#utility.yul\":5873:5990   */\n      pop\n        /* \"#utility.yul\":5668:5997   */\n      swap3\n      swap2\n      pop\n      pop\n      jump\t// out\n        /* \"#utility.yul\":6003:6183   */\n    tag_151:\n        /* \"#utility.yul\":6051:6128   */\n      0x4e487b7100000000000000000000000000000000000000000000000000000000\n        /* \"#utility.yul\":6048:6049   */\n      0x00\n        /* \"#utility.yul\":6041:6129   */\n      mstore\n        /* \"#utility.yul\":6148:6152   */\n      0x22\n        /* \"#utility.yul\":6145:6146   */\n      0x04\n        /* \"#utility.yul\":6138:6153   */\n      mstore\n        /* \"#utility.yul\":6172:6176   */\n      0x24\n        /* \"#utility.yul\":6169:6170   */\n      0x00\n        /* \"#utility.yul\":6162:6177   */\n      revert\n        /* \"#utility.yul\":6189:6509   */\n    tag_84:\n        /* \"#utility.yul\":6233:6239   */\n      0x00\n        /* \"#utility.yul\":6270:6271   */\n      0x02\n        /* \"#utility.yul\":6264:6268   */\n      dup3\n        /* \"#utility.yul\":6260:6272   */\n      div\n        /* \"#utility.yul\":6250:6272   */\n      swap1\n      pop\n        /* \"#utility.yul\":6317:6318   */\n      0x01\n        /* \"#utility.yul\":6311:6315   */\n      dup3\n        /* \"#utility.yul\":6307:6319   */\n      and\n        /* \"#utility.yul\":6338:6356   */\n      dup1\n        /* \"#utility.yul\":6328:6409   */\n      tag_231\n      jumpi\n        /* \"#utility.yul\":6394:6398   */\n      0x7f\n        /* \"#utility.yul\":6386:6392   */\n      dup3\n        /* \"#utility.yul\":6382:6399   */\n      and\n        /* \"#utility.yul\":6372:6399   */\n      swap2\n      pop\n        /* \"#utility.yul\":6328:6409   */\n    tag_231:\n        /* \"#utility.yul\":6456:6458   */\n      0x20\n        /* \"#utility.yul\":6448:6454   */\n      dup3\n        /* \"#utility.yul\":6445:6459   */\n      lt\n        /* \"#utility.yul\":6425:6443   */\n      dup2\n        /* \"#utility.yul\":6422:6460   */\n      sub\n        /* \"#utility.yul\":6419:6503   */\n      tag_232\n      jumpi\n        /* \"#utility.yul\":6475:6493   */\n      tag_233\n      tag_151\n      jump\t// in\n    tag_233:\n        /* \"#utility.yul\":6419:6503   */\n    tag_232:\n        /* \"#utility.yul\":6240:6509   */\n      pop\n        /* \"#utility.yul\":6189:6509   */\n      swap2\n      swap1\n      pop\n      jump\t// out\n        /* \"#utility.yul\":6515:6740   */\n    tag_152:\n        /* \"#utility.yul\":6655:6689   */\n      0x43616e6e6f74207472616e7366657220746f20626c61636b6c69737465642061\n        /* \"#utility.yul\":6651:6652   */\n      0x00\n        /* \"#utility.yul\":6643:6649   */\n      dup3\n        /* \"#utility.yul\":6639:6653   */\n      add\n        /* \"#utility.yul\":6632:6690   */\n      mstore\n        /* \"#utility.yul\":6724:6732   */\n      0x6464726573730000000000000000000000000000000000000000000000000000\n        /* \"#utility.yul\":6719:6721   */\n      0x20\n        /* \"#utility.yul\":6711:6717   */\n      dup3\n        /* \"#utility.yul\":6707:6722   */\n      add\n        /* \"#utility.yul\":6700:6733   */\n      mstore\n        /* \"#utility.yul\":6515:6740   */\n      pop\n      jump\t// out\n        /* \"#utility.yul\":6746:7112   */\n    tag_153:\n        /* \"#utility.yul\":6888:6891   */\n      0x00\n        /* \"#utility.yul\":6909:6976   */\n      tag_236\n        /* \"#utility.yul\":6973:6975   */\n      0x26\n        /* \"#utility.yul\":6968:6971   */\n      dup4\n        /* \"#utility.yul\":6909:6976   */\n      tag_132\n      jump\t// in\n    tag_236:\n        /* \"#utility.yul\":6902:6976   */\n      swap2\n      pop\n        /* \"#utility.yul\":6985:7078   */\n      tag_237\n        /* \"#utility.yul\":7074:7077   */\n      dup3\n        /* \"#utility.yul\":6985:7078   */\n      tag_152\n      jump\t// in\n    tag_237:\n        /* \"#utility.yul\":7103:7105   */\n      0x40\n        /* \"#utility.yul\":7098:7101   */\n      dup3\n        /* \"#utility.yul\":7094:7106   */\n      add\n        /* \"#utility.yul\":7087:7106   */\n      swap1\n      pop\n        /* \"#utility.yul\":6746:7112   */\n      swap2\n      swap1\n      pop\n      jump\t// out\n        /* \"#utility.yul\":7118:7537   */\n    tag_94:\n        /* \"#utility.yul\":7284:7288   */\n      0x00\n        /* \"#utility.yul\":7322:7324   */\n      0x20\n        /* \"#utility.yul\":7311:7320   */\n      dup3\n        /* \"#utility.yul\":7307:7325   */\n      add\n        /* \"#utility.yul\":7299:7325   */\n      swap1\n      pop\n        /* \"#utility.yul\":7371:7380   */\n      dup2\n        /* \"#utility.yul\":7365:7369   */\n      dup2\n        /* \"#utility.yul\":7361:7381   */\n      sub\n        /* \"#utility.yul\":7357:7358   */\n      0x00\n        /* \"#utility.yul\":7346:7355   */\n      dup4\n        /* \"#utility.yul\":7342:7359   */\n      add\n        /* \"#utility.yul\":7335:7382   */\n      mstore\n        /* \"#utility.yul\":7399:7530   */\n      tag_239\n        /* \"#utility.yul\":7525:7529   */\n      dup2\n        /* \"#utility.yul\":7399:7530   */\n      tag_153\n      jump\t// in\n    tag_239:\n        /* \"#utility.yul\":7391:7530   */\n      swap1\n      pop\n        /* \"#utility.yul\":7118:7537   */\n      swap2\n      swap1\n      pop\n      jump\t// out\n        /* \"#utility.yul\":7543:7787   */\n    tag_154:\n        /* \"#utility.yul\":7683:7717   */\n      0x746f6b656e2062616c616e6365206f7220616c6c6f77616e6365206973206c6f\n        /* \"#utility.yul\":7679:7680   */\n      0x00\n        /* \"#utility.yul\":7671:7677   */\n      dup3\n        /* \"#utility.yul\":7667:7681   */\n      add\n        /* \"#utility.yul\":7660:7718   */\n      mstore\n        /* \"#utility.yul\":7752:7779   */\n      0x776572207468616e20616d6f756e742072657175657374656400000000000000\n        /* \"#utility.yul\":7747:7749   */\n      0x20\n        /* \"#utility.yul\":7739:7745   */\n      dup3\n        /* \"#utility.yul\":7735:7750   */\n      add\n        /* \"#utility.yul\":7728:7780   */\n      mstore\n        /* \"#utility.yul\":7543:7787   */\n      pop\n      jump\t// out\n        /* \"#utility.yul\":7793:8159   */\n    tag_155:\n        /* \"#utility.yul\":7935:7938   */\n      0x00\n        /* \"#utility.yul\":7956:8023   */\n      tag_242\n        /* \"#utility.yul\":8020:8022   */\n      0x39\n        /* \"#utility.yul\":8015:8018   */\n      dup4\n        /* \"#utility.yul\":7956:8023   */\n      tag_132\n      jump\t// in\n    tag_242:\n        /* \"#utility.yul\":7949:8023   */\n      swap2\n      pop\n        /* \"#utility.yul\":8032:8125   */\n      tag_243\n        /* \"#utility.yul\":8121:8124   */\n      dup3\n        /* \"#utility.yul\":8032:8125   */\n      tag_154\n      jump\t// in\n    tag_243:\n        /* \"#utility.yul\":8150:8152   */\n      0x40\n        /* \"#utility.yul\":8145:8148   */\n      dup3\n        /* \"#utility.yul\":8141:8153   */\n      add\n        /* \"#utility.yul\":8134:8153   */\n      swap1\n      pop\n        /* \"#utility.yul\":7793:8159   */\n      swap2\n      swap1\n      pop\n      jump\t// out\n        /* \"#utility.yul\":8165:8584   */\n    tag_100:\n        /* \"#utility.yul\":8331:8335   */\n      0x00\n        /* \"#utility.yul\":8369:8371   */\n      0x20\n        /* \"#utility.yul\":8358:8367   */\n      dup3\n        /* \"#utility.yul\":8354:8372   */\n      add\n        /* \"#utility.yul\":8346:8372   */\n      swap1\n      pop\n        /* \"#utility.yul\":8418:8427   */\n      dup2\n        /* \"#utility.yul\":8412:8416   */\n      dup2\n        /* \"#utility.yul\":8408:8428   */\n      sub\n        /* \"#utility.yul\":8404:8405   */\n      0x00\n        /* \"#utility.yul\":8393:8402   */\n      dup4\n        /* \"#utility.yul\":8389:8406   */\n      add\n        /* \"#utility.yul\":8382:8429   */\n      mstore\n        /* \"#utility.yul\":8446:8577   */\n      tag_245\n        /* \"#utility.yul\":8572:8576   */\n      dup2\n        /* \"#utility.yul\":8446:8577   */\n      tag_155\n      jump\t// in\n    tag_245:\n        /* \"#utility.yul\":8438:8577   */\n      swap1\n      pop\n        /* \"#utility.yul\":8165:8584   */\n      swap2\n      swap1\n      pop\n      jump\t// out\n        /* \"#utility.yul\":8590:8770   */\n    tag_156:\n        /* \"#utility.yul\":8638:8715   */\n      0x4e487b7100000000000000000000000000000000000000000000000000000000\n        /* \"#utility.yul\":8635:8636   */\n      0x00\n        /* \"#utility.yul\":8628:8716   */\n      mstore\n        /* \"#utility.yul\":8735:8739   */\n      0x11\n        /* \"#utility.yul\":8732:8733   */\n      0x04\n        /* \"#utility.yul\":8725:8740   */\n      mstore\n        /* \"#utility.yul\":8759:8763   */\n      0x24\n        /* \"#utility.yul\":8756:8757   */\n      0x00\n        /* \"#utility.yul\":8749:8764   */\n      revert\n        /* \"#utility.yul\":8776:8967   */\n    tag_102:\n        /* \"#utility.yul\":8816:8819   */\n      0x00\n        /* \"#utility.yul\":8835:8855   */\n      tag_248\n        /* \"#utility.yul\":8853:8854   */\n      dup3\n        /* \"#utility.yul\":8835:8855   */\n      tag_143\n      jump\t// in\n    tag_248:\n        /* \"#utility.yul\":8830:8855   */\n      swap2\n      pop\n        /* \"#utility.yul\":8869:8889   */\n      tag_249\n        /* \"#utility.yul\":8887:8888   */\n      dup4\n        /* \"#utility.yul\":8869:8889   */\n      tag_143\n      jump\t// in\n    tag_249:\n        /* \"#utility.yul\":8864:8889   */\n      swap3\n      pop\n        /* \"#utility.yul\":8912:8913   */\n      dup3\n        /* \"#utility.yul\":8909:8910   */\n      dup3\n        /* \"#utility.yul\":8905:8914   */\n      add\n        /* \"#utility.yul\":8898:8914   */\n      swap1\n      pop\n        /* \"#utility.yul\":8933:8936   */\n      dup1\n        /* \"#utility.yul\":8930:8931   */\n      dup3\n        /* \"#utility.yul\":8927:8937   */\n      gt\n        /* \"#utility.yul\":8924:8960   */\n      iszero\n      tag_250\n      jumpi\n        /* \"#utility.yul\":8940:8958   */\n      tag_251\n      tag_156\n      jump\t// in\n    tag_251:\n        /* \"#utility.yul\":8924:8960   */\n    tag_250:\n        /* \"#utility.yul\":8776:8967   */\n      swap3\n      swap2\n      pop\n      pop\n      jump\t// out\n        /* \"#utility.yul\":8973:9167   */\n    tag_104:\n        /* \"#utility.yul\":9013:9017   */\n      0x00\n        /* \"#utility.yul\":9033:9053   */\n      tag_253\n        /* \"#utility.yul\":9051:9052   */\n      dup3\n        /* \"#utility.yul\":9033:9053   */\n      tag_143\n      jump\t// in\n    tag_253:\n        /* \"#utility.yul\":9028:9053   */\n      swap2\n      pop\n        /* \"#utility.yul\":9067:9087   */\n      tag_254\n        /* \"#utility.yul\":9085:9086   */\n      dup4\n        /* \"#utility.yul\":9067:9087   */\n      tag_143\n      jump\t// in\n    tag_254:\n        /* \"#utility.yul\":9062:9087   */\n      swap3\n      pop\n        /* \"#utility.yul\":9111:9112   */\n      dup3\n        /* \"#utility.yul\":9108:9109   */\n      dup3\n        /* \"#utility.yul\":9104:9113   */\n      sub\n        /* \"#utility.yul\":9096:9113   */\n      swap1\n      pop\n        /* \"#utility.yul\":9135:9136   */\n      dup2\n        /* \"#utility.yul\":9129:9133   */\n      dup2\n        /* \"#utility.yul\":9126:9137   */\n      gt\n        /* \"#utility.yul\":9123:9160   */\n      iszero\n      tag_255\n      jumpi\n        /* \"#utility.yul\":9140:9158   */\n      tag_256\n      tag_156\n      jump\t// in\n    tag_256:\n        /* \"#utility.yul\":9123:9160   */\n    tag_255:\n        /* \"#utility.yul\":8973:9167   */\n      swap3\n      swap2\n      pop\n      pop\n      jump\t// out\n        /* \"#utility.yul\":9173:9407   */\n    tag_157:\n        /* \"#utility.yul\":9313:9347   */\n      0x746f6b656e2062616c616e6365206973206c6f776572207468616e2074686520\n        /* \"#utility.yul\":9309:9310   */\n      0x00\n        /* \"#utility.yul\":9301:9307   */\n      dup3\n        /* \"#utility.yul\":9297:9311   */\n      add\n        /* \"#utility.yul\":9290:9348   */\n      mstore\n        /* \"#utility.yul\":9382:9399   */\n      0x76616c7565207265717565737465640000000000000000000000000000000000\n        /* \"#utility.yul\":9377:9379   */\n      0x20\n        /* \"#utility.yul\":9369:9375   */\n      dup3\n        /* \"#utility.yul\":9365:9380   */\n      add\n        /* \"#utility.yul\":9358:9400   */\n      mstore\n        /* \"#utility.yul\":9173:9407   */\n      pop\n      jump\t// out\n        /* \"#utility.yul\":9413:9779   */\n    tag_158:\n        /* \"#utility.yul\":9555:9558   */\n      0x00\n        /* \"#utility.yul\":9576:9643   */\n      tag_259\n        /* \"#utility.yul\":9640:9642   */\n      0x2f\n        /* \"#utility.yul\":9635:9638   */\n      dup4\n        /* \"#utility.yul\":9576:9643   */\n      tag_132\n      jump\t// in\n    tag_259:\n        /* \"#utility.yul\":9569:9643   */\n      swap2\n      pop\n        /* \"#utility.yul\":9652:9745   */\n      tag_260\n        /* \"#utility.yul\":9741:9744   */\n      dup3\n        /* \"#utility.yul\":9652:9745   */\n      tag_157\n      jump\t// in\n    tag_260:\n        /* \"#utility.yul\":9770:9772   */\n      0x40\n        /* \"#utility.yul\":9765:9768   */\n      dup3\n        /* \"#utility.yul\":9761:9773   */\n      add\n        /* \"#utility.yul\":9754:9773   */\n      swap1\n      pop\n        /* \"#utility.yul\":9413:9779   */\n      swap2\n      swap1\n      pop\n      jump\t// out\n        /* \"#utility.yul\":9785:10204   */\n    tag_122:\n        /* \"#utility.yul\":9951:9955   */\n      0x00\n        /* \"#utility.yul\":9989:9991   */\n      0x20\n        /* \"#utility.yul\":9978:9987   */\n      dup3\n        /* \"#utility.yul\":9974:9992   */\n      add\n        /* \"#utility.yul\":9966:9992   */\n      swap1\n      pop\n        /* \"#utility.yul\":10038:10047   */\n      dup2\n        /* \"#utility.yul\":10032:10036   */\n      dup2\n        /* \"#utility.yul\":10028:10048   */\n      sub\n        /* \"#utility.yul\":10024:10025   */\n      0x00\n        /* \"#utility.yul\":10013:10022   */\n      dup4\n        /* \"#utility.yul\":10009:10026   */\n      add\n        /* \"#utility.yul\":10002:10049   */\n      mstore\n        /* \"#utility.yul\":10066:10197   */\n      tag_262\n        /* \"#utility.yul\":10192:10196   */\n      dup2\n        /* \"#utility.yul\":10066:10197   */\n      tag_158\n      jump\t// in\n    tag_262:\n        /* \"#utility.yul\":10058:10197   */\n      swap1\n      pop\n        /* \"#utility.yul\":9785:10204   */\n      swap2\n      swap1\n      pop\n      jump\t// out\n\n    auxdata: 0xa2646970667358221220f610b0cfa75391319629946db3f29e46adc478a31367ae91d8d097676880283864736f6c63430008120033\n}\n",
				"bytecode": {
					"linkReferences": {},
					"object": "60806040523480156200001157600080fd5b5060405162001b2a38038062001b2a8339818101604052810190620000379190620002d7565b83600160003373ffffffffffffffffffffffffffffffffffffffff1673ffffffffffffffffffffffffffffffffffffffff16815260200190815260200160002081905550836003819055508260049081620000939190620005c8565b5081600560006101000a81548160ff021916908360ff1602179055508060069081620000c09190620005c8565b5050505050620006af565b6000604051905090565b600080fd5b600080fd5b6000819050919050565b620000f481620000df565b81146200010057600080fd5b50565b6000815190506200011481620000e9565b92915050565b600080fd5b600080fd5b6000601f19601f8301169050919050565b7f4e487b7100000000000000000000000000000000000000000000000000000000600052604160045260246000fd5b6200016f8262000124565b810181811067ffffffffffffffff8211171562000191576200019062000135565b5b80604052505050565b6000620001a6620000cb565b9050620001b4828262000164565b919050565b600067ffffffffffffffff821115620001d757620001d662000135565b5b620001e28262000124565b9050602081019050919050565b60005b838110156200020f578082015181840152602081019050620001f2565b60008484015250505050565b6000620002326200022c84620001b9565b6200019a565b9050828152602081018484840111156200025157620002506200011f565b5b6200025e848285620001ef565b509392505050565b600082601f8301126200027e576200027d6200011a565b5b8151620002908482602086016200021b565b91505092915050565b600060ff82169050919050565b620002b18162000299565b8114620002bd57600080fd5b50565b600081519050620002d181620002a6565b92915050565b60008060008060808587031215620002f457620002f3620000d5565b5b6000620003048782880162000103565b945050602085015167ffffffffffffffff811115620003285762000327620000da565b5b620003368782880162000266565b93505060406200034987828801620002c0565b925050606085015167ffffffffffffffff8111156200036d576200036c620000da565b5b6200037b8782880162000266565b91505092959194509250565b600081519050919050565b7f4e487b7100000000000000000000000000000000000000000000000000000000600052602260045260246000fd5b60006002820490506001821680620003da57607f821691505b602082108103620003f057620003ef62000392565b5b50919050565b60008190508160005260206000209050919050565b60006020601f8301049050919050565b600082821b905092915050565b6000600883026200045a7fffffffffffffffffffffffffffffffffffffffffffffffffffffffffffffffff826200041b565b6200046686836200041b565b95508019841693508086168417925050509392505050565b6000819050919050565b6000620004a9620004a36200049d84620000df565b6200047e565b620000df565b9050919050565b6000819050919050565b620004c58362000488565b620004dd620004d482620004b0565b84845462000428565b825550505050565b600090565b620004f4620004e5565b62000501818484620004ba565b505050565b5b8181101562000529576200051d600082620004ea565b60018101905062000507565b5050565b601f82111562000578576200054281620003f6565b6200054d846200040b565b810160208510156200055d578190505b620005756200056c856200040b565b83018262000506565b50505b505050565b600082821c905092915050565b60006200059d600019846008026200057d565b1980831691505092915050565b6000620005b883836200058a565b9150826002028217905092915050565b620005d38262000387565b67ffffffffffffffff811115620005ef57620005ee62000135565b5b620005fb8254620003c1565b620006088282856200052d565b600060209050601f8311600181146200064057600084156200062b578287015190505b620006378582620005aa565b865550620006a7565b601f1984166200065086620003f6565b60005b828110156200067a5784890151825560018201915060208501945060208101905062000653565b868310156200069a578489015162000696601f8916826200058a565b8355505b6001600288020188555050505b505050505050565b61146b80620006bf6000396000f3fe608060405234801561001057600080fd5b50600436106100f55760003560e01c8063417c73a711610097578063a0712d6811610066578063a0712d681461029a578063a9059cbb146102b6578063dd62ed3e146102e6578063e47d606014610316576100f5565b8063417c73a7146102005780635c6581651461021c57806370a082311461024c57806395d89b411461027c576100f5565b806323b872dd116100d357806323b872dd1461016657806327e235e314610196578063313ce567146101c657806333ec73d3146101e4576100f5565b806306fdde03146100fa578063095ea7b31461011857806318160ddd14610148575b600080fd5b610102610346565b60405161010f9190610f09565b60405180910390f35b610132600480360381019061012d9190610fc4565b6103d4565b60405161013f919061101f565b60405180910390f35b6101506104c6565b60405161015d9190611049565b60405180910390f35b610180600480360381019061017b9190611064565b6104cc565b60405161018d919061101f565b60405180910390f35b6101b060048036038101906101ab91906110b7565b6108ce565b6040516101bd9190611049565b60405180910390f35b6101ce6108e6565b6040516101db9190611100565b60405180910390f35b6101fe60048036038101906101f991906110b7565b6108f9565b005b61021a600480360381019061021591906110b7565b610953565b005b6102366004803603810190610231919061111b565b6109ad565b6040516102439190611049565b60405180910390f35b610266600480360381019061026191906110b7565b6109d2565b6040516102739190611049565b60405180910390f35b610284610a1b565b6040516102919190610f09565b60405180910390f35b6102b460048036038101906102af919061115b565b610aa9565b005b6102d060048036038101906102cb9190610fc4565b610b1b565b6040516102dd919061101f565b60405180910390f35b61030060048036038101906102fb919061111b565b610dd2565b60405161030d9190611049565b60405180910390f35b610330600480360381019061032b91906110b7565b610e59565b60405161033d919061101f565b60405180910390f35b60048054610353906111b7565b80601f016020809104026020016040519081016040528092919081815260200182805461037f906111b7565b80156103cc5780601f106103a1576101008083540402835291602001916103cc565b820191906000526020600020905b8154815290600101906020018083116103af57829003601f168201915b505050505081565b600081600260003373ffffffffffffffffffffffffffffffffffffffff1673ffffffffffffffffffffffffffffffffffffffff16815260200190815260200160002060008573ffffffffffffffffffffffffffffffffffffffff1673ffffffffffffffffffffffffffffffffffffffff168152602001908152602001600020819055508273ffffffffffffffffffffffffffffffffffffffff163373ffffffffffffffffffffffffffffffffffffffff167f8c5be1e5ebec7d5bd14f71427d1e84f3dd0314c0f7b2291e5b200ac8c7c3b925846040516104b49190611049565b60405180910390a36001905092915050565b60035481565b60008060008573ffffffffffffffffffffffffffffffffffffffff1673ffffffffffffffffffffffffffffffffffffffff16815260200190815260200160002060009054906101000a900460ff161561055a576040517f08c379a00000000000000000000000000000000000000000000000000000000081526004016105519061125a565b60405180910390fd5b6000808473ffffffffffffffffffffffffffffffffffffffff1673ffffffffffffffffffffffffffffffffffffffff16815260200190815260200160002060009054906101000a900460ff16156105e6576040517f08c379a00000000000000000000000000000000000000000000000000000000081526004016105dd9061125a565b60405180910390fd5b6000600260008673ffffffffffffffffffffffffffffffffffffffff1673ffffffffffffffffffffffffffffffffffffffff16815260200190815260200160002060003373ffffffffffffffffffffffffffffffffffffffff1673ffffffffffffffffffffffffffffffffffffffff16815260200190815260200160002054905082600160008773ffffffffffffffffffffffffffffffffffffffff1673ffffffffffffffffffffffffffffffffffffffff16815260200190815260200160002054101580156106b65750828110155b6106f5576040517f08c379a00000000000000000000000000000000000000000000000000000000081526004016106ec906112ec565b60405180910390fd5b82600160008673ffffffffffffffffffffffffffffffffffffffff1673ffffffffffffffffffffffffffffffffffffffff1681526020019081526020016000206000828254610744919061133b565b9250508190555082600160008773ffffffffffffffffffffffffffffffffffffffff1673ffffffffffffffffffffffffffffffffffffffff168152602001908152602001600020600082825461079a919061136f565b925050819055507fffffffffffffffffffffffffffffffffffffffffffffffffffffffffffffffff81101561085d5782600260008773ffffffffffffffffffffffffffffffffffffffff1673ffffffffffffffffffffffffffffffffffffffff16815260200190815260200160002060003373ffffffffffffffffffffffffffffffffffffffff1673ffffffffffffffffffffffffffffffffffffffff1681526020019081526020016000206000828254610855919061136f565b925050819055505b8373ffffffffffffffffffffffffffffffffffffffff168573ffffffffffffffffffffffffffffffffffffffff167fddf252ad1be2c89b69c2b068fc378daa952ba7f163c4a11628f55a4df523b3ef856040516108ba9190611049565b60405180910390a360019150509392505050565b60016020528060005260406000206000915090505481565b600560009054906101000a900460ff1681565b60008060008373ffffffffffffffffffffffffffffffffffffffff1673ffffffffffffffffffffffffffffffffffffffff16815260200190815260200160002060006101000a81548160ff02191690831515021790555050565b60016000808373ffffffffffffffffffffffffffffffffffffffff1673ffffffffffffffffffffffffffffffffffffffff16815260200190815260200160002060006101000a81548160ff02191690831515021790555050565b6002602052816000526040600020602052806000526040600020600091509150505481565b6000600160008373ffffffffffffffffffffffffffffffffffffffff1673ffffffffffffffffffffffffffffffffffffffff168152602001908152602001600020549050919050565b60068054610a28906111b7565b80601f0160208091040260200160405190810160405280929190818152602001828054610a54906111b7565b8015610aa15780601f10610a7657610100808354040283529160200191610aa1565b820191906000526020600020905b815481529060010190602001808311610a8457829003601f168201915b505050505081565b80600160003373ffffffffffffffffffffffffffffffffffffffff1673ffffffffffffffffffffffffffffffffffffffff1681526020019081526020016000206000828254610af8919061133b565b925050819055508060036000828254610b11919061133b565b9250508190555050565b600081600160003373ffffffffffffffffffffffffffffffffffffffff1673ffffffffffffffffffffffffffffffffffffffff168152602001908152602001600020541015610b9f576040517f08c379a0000000000000000000000000000000000000000000000000000000008152600401610b9690611415565b60405180910390fd5b6000803373ffffffffffffffffffffffffffffffffffffffff1673ffffffffffffffffffffffffffffffffffffffff16815260200190815260200160002060009054906101000a900460ff1615610c2b576040517f08c379a0000000000000000000000000000000000000000000000000000000008152600401610c229061125a565b60405180910390fd5b6000808473ffffffffffffffffffffffffffffffffffffffff1673ffffffffffffffffffffffffffffffffffffffff16815260200190815260200160002060009054906101000a900460ff1615610cb7576040517f08c379a0000000000000000000000000000000000000000000000000000000008152600401610cae9061125a565b60405180910390fd5b81600160003373ffffffffffffffffffffffffffffffffffffffff1673ffffffffffffffffffffffffffffffffffffffff1681526020019081526020016000206000828254610d06919061136f565b9250508190555081600160008573ffffffffffffffffffffffffffffffffffffffff1673ffffffffffffffffffffffffffffffffffffffff1681526020019081526020016000206000828254610d5c919061133b565b925050819055508273ffffffffffffffffffffffffffffffffffffffff163373ffffffffffffffffffffffffffffffffffffffff167fddf252ad1be2c89b69c2b068fc378daa952ba7f163c4a11628f55a4df523b3ef84604051610dc09190611049565b60405180910390a36001905092915050565b6000600260008473ffffffffffffffffffffffffffffffffffffffff1673ffffffffffffffffffffffffffffffffffffffff16815260200190815260200160002060008373ffffffffffffffffffffffffffffffffffffffff1673ffffffffffffffffffffffffffffffffffffffff16815260200190815260200160002054905092915050565b60006020528060005260406000206000915054906101000a900460ff1681565b600081519050919050565b600082825260208201905092915050565b60005b83811015610eb3578082015181840152602081019050610e98565b60008484015250505050565b6000601f19601f8301169050919050565b6000610edb82610e79565b610ee58185610e84565b9350610ef5818560208601610e95565b610efe81610ebf565b840191505092915050565b60006020820190508181036000830152610f238184610ed0565b905092915050565b600080fd5b600073ffffffffffffffffffffffffffffffffffffffff82169050919050565b6000610f5b82610f30565b9050919050565b610f6b81610f50565b8114610f7657600080fd5b50565b600081359050610f8881610f62565b92915050565b6000819050919050565b610fa181610f8e565b8114610fac57600080fd5b50565b600081359050610fbe81610f98565b92915050565b60008060408385031215610fdb57610fda610f2b565b5b6000610fe985828601610f79565b9250506020610ffa85828601610faf565b9150509250929050565b60008115159050919050565b61101981611004565b82525050565b60006020820190506110346000830184611010565b92915050565b61104381610f8e565b82525050565b600060208201905061105e600083018461103a565b92915050565b60008060006060848603121561107d5761107c610f2b565b5b600061108b86828701610f79565b935050602061109c86828701610f79565b92505060406110ad86828701610faf565b9150509250925092565b6000602082840312156110cd576110cc610f2b565b5b60006110db84828501610f79565b91505092915050565b600060ff82169050919050565b6110fa816110e4565b82525050565b600060208201905061111560008301846110f1565b92915050565b6000806040838503121561113257611131610f2b565b5b600061114085828601610f79565b925050602061115185828601610f79565b9150509250929050565b60006020828403121561117157611170610f2b565b5b600061117f84828501610faf565b91505092915050565b7f4e487b7100000000000000000000000000000000000000000000000000000000600052602260045260246000fd5b600060028204905060018216806111cf57607f821691505b6020821081036111e2576111e1611188565b5b50919050565b7f43616e6e6f74207472616e7366657220746f20626c61636b6c6973746564206160008201527f6464726573730000000000000000000000000000000000000000000000000000602082015250565b6000611244602683610e84565b915061124f826111e8565b604082019050919050565b6000602082019050818103600083015261127381611237565b9050919050565b7f746f6b656e2062616c616e6365206f7220616c6c6f77616e6365206973206c6f60008201527f776572207468616e20616d6f756e742072657175657374656400000000000000602082015250565b60006112d6603983610e84565b91506112e18261127a565b604082019050919050565b60006020820190508181036000830152611305816112c9565b9050919050565b7f4e487b7100000000000000000000000000000000000000000000000000000000600052601160045260246000fd5b600061134682610f8e565b915061135183610f8e565b92508282019050808211156113695761136861130c565b5b92915050565b600061137a82610f8e565b915061138583610f8e565b925082820390508181111561139d5761139c61130c565b5b92915050565b7f746f6b656e2062616c616e6365206973206c6f776572207468616e207468652060008201527f76616c7565207265717565737465640000000000000000000000000000000000602082015250565b60006113ff602f83610e84565b915061140a826113a3565b604082019050919050565b6000602082019050818103600083015261142e816113f2565b905091905056fea2646970667358221220f610b0cfa75391319629946db3f29e46adc478a31367ae91d8d097676880283864736f6c63430008120033",
					"opcodes": "PUSH1 0x80 PUSH1 0x40 MSTORE CALLVALUE DUP1 ISZERO PUSH3 0x11 JUMPI PUSH1 0x0 DUP1 REVERT JUMPDEST POP PUSH1 0x40 MLOAD PUSH3 0x1B2A CODESIZE SUB DUP1 PUSH3 0x1B2A DUP4 CODECOPY DUP2 DUP2 ADD PUSH1 0x40 MSTORE DUP2 ADD SWAP1 PUSH3 0x37 SWAP2 SWAP1 PUSH3 0x2D7 JUMP JUMPDEST DUP4 PUSH1 0x1 PUSH1 0x0 CALLER PUSH20 0xFFFFFFFFFFFFFFFFFFFFFFFFFFFFFFFFFFFFFFFF AND PUSH20 0xFFFFFFFFFFFFFFFFFFFFFFFFFFFFFFFFFFFFFFFF AND DUP2 MSTORE PUSH1 0x20 ADD SWAP1 DUP2 MSTORE PUSH1 0x20 ADD PUSH1 0x0 KECCAK256 DUP2 SWAP1 SSTORE POP DUP4 PUSH1 0x3 DUP2 SWAP1 SSTORE POP DUP3 PUSH1 0x4 SWAP1 DUP2 PUSH3 0x93 SWAP2 SWAP1 PUSH3 0x5C8 JUMP JUMPDEST POP DUP2 PUSH1 0x5 PUSH1 0x0 PUSH2 0x100 EXP DUP2 SLOAD DUP2 PUSH1 0xFF MUL NOT AND SWAP1 DUP4 PUSH1 0xFF AND MUL OR SWAP1 SSTORE POP DUP1 PUSH1 0x6 SWAP1 DUP2 PUSH3 0xC0 SWAP2 SWAP1 PUSH3 0x5C8 JUMP JUMPDEST POP POP POP POP POP PUSH3 0x6AF JUMP JUMPDEST PUSH1 0x0 PUSH1 0x40 MLOAD SWAP1 POP SWAP1 JUMP JUMPDEST PUSH1 0x0 DUP1 REVERT JUMPDEST PUSH1 0x0 DUP1 REVERT JUMPDEST PUSH1 0x0 DUP2 SWAP1 POP SWAP2 SWAP1 POP JUMP JUMPDEST PUSH3 0xF4 DUP2 PUSH3 0xDF JUMP JUMPDEST DUP2 EQ PUSH3 0x100 JUMPI PUSH1 0x0 DUP1 REVERT JUMPDEST POP JUMP JUMPDEST PUSH1 0x0 DUP2 MLOAD SWAP1 POP PUSH3 0x114 DUP2 PUSH3 0xE9 JUMP JUMPDEST SWAP3 SWAP2 POP POP JUMP JUMPDEST PUSH1 0x0 DUP1 REVERT JUMPDEST PUSH1 0x0 DUP1 REVERT JUMPDEST PUSH1 0x0 PUSH1 0x1F NOT PUSH1 0x1F DUP4 ADD AND SWAP1 POP SWAP2 SWAP1 POP JUMP JUMPDEST PUSH32 0x4E487B7100000000000000000000000000000000000000000000000000000000 PUSH1 0x0 MSTORE PUSH1 0x41 PUSH1 0x4 MSTORE PUSH1 0x24 PUSH1 0x0 REVERT JUMPDEST PUSH3 0x16F DUP3 PUSH3 0x124 JUMP JUMPDEST DUP2 ADD DUP2 DUP2 LT PUSH8 0xFFFFFFFFFFFFFFFF DUP3 GT OR ISZERO PUSH3 0x191 JUMPI PUSH3 0x190 PUSH3 0x135 JUMP JUMPDEST JUMPDEST DUP1 PUSH1 0x40 MSTORE POP POP POP JUMP JUMPDEST PUSH1 0x0 PUSH3 0x1A6 PUSH3 0xCB JUMP JUMPDEST SWAP1 POP PUSH3 0x1B4 DUP3 DUP3 PUSH3 0x164 JUMP JUMPDEST SWAP2 SWAP1 POP JUMP JUMPDEST PUSH1 0x0 PUSH8 0xFFFFFFFFFFFFFFFF DUP3 GT ISZERO PUSH3 0x1D7 JUMPI PUSH3 0x1D6 PUSH3 0x135 JUMP JUMPDEST JUMPDEST PUSH3 0x1E2 DUP3 PUSH3 0x124 JUMP JUMPDEST SWAP1 POP PUSH1 0x20 DUP2 ADD SWAP1 POP SWAP2 SWAP1 POP JUMP JUMPDEST PUSH1 0x0 JUMPDEST DUP4 DUP2 LT ISZERO PUSH3 0x20F JUMPI DUP1 DUP3 ADD MLOAD DUP2 DUP5 ADD MSTORE PUSH1 0x20 DUP2 ADD SWAP1 POP PUSH3 0x1F2 JUMP JUMPDEST PUSH1 0x0 DUP5 DUP5 ADD MSTORE POP POP POP POP JUMP JUMPDEST PUSH1 0x0 PUSH3 0x232 PUSH3 0x22C DUP5 PUSH3 0x1B9 JUMP JUMPDEST PUSH3 0x19A JUMP JUMPDEST SWAP1 POP DUP3 DUP2 MSTORE PUSH1 0x20 DUP2 ADD DUP5 DUP5 DUP5 ADD GT ISZERO PUSH3 0x251 JUMPI PUSH3 0x250 PUSH3 0x11F JUMP JUMPDEST JUMPDEST PUSH3 0x25E DUP5 DUP3 DUP6 PUSH3 0x1EF JUMP JUMPDEST POP SWAP4 SWAP3 POP POP POP JUMP JUMPDEST PUSH1 0x0 DUP3 PUSH1 0x1F DUP4 ADD SLT PUSH3 0x27E JUMPI PUSH3 0x27D PUSH3 0x11A JUMP JUMPDEST JUMPDEST DUP2 MLOAD PUSH3 0x290 DUP5 DUP3 PUSH1 0x20 DUP7 ADD PUSH3 0x21B JUMP JUMPDEST SWAP2 POP POP SWAP3 SWAP2 POP POP JUMP JUMPDEST PUSH1 0x0 PUSH1 0xFF DUP3 AND SWAP1 POP SWAP2 SWAP1 POP JUMP JUMPDEST PUSH3 0x2B1 DUP2 PUSH3 0x299 JUMP JUMPDEST DUP2 EQ PUSH3 0x2BD JUMPI PUSH1 0x0 DUP1 REVERT JUMPDEST POP JUMP JUMPDEST PUSH1 0x0 DUP2 MLOAD SWAP1 POP PUSH3 0x2D1 DUP2 PUSH3 0x2A6 JUMP JUMPDEST SWAP3 SWAP2 POP POP JUMP JUMPDEST PUSH1 0x0 DUP1 PUSH1 0x0 DUP1 PUSH1 0x80 DUP6 DUP8 SUB SLT ISZERO PUSH3 0x2F4 JUMPI PUSH3 0x2F3 PUSH3 0xD5 JUMP JUMPDEST JUMPDEST PUSH1 0x0 PUSH3 0x304 DUP8 DUP3 DUP9 ADD PUSH3 0x103 JUMP JUMPDEST SWAP5 POP POP PUSH1 0x20 DUP6 ADD MLOAD PUSH8 0xFFFFFFFFFFFFFFFF DUP2 GT ISZERO PUSH3 0x328 JUMPI PUSH3 0x327 PUSH3 0xDA JUMP JUMPDEST JUMPDEST PUSH3 0x336 DUP8 DUP3 DUP9 ADD PUSH3 0x266 JUMP JUMPDEST SWAP4 POP POP PUSH1 0x40 PUSH3 0x349 DUP8 DUP3 DUP9 ADD PUSH3 0x2C0 JUMP JUMPDEST SWAP3 POP POP PUSH1 0x60 DUP6 ADD MLOAD PUSH8 0xFFFFFFFFFFFFFFFF DUP2 GT ISZERO PUSH3 0x36D JUMPI PUSH3 0x36C PUSH3 0xDA JUMP JUMPDEST JUMPDEST PUSH3 0x37B DUP8 DUP3 DUP9 ADD PUSH3 0x266 JUMP JUMPDEST SWAP2 POP POP SWAP3 SWAP6 SWAP2 SWAP5 POP SWAP3 POP JUMP JUMPDEST PUSH1 0x0 DUP2 MLOAD SWAP1 POP SWAP2 SWAP1 POP JUMP JUMPDEST PUSH32 0x4E487B7100000000000000000000000000000000000000000000000000000000 PUSH1 0x0 MSTORE PUSH1 0x22 PUSH1 0x4 MSTORE PUSH1 0x24 PUSH1 0x0 REVERT JUMPDEST PUSH1 0x0 PUSH1 0x2 DUP3 DIV SWAP1 POP PUSH1 0x1 DUP3 AND DUP1 PUSH3 0x3DA JUMPI PUSH1 0x7F DUP3 AND SWAP2 POP JUMPDEST PUSH1 0x20 DUP3 LT DUP2 SUB PUSH3 0x3F0 JUMPI PUSH3 0x3EF PUSH3 0x392 JUMP JUMPDEST JUMPDEST POP SWAP2 SWAP1 POP JUMP JUMPDEST PUSH1 0x0 DUP2 SWAP1 POP DUP2 PUSH1 0x0 MSTORE PUSH1 0x20 PUSH1 0x0 KECCAK256 SWAP1 POP SWAP2 SWAP1 POP JUMP JUMPDEST PUSH1 0x0 PUSH1 0x20 PUSH1 0x1F DUP4 ADD DIV SWAP1 POP SWAP2 SWAP1 POP JUMP JUMPDEST PUSH1 0x0 DUP3 DUP3 SHL SWAP1 POP SWAP3 SWAP2 POP POP JUMP JUMPDEST PUSH1 0x0 PUSH1 0x8 DUP4 MUL PUSH3 0x45A PUSH32 0xFFFFFFFFFFFFFFFFFFFFFFFFFFFFFFFFFFFFFFFFFFFFFFFFFFFFFFFFFFFFFFFF DUP3 PUSH3 0x41B JUMP JUMPDEST PUSH3 0x466 DUP7 DUP4 PUSH3 0x41B JUMP JUMPDEST SWAP6 POP DUP1 NOT DUP5 AND SWAP4 POP DUP1 DUP7 AND DUP5 OR SWAP3 POP POP POP SWAP4 SWAP3 POP POP POP JUMP JUMPDEST PUSH1 0x0 DUP2 SWAP1 POP SWAP2 SWAP1 POP JUMP JUMPDEST PUSH1 0x0 PUSH3 0x4A9 PUSH3 0x4A3 PUSH3 0x49D DUP5 PUSH3 0xDF JUMP JUMPDEST PUSH3 0x47E JUMP JUMPDEST PUSH3 0xDF JUMP JUMPDEST SWAP1 POP SWAP2 SWAP1 POP JUMP JUMPDEST PUSH1 0x0 DUP2 SWAP1 POP SWAP2 SWAP1 POP JUMP JUMPDEST PUSH3 0x4C5 DUP4 PUSH3 0x488 JUMP JUMPDEST PUSH3 0x4DD PUSH3 0x4D4 DUP3 PUSH3 0x4B0 JUMP JUMPDEST DUP5 DUP5 SLOAD PUSH3 0x428 JUMP JUMPDEST DUP3 SSTORE POP POP POP POP JUMP JUMPDEST PUSH1 0x0 SWAP1 JUMP JUMPDEST PUSH3 0x4F4 PUSH3 0x4E5 JUMP JUMPDEST PUSH3 0x501 DUP2 DUP5 DUP5 PUSH3 0x4BA JUMP JUMPDEST POP POP POP JUMP JUMPDEST JUMPDEST DUP2 DUP2 LT ISZERO PUSH3 0x529 JUMPI PUSH3 0x51D PUSH1 0x0 DUP3 PUSH3 0x4EA JUMP JUMPDEST PUSH1 0x1 DUP2 ADD SWAP1 POP PUSH3 0x507 JUMP JUMPDEST POP POP JUMP JUMPDEST PUSH1 0x1F DUP3 GT ISZERO PUSH3 0x578 JUMPI PUSH3 0x542 DUP2 PUSH3 0x3F6 JUMP JUMPDEST PUSH3 0x54D DUP5 PUSH3 0x40B JUMP JUMPDEST DUP2 ADD PUSH1 0x20 DUP6 LT ISZERO PUSH3 0x55D JUMPI DUP2 SWAP1 POP JUMPDEST PUSH3 0x575 PUSH3 0x56C DUP6 PUSH3 0x40B JUMP JUMPDEST DUP4 ADD DUP3 PUSH3 0x506 JUMP JUMPDEST POP POP JUMPDEST POP POP POP JUMP JUMPDEST PUSH1 0x0 DUP3 DUP3 SHR SWAP1 POP SWAP3 SWAP2 POP POP JUMP JUMPDEST PUSH1 0x0 PUSH3 0x59D PUSH1 0x0 NOT DUP5 PUSH1 0x8 MUL PUSH3 0x57D JUMP JUMPDEST NOT DUP1 DUP4 AND SWAP2 POP POP SWAP3 SWAP2 POP POP JUMP JUMPDEST PUSH1 0x0 PUSH3 0x5B8 DUP4 DUP4 PUSH3 0x58A JUMP JUMPDEST SWAP2 POP DUP3 PUSH1 0x2 MUL DUP3 OR SWAP1 POP SWAP3 SWAP2 POP POP JUMP JUMPDEST PUSH3 0x5D3 DUP3 PUSH3 0x387 JUMP JUMPDEST PUSH8 0xFFFFFFFFFFFFFFFF DUP2 GT ISZERO PUSH3 0x5EF JUMPI PUSH3 0x5EE PUSH3 0x135 JUMP JUMPDEST JUMPDEST PUSH3 0x5FB DUP3 SLOAD PUSH3 0x3C1 JUMP JUMPDEST PUSH3 0x608 DUP3 DUP3 DUP6 PUSH3 0x52D JUMP JUMPDEST PUSH1 0x0 PUSH1 0x20 SWAP1 POP PUSH1 0x1F DUP4 GT PUSH1 0x1 DUP2 EQ PUSH3 0x640 JUMPI PUSH1 0x0 DUP5 ISZERO PUSH3 0x62B JUMPI DUP3 DUP8 ADD MLOAD SWAP1 POP JUMPDEST PUSH3 0x637 DUP6 DUP3 PUSH3 0x5AA JUMP JUMPDEST DUP7 SSTORE POP PUSH3 0x6A7 JUMP JUMPDEST PUSH1 0x1F NOT DUP5 AND PUSH3 0x650 DUP7 PUSH3 0x3F6 JUMP JUMPDEST PUSH1 0x0 JUMPDEST DUP3 DUP2 LT ISZERO PUSH3 0x67A JUMPI DUP5 DUP10 ADD MLOAD DUP3 SSTORE PUSH1 0x1 DUP3 ADD SWAP2 POP PUSH1 0x20 DUP6 ADD SWAP5 POP PUSH1 0x20 DUP2 ADD SWAP1 POP PUSH3 0x653 JUMP JUMPDEST DUP7 DUP4 LT ISZERO PUSH3 0x69A JUMPI DUP5 DUP10 ADD MLOAD PUSH3 0x696 PUSH1 0x1F DUP10 AND DUP3 PUSH3 0x58A JUMP JUMPDEST DUP4 SSTORE POP JUMPDEST PUSH1 0x1 PUSH1 0x2 DUP9 MUL ADD DUP9 SSTORE POP POP POP JUMPDEST POP POP POP POP POP POP JUMP JUMPDEST PUSH2 0x146B DUP1 PUSH3 0x6BF PUSH1 0x0 CODECOPY PUSH1 0x0 RETURN INVALID PUSH1 0x80 PUSH1 0x40 MSTORE CALLVALUE DUP1 ISZERO PUSH2 0x10 JUMPI PUSH1 0x0 DUP1 REVERT JUMPDEST POP PUSH1 0x4 CALLDATASIZE LT PUSH2 0xF5 JUMPI PUSH1 0x0 CALLDATALOAD PUSH1 0xE0 SHR DUP1 PUSH4 0x417C73A7 GT PUSH2 0x97 JUMPI DUP1 PUSH4 0xA0712D68 GT PUSH2 0x66 JUMPI DUP1 PUSH4 0xA0712D68 EQ PUSH2 0x29A JUMPI DUP1 PUSH4 0xA9059CBB EQ PUSH2 0x2B6 JUMPI DUP1 PUSH4 0xDD62ED3E EQ PUSH2 0x2E6 JUMPI DUP1 PUSH4 0xE47D6060 EQ PUSH2 0x316 JUMPI PUSH2 0xF5 JUMP JUMPDEST DUP1 PUSH4 0x417C73A7 EQ PUSH2 0x200 JUMPI DUP1 PUSH4 0x5C658165 EQ PUSH2 0x21C JUMPI DUP1 PUSH4 0x70A08231 EQ PUSH2 0x24C JUMPI DUP1 PUSH4 0x95D89B41 EQ PUSH2 0x27C JUMPI PUSH2 0xF5 JUMP JUMPDEST DUP1 PUSH4 0x23B872DD GT PUSH2 0xD3 JUMPI DUP1 PUSH4 0x23B872DD EQ PUSH2 0x166 JUMPI DUP1 PUSH4 0x27E235E3 EQ PUSH2 0x196 JUMPI DUP1 PUSH4 0x313CE567 EQ PUSH2 0x1C6 JUMPI DUP1 PUSH4 0x33EC73D3 EQ PUSH2 0x1E4 JUMPI PUSH2 0xF5 JUMP JUMPDEST DUP1 PUSH4 0x6FDDE03 EQ PUSH2 0xFA JUMPI DUP1 PUSH4 0x95EA7B3 EQ PUSH2 0x118 JUMPI DUP1 PUSH4 0x18160DDD EQ PUSH2 0x148 JUMPI JUMPDEST PUSH1 0x0 DUP1 REVERT JUMPDEST PUSH2 0x102 PUSH2 0x346 JUMP JUMPDEST PUSH1 0x40 MLOAD PUSH2 0x10F SWAP2 SWAP1 PUSH2 0xF09 JUMP JUMPDEST PUSH1 0x40 MLOAD DUP1 SWAP2 SUB SWAP1 RETURN JUMPDEST PUSH2 0x132 PUSH1 0x4 DUP1 CALLDATASIZE SUB DUP2 ADD SWAP1 PUSH2 0x12D SWAP2 SWAP1 PUSH2 0xFC4 JUMP JUMPDEST PUSH2 0x3D4 JUMP JUMPDEST PUSH1 0x40 MLOAD PUSH2 0x13F SWAP2 SWAP1 PUSH2 0x101F JUMP JUMPDEST PUSH1 0x40 MLOAD DUP1 SWAP2 SUB SWAP1 RETURN JUMPDEST PUSH2 0x150 PUSH2 0x4C6 JUMP JUMPDEST PUSH1 0x40 MLOAD PUSH2 0x15D SWAP2 SWAP1 PUSH2 0x1049 JUMP JUMPDEST PUSH1 0x40 MLOAD DUP1 SWAP2 SUB SWAP1 RETURN JUMPDEST PUSH2 0x180 PUSH1 0x4 DUP1 CALLDATASIZE SUB DUP2 ADD SWAP1 PUSH2 0x17B SWAP2 SWAP1 PUSH2 0x1064 JUMP JUMPDEST PUSH2 0x4CC JUMP JUMPDEST PUSH1 0x40 MLOAD PUSH2 0x18D SWAP2 SWAP1 PUSH2 0x101F JUMP JUMPDEST PUSH1 0x40 MLOAD DUP1 SWAP2 SUB SWAP1 RETURN JUMPDEST PUSH2 0x1B0 PUSH1 0x4 DUP1 CALLDATASIZE SUB DUP2 ADD SWAP1 PUSH2 0x1AB SWAP2 SWAP1 PUSH2 0x10B7 JUMP JUMPDEST PUSH2 0x8CE JUMP JUMPDEST PUSH1 0x40 MLOAD PUSH2 0x1BD SWAP2 SWAP1 PUSH2 0x1049 JUMP JUMPDEST PUSH1 0x40 MLOAD DUP1 SWAP2 SUB SWAP1 RETURN JUMPDEST PUSH2 0x1CE PUSH2 0x8E6 JUMP JUMPDEST PUSH1 0x40 MLOAD PUSH2 0x1DB SWAP2 SWAP1 PUSH2 0x1100 JUMP JUMPDEST PUSH1 0x40 MLOAD DUP1 SWAP2 SUB SWAP1 RETURN JUMPDEST PUSH2 0x1FE PUSH1 0x4 DUP1 CALLDATASIZE SUB DUP2 ADD SWAP1 PUSH2 0x1F9 SWAP2 SWAP1 PUSH2 0x10B7 JUMP JUMPDEST PUSH2 0x8F9 JUMP JUMPDEST STOP JUMPDEST PUSH2 0x21A PUSH1 0x4 DUP1 CALLDATASIZE SUB DUP2 ADD SWAP1 PUSH2 0x215 SWAP2 SWAP1 PUSH2 0x10B7 JUMP JUMPDEST PUSH2 0x953 JUMP JUMPDEST STOP JUMPDEST PUSH2 0x236 PUSH1 0x4 DUP1 CALLDATASIZE SUB DUP2 ADD SWAP1 PUSH2 0x231 SWAP2 SWAP1 PUSH2 0x111B JUMP JUMPDEST PUSH2 0x9AD JUMP JUMPDEST PUSH1 0x40 MLOAD PUSH2 0x243 SWAP2 SWAP1 PUSH2 0x1049 JUMP JUMPDEST PUSH1 0x40 MLOAD DUP1 SWAP2 SUB SWAP1 RETURN JUMPDEST PUSH2 0x266 PUSH1 0x4 DUP1 CALLDATASIZE SUB DUP2 ADD SWAP1 PUSH2 0x261 SWAP2 SWAP1 PUSH2 0x10B7 JUMP JUMPDEST PUSH2 0x9D2 JUMP JUMPDEST PUSH1 0x40 MLOAD PUSH2 0x273 SWAP2 SWAP1 PUSH2 0x1049 JUMP JUMPDEST PUSH1 0x40 MLOAD DUP1 SWAP2 SUB SWAP1 RETURN JUMPDEST PUSH2 0x284 PUSH2 0xA1B JUMP JUMPDEST PUSH1 0x40 MLOAD PUSH2 0x291 SWAP2 SWAP1 PUSH2 0xF09 JUMP JUMPDEST PUSH1 0x40 MLOAD DUP1 SWAP2 SUB SWAP1 RETURN JUMPDEST PUSH2 0x2B4 PUSH1 0x4 DUP1 CALLDATASIZE SUB DUP2 ADD SWAP1 PUSH2 0x2AF SWAP2 SWAP1 PUSH2 0x115B JUMP JUMPDEST PUSH2 0xAA9 JUMP JUMPDEST STOP JUMPDEST PUSH2 0x2D0 PUSH1 0x4 DUP1 CALLDATASIZE SUB DUP2 ADD SWAP1 PUSH2 0x2CB SWAP2 SWAP1 PUSH2 0xFC4 JUMP JUMPDEST PUSH2 0xB1B JUMP JUMPDEST PUSH1 0x40 MLOAD PUSH2 0x2DD SWAP2 SWAP1 PUSH2 0x101F JUMP JUMPDEST PUSH1 0x40 MLOAD DUP1 SWAP2 SUB SWAP1 RETURN JUMPDEST PUSH2 0x300 PUSH1 0x4 DUP1 CALLDATASIZE SUB DUP2 ADD SWAP1 PUSH2 0x2FB SWAP2 SWAP1 PUSH2 0x111B JUMP JUMPDEST PUSH2 0xDD2 JUMP JUMPDEST PUSH1 0x40 MLOAD PUSH2 0x30D SWAP2 SWAP1 PUSH2 0x1049 JUMP JUMPDEST PUSH1 0x40 MLOAD DUP1 SWAP2 SUB SWAP1 RETURN JUMPDEST PUSH2 0x330 PUSH1 0x4 DUP1 CALLDATASIZE SUB DUP2 ADD SWAP1 PUSH2 0x32B SWAP2 SWAP1 PUSH2 0x10B7 JUMP JUMPDEST PUSH2 0xE59 JUMP JUMPDEST PUSH1 0x40 MLOAD PUSH2 0x33D SWAP2 SWAP1 PUSH2 0x101F JUMP JUMPDEST PUSH1 0x40 MLOAD DUP1 SWAP2 SUB SWAP1 RETURN JUMPDEST PUSH1 0x4 DUP1 SLOAD PUSH2 0x353 SWAP1 PUSH2 0x11B7 JUMP JUMPDEST DUP1 PUSH1 0x1F ADD PUSH1 0x20 DUP1 SWAP2 DIV MUL PUSH1 0x20 ADD PUSH1 0x40 MLOAD SWAP1 DUP2 ADD PUSH1 0x40 MSTORE DUP1 SWAP3 SWAP2 SWAP1 DUP2 DUP2 MSTORE PUSH1 0x20 ADD DUP3 DUP1 SLOAD PUSH2 0x37F SWAP1 PUSH2 0x11B7 JUMP JUMPDEST DUP1 ISZERO PUSH2 0x3CC JUMPI DUP1 PUSH1 0x1F LT PUSH2 0x3A1 JUMPI PUSH2 0x100 DUP1 DUP4 SLOAD DIV MUL DUP4 MSTORE SWAP2 PUSH1 0x20 ADD SWAP2 PUSH2 0x3CC JUMP JUMPDEST DUP3 ADD SWAP2 SWAP1 PUSH1 0x0 MSTORE PUSH1 0x20 PUSH1 0x0 KECCAK256 SWAP1 JUMPDEST DUP2 SLOAD DUP2 MSTORE SWAP1 PUSH1 0x1 ADD SWAP1 PUSH1 0x20 ADD DUP1 DUP4 GT PUSH2 0x3AF JUMPI DUP3 SWAP1 SUB PUSH1 0x1F AND DUP3 ADD SWAP2 JUMPDEST POP POP POP POP POP DUP2 JUMP JUMPDEST PUSH1 0x0 DUP2 PUSH1 0x2 PUSH1 0x0 CALLER PUSH20 0xFFFFFFFFFFFFFFFFFFFFFFFFFFFFFFFFFFFFFFFF AND PUSH20 0xFFFFFFFFFFFFFFFFFFFFFFFFFFFFFFFFFFFFFFFF AND DUP2 MSTORE PUSH1 0x20 ADD SWAP1 DUP2 MSTORE PUSH1 0x20 ADD PUSH1 0x0 KECCAK256 PUSH1 0x0 DUP6 PUSH20 0xFFFFFFFFFFFFFFFFFFFFFFFFFFFFFFFFFFFFFFFF AND PUSH20 0xFFFFFFFFFFFFFFFFFFFFFFFFFFFFFFFFFFFFFFFF AND DUP2 MSTORE PUSH1 0x20 ADD SWAP1 DUP2 MSTORE PUSH1 0x20 ADD PUSH1 0x0 KECCAK256 DUP2 SWAP1 SSTORE POP DUP3 PUSH20 0xFFFFFFFFFFFFFFFFFFFFFFFFFFFFFFFFFFFFFFFF AND CALLER PUSH20 0xFFFFFFFFFFFFFFFFFFFFFFFFFFFFFFFFFFFFFFFF AND PUSH32 0x8C5BE1E5EBEC7D5BD14F71427D1E84F3DD0314C0F7B2291E5B200AC8C7C3B925 DUP5 PUSH1 0x40 MLOAD PUSH2 0x4B4 SWAP2 SWAP1 PUSH2 0x1049 JUMP JUMPDEST PUSH1 0x40 MLOAD DUP1 SWAP2 SUB SWAP1 LOG3 PUSH1 0x1 SWAP1 POP SWAP3 SWAP2 POP POP JUMP JUMPDEST PUSH1 0x3 SLOAD DUP2 JUMP JUMPDEST PUSH1 0x0 DUP1 PUSH1 0x0 DUP6 PUSH20 0xFFFFFFFFFFFFFFFFFFFFFFFFFFFFFFFFFFFFFFFF AND PUSH20 0xFFFFFFFFFFFFFFFFFFFFFFFFFFFFFFFFFFFFFFFF AND DUP2 MSTORE PUSH1 0x20 ADD SWAP1 DUP2 MSTORE PUSH1 0x20 ADD PUSH1 0x0 KECCAK256 PUSH1 0x0 SWAP1 SLOAD SWAP1 PUSH2 0x100 EXP SWAP1 DIV PUSH1 0xFF AND ISZERO PUSH2 0x55A JUMPI PUSH1 0x40 MLOAD PUSH32 0x8C379A000000000000000000000000000000000000000000000000000000000 DUP2 MSTORE PUSH1 0x4 ADD PUSH2 0x551 SWAP1 PUSH2 0x125A JUMP JUMPDEST PUSH1 0x40 MLOAD DUP1 SWAP2 SUB SWAP1 REVERT JUMPDEST PUSH1 0x0 DUP1 DUP5 PUSH20 0xFFFFFFFFFFFFFFFFFFFFFFFFFFFFFFFFFFFFFFFF AND PUSH20 0xFFFFFFFFFFFFFFFFFFFFFFFFFFFFFFFFFFFFFFFF AND DUP2 MSTORE PUSH1 0x20 ADD SWAP1 DUP2 MSTORE PUSH1 0x20 ADD PUSH1 0x0 KECCAK256 PUSH1 0x0 SWAP1 SLOAD SWAP1 PUSH2 0x100 EXP SWAP1 DIV PUSH1 0xFF AND ISZERO PUSH2 0x5E6 JUMPI PUSH1 0x40 MLOAD PUSH32 0x8C379A000000000000000000000000000000000000000000000000000000000 DUP2 MSTORE PUSH1 0x4 ADD PUSH2 0x5DD SWAP1 PUSH2 0x125A JUMP JUMPDEST PUSH1 0x40 MLOAD DUP1 SWAP2 SUB SWAP1 REVERT JUMPDEST PUSH1 0x0 PUSH1 0x2 PUSH1 0x0 DUP7 PUSH20 0xFFFFFFFFFFFFFFFFFFFFFFFFFFFFFFFFFFFFFFFF AND PUSH20 0xFFFFFFFFFFFFFFFFFFFFFFFFFFFFFFFFFFFFFFFF AND DUP2 MSTORE PUSH1 0x20 ADD SWAP1 DUP2 MSTORE PUSH1 0x20 ADD PUSH1 0x0 KECCAK256 PUSH1 0x0 CALLER PUSH20 0xFFFFFFFFFFFFFFFFFFFFFFFFFFFFFFFFFFFFFFFF AND PUSH20 0xFFFFFFFFFFFFFFFFFFFFFFFFFFFFFFFFFFFFFFFF AND DUP2 MSTORE PUSH1 0x20 ADD SWAP1 DUP2 MSTORE PUSH1 0x20 ADD PUSH1 0x0 KECCAK256 SLOAD SWAP1 POP DUP3 PUSH1 0x1 PUSH1 0x0 DUP8 PUSH20 0xFFFFFFFFFFFFFFFFFFFFFFFFFFFFFFFFFFFFFFFF AND PUSH20 0xFFFFFFFFFFFFFFFFFFFFFFFFFFFFFFFFFFFFFFFF AND DUP2 MSTORE PUSH1 0x20 ADD SWAP1 DUP2 MSTORE PUSH1 0x20 ADD PUSH1 0x0 KECCAK256 SLOAD LT ISZERO DUP1 ISZERO PUSH2 0x6B6 JUMPI POP DUP3 DUP2 LT ISZERO JUMPDEST PUSH2 0x6F5 JUMPI PUSH1 0x40 MLOAD PUSH32 0x8C379A000000000000000000000000000000000000000000000000000000000 DUP2 MSTORE PUSH1 0x4 ADD PUSH2 0x6EC SWAP1 PUSH2 0x12EC JUMP JUMPDEST PUSH1 0x40 MLOAD DUP1 SWAP2 SUB SWAP1 REVERT JUMPDEST DUP3 PUSH1 0x1 PUSH1 0x0 DUP7 PUSH20 0xFFFFFFFFFFFFFFFFFFFFFFFFFFFFFFFFFFFFFFFF AND PUSH20 0xFFFFFFFFFFFFFFFFFFFFFFFFFFFFFFFFFFFFFFFF AND DUP2 MSTORE PUSH1 0x20 ADD SWAP1 DUP2 MSTORE PUSH1 0x20 ADD PUSH1 0x0 KECCAK256 PUSH1 0x0 DUP3 DUP3 SLOAD PUSH2 0x744 SWAP2 SWAP1 PUSH2 0x133B JUMP JUMPDEST SWAP3 POP POP DUP2 SWAP1 SSTORE POP DUP3 PUSH1 0x1 PUSH1 0x0 DUP8 PUSH20 0xFFFFFFFFFFFFFFFFFFFFFFFFFFFFFFFFFFFFFFFF AND PUSH20 0xFFFFFFFFFFFFFFFFFFFFFFFFFFFFFFFFFFFFFFFF AND DUP2 MSTORE PUSH1 0x20 ADD SWAP1 DUP2 MSTORE PUSH1 0x20 ADD PUSH1 0x0 KECCAK256 PUSH1 0x0 DUP3 DUP3 SLOAD PUSH2 0x79A SWAP2 SWAP1 PUSH2 0x136F JUMP JUMPDEST SWAP3 POP POP DUP2 SWAP1 SSTORE POP PUSH32 0xFFFFFFFFFFFFFFFFFFFFFFFFFFFFFFFFFFFFFFFFFFFFFFFFFFFFFFFFFFFFFFFF DUP2 LT ISZERO PUSH2 0x85D JUMPI DUP3 PUSH1 0x2 PUSH1 0x0 DUP8 PUSH20 0xFFFFFFFFFFFFFFFFFFFFFFFFFFFFFFFFFFFFFFFF AND PUSH20 0xFFFFFFFFFFFFFFFFFFFFFFFFFFFFFFFFFFFFFFFF AND DUP2 MSTORE PUSH1 0x20 ADD SWAP1 DUP2 MSTORE PUSH1 0x20 ADD PUSH1 0x0 KECCAK256 PUSH1 0x0 CALLER PUSH20 0xFFFFFFFFFFFFFFFFFFFFFFFFFFFFFFFFFFFFFFFF AND PUSH20 0xFFFFFFFFFFFFFFFFFFFFFFFFFFFFFFFFFFFFFFFF AND DUP2 MSTORE PUSH1 0x20 ADD SWAP1 DUP2 MSTORE PUSH1 0x20 ADD PUSH1 0x0 KECCAK256 PUSH1 0x0 DUP3 DUP3 SLOAD PUSH2 0x855 SWAP2 SWAP1 PUSH2 0x136F JUMP JUMPDEST SWAP3 POP POP DUP2 SWAP1 SSTORE POP JUMPDEST DUP4 PUSH20 0xFFFFFFFFFFFFFFFFFFFFFFFFFFFFFFFFFFFFFFFF AND DUP6 PUSH20 0xFFFFFFFFFFFFFFFFFFFFFFFFFFFFFFFFFFFFFFFF AND PUSH32 0xDDF252AD1BE2C89B69C2B068FC378DAA952BA7F163C4A11628F55A4DF523B3EF DUP6 PUSH1 0x40 MLOAD PUSH2 0x8BA SWAP2 SWAP1 PUSH2 0x1049 JUMP JUMPDEST PUSH1 0x40 MLOAD DUP1 SWAP2 SUB SWAP1 LOG3 PUSH1 0x1 SWAP2 POP POP SWAP4 SWAP3 POP POP POP JUMP JUMPDEST PUSH1 0x1 PUSH1 0x20 MSTORE DUP1 PUSH1 0x0 MSTORE PUSH1 0x40 PUSH1 0x0 KECCAK256 PUSH1 0x0 SWAP2 POP SWAP1 POP SLOAD DUP2 JUMP JUMPDEST PUSH1 0x5 PUSH1 0x0 SWAP1 SLOAD SWAP1 PUSH2 0x100 EXP SWAP1 DIV PUSH1 0xFF AND DUP2 JUMP JUMPDEST PUSH1 0x0 DUP1 PUSH1 0x0 DUP4 PUSH20 0xFFFFFFFFFFFFFFFFFFFFFFFFFFFFFFFFFFFFFFFF AND PUSH20 0xFFFFFFFFFFFFFFFFFFFFFFFFFFFFFFFFFFFFFFFF AND DUP2 MSTORE PUSH1 0x20 ADD SWAP1 DUP2 MSTORE PUSH1 0x20 ADD PUSH1 0x0 KECCAK256 PUSH1 0x0 PUSH2 0x100 EXP DUP2 SLOAD DUP2 PUSH1 0xFF MUL NOT AND SWAP1 DUP4 ISZERO ISZERO MUL OR SWAP1 SSTORE POP POP JUMP JUMPDEST PUSH1 0x1 PUSH1 0x0 DUP1 DUP4 PUSH20 0xFFFFFFFFFFFFFFFFFFFFFFFFFFFFFFFFFFFFFFFF AND PUSH20 0xFFFFFFFFFFFFFFFFFFFFFFFFFFFFFFFFFFFFFFFF AND DUP2 MSTORE PUSH1 0x20 ADD SWAP1 DUP2 MSTORE PUSH1 0x20 ADD PUSH1 0x0 KECCAK256 PUSH1 0x0 PUSH2 0x100 EXP DUP2 SLOAD DUP2 PUSH1 0xFF MUL NOT AND SWAP1 DUP4 ISZERO ISZERO MUL OR SWAP1 SSTORE POP POP JUMP JUMPDEST PUSH1 0x2 PUSH1 0x20 MSTORE DUP2 PUSH1 0x0 MSTORE PUSH1 0x40 PUSH1 0x0 KECCAK256 PUSH1 0x20 MSTORE DUP1 PUSH1 0x0 MSTORE PUSH1 0x40 PUSH1 0x0 KECCAK256 PUSH1 0x0 SWAP2 POP SWAP2 POP POP SLOAD DUP2 JUMP JUMPDEST PUSH1 0x0 PUSH1 0x1 PUSH1 0x0 DUP4 PUSH20 0xFFFFFFFFFFFFFFFFFFFFFFFFFFFFFFFFFFFFFFFF AND PUSH20 0xFFFFFFFFFFFFFFFFFFFFFFFFFFFFFFFFFFFFFFFF AND DUP2 MSTORE PUSH1 0x20 ADD SWAP1 DUP2 MSTORE PUSH1 0x20 ADD PUSH1 0x0 KECCAK256 SLOAD SWAP1 POP SWAP2 SWAP1 POP JUMP JUMPDEST PUSH1 0x6 DUP1 SLOAD PUSH2 0xA28 SWAP1 PUSH2 0x11B7 JUMP JUMPDEST DUP1 PUSH1 0x1F ADD PUSH1 0x20 DUP1 SWAP2 DIV MUL PUSH1 0x20 ADD PUSH1 0x40 MLOAD SWAP1 DUP2 ADD PUSH1 0x40 MSTORE DUP1 SWAP3 SWAP2 SWAP1 DUP2 DUP2 MSTORE PUSH1 0x20 ADD DUP3 DUP1 SLOAD PUSH2 0xA54 SWAP1 PUSH2 0x11B7 JUMP JUMPDEST DUP1 ISZERO PUSH2 0xAA1 JUMPI DUP1 PUSH1 0x1F LT PUSH2 0xA76 JUMPI PUSH2 0x100 DUP1 DUP4 SLOAD DIV MUL DUP4 MSTORE SWAP2 PUSH1 0x20 ADD SWAP2 PUSH2 0xAA1 JUMP JUMPDEST DUP3 ADD SWAP2 SWAP1 PUSH1 0x0 MSTORE PUSH1 0x20 PUSH1 0x0 KECCAK256 SWAP1 JUMPDEST DUP2 SLOAD DUP2 MSTORE SWAP1 PUSH1 0x1 ADD SWAP1 PUSH1 0x20 ADD DUP1 DUP4 GT PUSH2 0xA84 JUMPI DUP3 SWAP1 SUB PUSH1 0x1F AND DUP3 ADD SWAP2 JUMPDEST POP POP POP POP POP DUP2 JUMP JUMPDEST DUP1 PUSH1 0x1 PUSH1 0x0 CALLER PUSH20 0xFFFFFFFFFFFFFFFFFFFFFFFFFFFFFFFFFFFFFFFF AND PUSH20 0xFFFFFFFFFFFFFFFFFFFFFFFFFFFFFFFFFFFFFFFF AND DUP2 MSTORE PUSH1 0x20 ADD SWAP1 DUP2 MSTORE PUSH1 0x20 ADD PUSH1 0x0 KECCAK256 PUSH1 0x0 DUP3 DUP3 SLOAD PUSH2 0xAF8 SWAP2 SWAP1 PUSH2 0x133B JUMP JUMPDEST SWAP3 POP POP DUP2 SWAP1 SSTORE POP DUP1 PUSH1 0x3 PUSH1 0x0 DUP3 DUP3 SLOAD PUSH2 0xB11 SWAP2 SWAP1 PUSH2 0x133B JUMP JUMPDEST SWAP3 POP POP DUP2 SWAP1 SSTORE POP POP JUMP JUMPDEST PUSH1 0x0 DUP2 PUSH1 0x1 PUSH1 0x0 CALLER PUSH20 0xFFFFFFFFFFFFFFFFFFFFFFFFFFFFFFFFFFFFFFFF AND PUSH20 0xFFFFFFFFFFFFFFFFFFFFFFFFFFFFFFFFFFFFFFFF AND DUP2 MSTORE PUSH1 0x20 ADD SWAP1 DUP2 MSTORE PUSH1 0x20 ADD PUSH1 0x0 KECCAK256 SLOAD LT ISZERO PUSH2 0xB9F JUMPI PUSH1 0x40 MLOAD PUSH32 0x8C379A000000000000000000000000000000000000000000000000000000000 DUP2 MSTORE PUSH1 0x4 ADD PUSH2 0xB96 SWAP1 PUSH2 0x1415 JUMP JUMPDEST PUSH1 0x40 MLOAD DUP1 SWAP2 SUB SWAP1 REVERT JUMPDEST PUSH1 0x0 DUP1 CALLER PUSH20 0xFFFFFFFFFFFFFFFFFFFFFFFFFFFFFFFFFFFFFFFF AND PUSH20 0xFFFFFFFFFFFFFFFFFFFFFFFFFFFFFFFFFFFFFFFF AND DUP2 MSTORE PUSH1 0x20 ADD SWAP1 DUP2 MSTORE PUSH1 0x20 ADD PUSH1 0x0 KECCAK256 PUSH1 0x0 SWAP1 SLOAD SWAP1 PUSH2 0x100 EXP SWAP1 DIV PUSH1 0xFF AND ISZERO PUSH2 0xC2B JUMPI PUSH1 0x40 MLOAD PUSH32 0x8C379A000000000000000000000000000000000000000000000000000000000 DUP2 MSTORE PUSH1 0x4 ADD PUSH2 0xC22 SWAP1 PUSH2 0x125A JUMP JUMPDEST PUSH1 0x40 MLOAD DUP1 SWAP2 SUB SWAP1 REVERT JUMPDEST PUSH1 0x0 DUP1 DUP5 PUSH20 0xFFFFFFFFFFFFFFFFFFFFFFFFFFFFFFFFFFFFFFFF AND PUSH20 0xFFFFFFFFFFFFFFFFFFFFFFFFFFFFFFFFFFFFFFFF AND DUP2 MSTORE PUSH1 0x20 ADD SWAP1 DUP2 MSTORE PUSH1 0x20 ADD PUSH1 0x0 KECCAK256 PUSH1 0x0 SWAP1 SLOAD SWAP1 PUSH2 0x100 EXP SWAP1 DIV PUSH1 0xFF AND ISZERO PUSH2 0xCB7 JUMPI PUSH1 0x40 MLOAD PUSH32 0x8C379A000000000000000000000000000000000000000000000000000000000 DUP2 MSTORE PUSH1 0x4 ADD PUSH2 0xCAE SWAP1 PUSH2 0x125A JUMP JUMPDEST PUSH1 0x40 MLOAD DUP1 SWAP2 SUB SWAP1 REVERT JUMPDEST DUP2 PUSH1 0x1 PUSH1 0x0 CALLER PUSH20 0xFFFFFFFFFFFFFFFFFFFFFFFFFFFFFFFFFFFFFFFF AND PUSH20 0xFFFFFFFFFFFFFFFFFFFFFFFFFFFFFFFFFFFFFFFF AND DUP2 MSTORE PUSH1 0x20 ADD SWAP1 DUP2 MSTORE PUSH1 0x20 ADD PUSH1 0x0 KECCAK256 PUSH1 0x0 DUP3 DUP3 SLOAD PUSH2 0xD06 SWAP2 SWAP1 PUSH2 0x136F JUMP JUMPDEST SWAP3 POP POP DUP2 SWAP1 SSTORE POP DUP2 PUSH1 0x1 PUSH1 0x0 DUP6 PUSH20 0xFFFFFFFFFFFFFFFFFFFFFFFFFFFFFFFFFFFFFFFF AND PUSH20 0xFFFFFFFFFFFFFFFFFFFFFFFFFFFFFFFFFFFFFFFF AND DUP2 MSTORE PUSH1 0x20 ADD SWAP1 DUP2 MSTORE PUSH1 0x20 ADD PUSH1 0x0 KECCAK256 PUSH1 0x0 DUP3 DUP3 SLOAD PUSH2 0xD5C SWAP2 SWAP1 PUSH2 0x133B JUMP JUMPDEST SWAP3 POP POP DUP2 SWAP1 SSTORE POP DUP3 PUSH20 0xFFFFFFFFFFFFFFFFFFFFFFFFFFFFFFFFFFFFFFFF AND CALLER PUSH20 0xFFFFFFFFFFFFFFFFFFFFFFFFFFFFFFFFFFFFFFFF AND PUSH32 0xDDF252AD1BE2C89B69C2B068FC378DAA952BA7F163C4A11628F55A4DF523B3EF DUP5 PUSH1 0x40 MLOAD PUSH2 0xDC0 SWAP2 SWAP1 PUSH2 0x1049 JUMP JUMPDEST PUSH1 0x40 MLOAD DUP1 SWAP2 SUB SWAP1 LOG3 PUSH1 0x1 SWAP1 POP SWAP3 SWAP2 POP POP JUMP JUMPDEST PUSH1 0x0 PUSH1 0x2 PUSH1 0x0 DUP5 PUSH20 0xFFFFFFFFFFFFFFFFFFFFFFFFFFFFFFFFFFFFFFFF AND PUSH20 0xFFFFFFFFFFFFFFFFFFFFFFFFFFFFFFFFFFFFFFFF AND DUP2 MSTORE PUSH1 0x20 ADD SWAP1 DUP2 MSTORE PUSH1 0x20 ADD PUSH1 0x0 KECCAK256 PUSH1 0x0 DUP4 PUSH20 0xFFFFFFFFFFFFFFFFFFFFFFFFFFFFFFFFFFFFFFFF AND PUSH20 0xFFFFFFFFFFFFFFFFFFFFFFFFFFFFFFFFFFFFFFFF AND DUP2 MSTORE PUSH1 0x20 ADD SWAP1 DUP2 MSTORE PUSH1 0x20 ADD PUSH1 0x0 KECCAK256 SLOAD SWAP1 POP SWAP3 SWAP2 POP POP JUMP JUMPDEST PUSH1 0x0 PUSH1 0x20 MSTORE DUP1 PUSH1 0x0 MSTORE PUSH1 0x40 PUSH1 0x0 KECCAK256 PUSH1 0x0 SWAP2 POP SLOAD SWAP1 PUSH2 0x100 EXP SWAP1 DIV PUSH1 0xFF AND DUP2 JUMP JUMPDEST PUSH1 0x0 DUP2 MLOAD SWAP1 POP SWAP2 SWAP1 POP JUMP JUMPDEST PUSH1 0x0 DUP3 DUP3 MSTORE PUSH1 0x20 DUP3 ADD SWAP1 POP SWAP3 SWAP2 POP POP JUMP JUMPDEST PUSH1 0x0 JUMPDEST DUP4 DUP2 LT ISZERO PUSH2 0xEB3 JUMPI DUP1 DUP3 ADD MLOAD DUP2 DUP5 ADD MSTORE PUSH1 0x20 DUP2 ADD SWAP1 POP PUSH2 0xE98 JUMP JUMPDEST PUSH1 0x0 DUP5 DUP5 ADD MSTORE POP POP POP POP JUMP JUMPDEST PUSH1 0x0 PUSH1 0x1F NOT PUSH1 0x1F DUP4 ADD AND SWAP1 POP SWAP2 SWAP1 POP JUMP JUMPDEST PUSH1 0x0 PUSH2 0xEDB DUP3 PUSH2 0xE79 JUMP JUMPDEST PUSH2 0xEE5 DUP2 DUP6 PUSH2 0xE84 JUMP JUMPDEST SWAP4 POP PUSH2 0xEF5 DUP2 DUP6 PUSH1 0x20 DUP7 ADD PUSH2 0xE95 JUMP JUMPDEST PUSH2 0xEFE DUP2 PUSH2 0xEBF JUMP JUMPDEST DUP5 ADD SWAP2 POP POP SWAP3 SWAP2 POP POP JUMP JUMPDEST PUSH1 0x0 PUSH1 0x20 DUP3 ADD SWAP1 POP DUP2 DUP2 SUB PUSH1 0x0 DUP4 ADD MSTORE PUSH2 0xF23 DUP2 DUP5 PUSH2 0xED0 JUMP JUMPDEST SWAP1 POP SWAP3 SWAP2 POP POP JUMP JUMPDEST PUSH1 0x0 DUP1 REVERT JUMPDEST PUSH1 0x0 PUSH20 0xFFFFFFFFFFFFFFFFFFFFFFFFFFFFFFFFFFFFFFFF DUP3 AND SWAP1 POP SWAP2 SWAP1 POP JUMP JUMPDEST PUSH1 0x0 PUSH2 0xF5B DUP3 PUSH2 0xF30 JUMP JUMPDEST SWAP1 POP SWAP2 SWAP1 POP JUMP JUMPDEST PUSH2 0xF6B DUP2 PUSH2 0xF50 JUMP JUMPDEST DUP2 EQ PUSH2 0xF76 JUMPI PUSH1 0x0 DUP1 REVERT JUMPDEST POP JUMP JUMPDEST PUSH1 0x0 DUP2 CALLDATALOAD SWAP1 POP PUSH2 0xF88 DUP2 PUSH2 0xF62 JUMP JUMPDEST SWAP3 SWAP2 POP POP JUMP JUMPDEST PUSH1 0x0 DUP2 SWAP1 POP SWAP2 SWAP1 POP JUMP JUMPDEST PUSH2 0xFA1 DUP2 PUSH2 0xF8E JUMP JUMPDEST DUP2 EQ PUSH2 0xFAC JUMPI PUSH1 0x0 DUP1 REVERT JUMPDEST POP JUMP JUMPDEST PUSH1 0x0 DUP2 CALLDATALOAD SWAP1 POP PUSH2 0xFBE DUP2 PUSH2 0xF98 JUMP JUMPDEST SWAP3 SWAP2 POP POP JUMP JUMPDEST PUSH1 0x0 DUP1 PUSH1 0x40 DUP4 DUP6 SUB SLT ISZERO PUSH2 0xFDB JUMPI PUSH2 0xFDA PUSH2 0xF2B JUMP JUMPDEST JUMPDEST PUSH1 0x0 PUSH2 0xFE9 DUP6 DUP3 DUP7 ADD PUSH2 0xF79 JUMP JUMPDEST SWAP3 POP POP PUSH1 0x20 PUSH2 0xFFA DUP6 DUP3 DUP7 ADD PUSH2 0xFAF JUMP JUMPDEST SWAP2 POP POP SWAP3 POP SWAP3 SWAP1 POP JUMP JUMPDEST PUSH1 0x0 DUP2 ISZERO ISZERO SWAP1 POP SWAP2 SWAP1 POP JUMP JUMPDEST PUSH2 0x1019 DUP2 PUSH2 0x1004 JUMP JUMPDEST DUP3 MSTORE POP POP JUMP JUMPDEST PUSH1 0x0 PUSH1 0x20 DUP3 ADD SWAP1 POP PUSH2 0x1034 PUSH1 0x0 DUP4 ADD DUP5 PUSH2 0x1010 JUMP JUMPDEST SWAP3 SWAP2 POP POP JUMP JUMPDEST PUSH2 0x1043 DUP2 PUSH2 0xF8E JUMP JUMPDEST DUP3 MSTORE POP POP JUMP JUMPDEST PUSH1 0x0 PUSH1 0x20 DUP3 ADD SWAP1 POP PUSH2 0x105E PUSH1 0x0 DUP4 ADD DUP5 PUSH2 0x103A JUMP JUMPDEST SWAP3 SWAP2 POP POP JUMP JUMPDEST PUSH1 0x0 DUP1 PUSH1 0x0 PUSH1 0x60 DUP5 DUP7 SUB SLT ISZERO PUSH2 0x107D JUMPI PUSH2 0x107C PUSH2 0xF2B JUMP JUMPDEST JUMPDEST PUSH1 0x0 PUSH2 0x108B DUP7 DUP3 DUP8 ADD PUSH2 0xF79 JUMP JUMPDEST SWAP4 POP POP PUSH1 0x20 PUSH2 0x109C DUP7 DUP3 DUP8 ADD PUSH2 0xF79 JUMP JUMPDEST SWAP3 POP POP PUSH1 0x40 PUSH2 0x10AD DUP7 DUP3 DUP8 ADD PUSH2 0xFAF JUMP JUMPDEST SWAP2 POP POP SWAP3 POP SWAP3 POP SWAP3 JUMP JUMPDEST PUSH1 0x0 PUSH1 0x20 DUP3 DUP5 SUB SLT ISZERO PUSH2 0x10CD JUMPI PUSH2 0x10CC PUSH2 0xF2B JUMP JUMPDEST JUMPDEST PUSH1 0x0 PUSH2 0x10DB DUP5 DUP3 DUP6 ADD PUSH2 0xF79 JUMP JUMPDEST SWAP2 POP POP SWAP3 SWAP2 POP POP JUMP JUMPDEST PUSH1 0x0 PUSH1 0xFF DUP3 AND SWAP1 POP SWAP2 SWAP1 POP JUMP JUMPDEST PUSH2 0x10FA DUP2 PUSH2 0x10E4 JUMP JUMPDEST DUP3 MSTORE POP POP JUMP JUMPDEST PUSH1 0x0 PUSH1 0x20 DUP3 ADD SWAP1 POP PUSH2 0x1115 PUSH1 0x0 DUP4 ADD DUP5 PUSH2 0x10F1 JUMP JUMPDEST SWAP3 SWAP2 POP POP JUMP JUMPDEST PUSH1 0x0 DUP1 PUSH1 0x40 DUP4 DUP6 SUB SLT ISZERO PUSH2 0x1132 JUMPI PUSH2 0x1131 PUSH2 0xF2B JUMP JUMPDEST JUMPDEST PUSH1 0x0 PUSH2 0x1140 DUP6 DUP3 DUP7 ADD PUSH2 0xF79 JUMP JUMPDEST SWAP3 POP POP PUSH1 0x20 PUSH2 0x1151 DUP6 DUP3 DUP7 ADD PUSH2 0xF79 JUMP JUMPDEST SWAP2 POP POP SWAP3 POP SWAP3 SWAP1 POP JUMP JUMPDEST PUSH1 0x0 PUSH1 0x20 DUP3 DUP5 SUB SLT ISZERO PUSH2 0x1171 JUMPI PUSH2 0x1170 PUSH2 0xF2B JUMP JUMPDEST JUMPDEST PUSH1 0x0 PUSH2 0x117F DUP5 DUP3 DUP6 ADD PUSH2 0xFAF JUMP JUMPDEST SWAP2 POP POP SWAP3 SWAP2 POP POP JUMP JUMPDEST PUSH32 0x4E487B7100000000000000000000000000000000000000000000000000000000 PUSH1 0x0 MSTORE PUSH1 0x22 PUSH1 0x4 MSTORE PUSH1 0x24 PUSH1 0x0 REVERT JUMPDEST PUSH1 0x0 PUSH1 0x2 DUP3 DIV SWAP1 POP PUSH1 0x1 DUP3 AND DUP1 PUSH2 0x11CF JUMPI PUSH1 0x7F DUP3 AND SWAP2 POP JUMPDEST PUSH1 0x20 DUP3 LT DUP2 SUB PUSH2 0x11E2 JUMPI PUSH2 0x11E1 PUSH2 0x1188 JUMP JUMPDEST JUMPDEST POP SWAP2 SWAP1 POP JUMP JUMPDEST PUSH32 0x43616E6E6F74207472616E7366657220746F20626C61636B6C69737465642061 PUSH1 0x0 DUP3 ADD MSTORE PUSH32 0x6464726573730000000000000000000000000000000000000000000000000000 PUSH1 0x20 DUP3 ADD MSTORE POP JUMP JUMPDEST PUSH1 0x0 PUSH2 0x1244 PUSH1 0x26 DUP4 PUSH2 0xE84 JUMP JUMPDEST SWAP2 POP PUSH2 0x124F DUP3 PUSH2 0x11E8 JUMP JUMPDEST PUSH1 0x40 DUP3 ADD SWAP1 POP SWAP2 SWAP1 POP JUMP JUMPDEST PUSH1 0x0 PUSH1 0x20 DUP3 ADD SWAP1 POP DUP2 DUP2 SUB PUSH1 0x0 DUP4 ADD MSTORE PUSH2 0x1273 DUP2 PUSH2 0x1237 JUMP JUMPDEST SWAP1 POP SWAP2 SWAP1 POP JUMP JUMPDEST PUSH32 0x746F6B656E2062616C616E6365206F7220616C6C6F77616E6365206973206C6F PUSH1 0x0 DUP3 ADD MSTORE PUSH32 0x776572207468616E20616D6F756E742072657175657374656400000000000000 PUSH1 0x20 DUP3 ADD MSTORE POP JUMP JUMPDEST PUSH1 0x0 PUSH2 0x12D6 PUSH1 0x39 DUP4 PUSH2 0xE84 JUMP JUMPDEST SWAP2 POP PUSH2 0x12E1 DUP3 PUSH2 0x127A JUMP JUMPDEST PUSH1 0x40 DUP3 ADD SWAP1 POP SWAP2 SWAP1 POP JUMP JUMPDEST PUSH1 0x0 PUSH1 0x20 DUP3 ADD SWAP1 POP DUP2 DUP2 SUB PUSH1 0x0 DUP4 ADD MSTORE PUSH2 0x1305 DUP2 PUSH2 0x12C9 JUMP JUMPDEST SWAP1 POP SWAP2 SWAP1 POP JUMP JUMPDEST PUSH32 0x4E487B7100000000000000000000000000000000000000000000000000000000 PUSH1 0x0 MSTORE PUSH1 0x11 PUSH1 0x4 MSTORE PUSH1 0x24 PUSH1 0x0 REVERT JUMPDEST PUSH1 0x0 PUSH2 0x1346 DUP3 PUSH2 0xF8E JUMP JUMPDEST SWAP2 POP PUSH2 0x1351 DUP4 PUSH2 0xF8E JUMP JUMPDEST SWAP3 POP DUP3 DUP3 ADD SWAP1 POP DUP1 DUP3 GT ISZERO PUSH2 0x1369 JUMPI PUSH2 0x1368 PUSH2 0x130C JUMP JUMPDEST JUMPDEST SWAP3 SWAP2 POP POP JUMP JUMPDEST PUSH1 0x0 PUSH2 0x137A DUP3 PUSH2 0xF8E JUMP JUMPDEST SWAP2 POP PUSH2 0x1385 DUP4 PUSH2 0xF8E JUMP JUMPDEST SWAP3 POP DUP3 DUP3 SUB SWAP1 POP DUP2 DUP2 GT ISZERO PUSH2 0x139D JUMPI PUSH2 0x139C PUSH2 0x130C JUMP JUMPDEST JUMPDEST SWAP3 SWAP2 POP POP JUMP JUMPDEST PUSH32 0x746F6B656E2062616C616E6365206973206C6F776572207468616E2074686520 PUSH1 0x0 DUP3 ADD MSTORE PUSH32 0x76616C7565207265717565737465640000000000000000000000000000000000 PUSH1 0x20 DUP3 ADD MSTORE POP JUMP JUMPDEST PUSH1 0x0 PUSH2 0x13FF PUSH1 0x2F DUP4 PUSH2 0xE84 JUMP JUMPDEST SWAP2 POP PUSH2 0x140A DUP3 PUSH2 0x13A3 JUMP JUMPDEST PUSH1 0x40 DUP3 ADD SWAP1 POP SWAP2 SWAP1 POP JUMP JUMPDEST PUSH1 0x0 PUSH1 0x20 DUP3 ADD SWAP1 POP DUP2 DUP2 SUB PUSH1 0x0 DUP4 ADD MSTORE PUSH2 0x142E DUP2 PUSH2 0x13F2 JUMP JUMPDEST SWAP1 POP SWAP2 SWAP1 POP JUMP INVALID LOG2 PUSH5 0x6970667358 0x22 SLT KECCAK256 0xF6 LT 0xB0 0xCF 0xA7 MSTORE8 SWAP2 BALANCE SWAP7 0x29 SWAP5 PUSH14 0xB3F29E46ADC478A31367AE91D8D0 SWAP8 PUSH8 0x6880283864736F6C PUSH4 0x43000812 STOP CALLER "
				},
				"gasEstimates": {
					"creation": {
						"codeDepositCost": "1045400",
						"executionCost": "infinite",
						"totalCost": "infinite"
					},
					"external": {
						"RemoveFromBlackList(address)": "24901",
						"addToBlackList(address)": "24835",
						"allowance(address,address)": "infinite",
						"allowed(address,address)": "infinite",
						"approve(address,uint256)": "infinite",
						"balanceOf(address)": "2908",
						"balances(address)": "2859",
						"decimals()": "2538",
						"isBlackListed(address)": "2933",
						"mint(uint256)": "infinite",
						"name()": "infinite",
						"symbol()": "infinite",
						"totalSupply()": "2497",
						"transfer(address,uint256)": "infinite",
						"transferFrom(address,address,uint256)": "infinite"
					}
				},
				"methodIdentifiers": {
					"RemoveFromBlackList(address)": "33ec73d3",
					"addToBlackList(address)": "417c73a7",
					"allowance(address,address)": "dd62ed3e",
					"allowed(address,address)": "5c658165",
					"approve(address,uint256)": "095ea7b3",
					"balanceOf(address)": "70a08231",
					"balances(address)": "27e235e3",
					"decimals()": "313ce567",
					"isBlackListed(address)": "e47d6060",
					"mint(uint256)": "a0712d68",
					"name()": "06fdde03",
					"symbol()": "95d89b41",
					"totalSupply()": "18160ddd",
					"transfer(address,uint256)": "a9059cbb",
					"transferFrom(address,address,uint256)": "23b872dd"
				}
			},
			"storageLayout": {
				"storage": [
					{
						"astId": 74,
						"contract": "contracts/tokenWithBlacklist.sol:BlackToken",
						"label": "isBlackListed",
						"offset": 0,
						"slot": "0",
						"type": "t_mapping(t_address,t_bool)"
					},
					{
						"astId": 85,
						"contract": "contracts/tokenWithBlacklist.sol:BlackToken",
						"label": "balances",
						"offset": 0,
						"slot": "1",
						"type": "t_mapping(t_address,t_uint256)"
					},
					{
						"astId": 91,
						"contract": "contracts/tokenWithBlacklist.sol:BlackToken",
						"label": "allowed",
						"offset": 0,
						"slot": "2",
						"type": "t_mapping(t_address,t_mapping(t_address,t_uint256))"
					},
					{
						"astId": 93,
						"contract": "contracts/tokenWithBlacklist.sol:BlackToken",
						"label": "totalSupply",
						"offset": 0,
						"slot": "3",
						"type": "t_uint256"
					},
					{
						"astId": 95,
						"contract": "contracts/tokenWithBlacklist.sol:BlackToken",
						"label": "name",
						"offset": 0,
						"slot": "4",
						"type": "t_string_storage"
					},
					{
						"astId": 97,
						"contract": "contracts/tokenWithBlacklist.sol:BlackToken",
						"label": "decimals",
						"offset": 0,
						"slot": "5",
						"type": "t_uint8"
					},
					{
						"astId": 99,
						"contract": "contracts/tokenWithBlacklist.sol:BlackToken",
						"label": "symbol",
						"offset": 0,
						"slot": "6",
						"type": "t_string_storage"
					}
				],
				"types": {
					"t_address": {
						"encoding": "inplace",
						"label": "address",
						"numberOfBytes": "20"
					},
					"t_bool": {
						"encoding": "inplace",
						"label": "bool",
						"numberOfBytes": "1"
					},
					"t_mapping(t_address,t_bool)": {
						"encoding": "mapping",
						"key": "t_address",
						"label": "mapping(address => bool)",
						"numberOfBytes": "32",
						"value": "t_bool"
					},
					"t_mapping(t_address,t_mapping(t_address,t_uint256))": {
						"encoding": "mapping",
						"key": "t_address",
						"label": "mapping(address => mapping(address => uint256))",
						"numberOfBytes": "32",
						"value": "t_mapping(t_address,t_uint256)"
					},
					"t_mapping(t_address,t_uint256)": {
						"encoding": "mapping",
						"key": "t_address",
						"label": "mapping(address => uint256)",
						"numberOfBytes": "32",
						"value": "t_uint256"
					},
					"t_string_storage": {
						"encoding": "bytes",
						"label": "string",
						"numberOfBytes": "32"
					},
					"t_uint256": {
						"encoding": "inplace",
						"label": "uint256",
						"numberOfBytes": "32"
					},
					"t_uint8": {
						"encoding": "inplace",
						"label": "uint8",
						"numberOfBytes": "1"
					}
				}
			},
			"userdoc": {
				"kind": "user",
				"methods": {
					"approve(address,uint256)": {
						"notice": "`msg.sender` approves `_addr` to spend `_value` tokens"
					},
					"transfer(address,uint256)": {
						"notice": "send `_value` token to `_to` from `msg.sender`"
					},
					"transferFrom(address,address,uint256)": {
						"notice": "send `_value` token to `_to` from `_from` on the condition it is approved by `_from`"
					}
				},
				"version": 1
			}
		}
	}
}